:100000000C949F010C949F320C94C6320C94ED32E8
:100010000C9452380C9471050C94C7010C94C701D0
:100020000C94C7010C94C7010C94C7010C941433B1
:100030000C94C7010C94C7010C94C7010C94C70120
:100040000C94C7010C94C7010C94C7010C94C70110
:100050000C94C701350646065E066606B506F90627
:1000600002070B07140746074C078A077207630746
:100070008A0790079A07A807BA0720200000000007
:100080000000FF0700000000000005052020000020
:10009000000004FF04FF0401FF0108FF0607FF053D
:1000A00000000120040104012004080602200307C7
:1000B0000204052000000000000008010304000005
:1000C0000000010204050000000001040401040115
:1000D000010404FF0401FF010000200500000000EE
:1000E0000000040404202020000020040000000080
:1000F000000020200401040120200801020304055F
:10010000000001022004FF040000060602FF0707AA
:10011000000001060204070500000304FF2020FF81
:100120000000FF060607070500000806060307058E
:100130000000010102200820000008060203070554
:1001400000000806020707050000A5A50000000042
:10015000000004050000000000002004010101046B
:100160000000040404010101000001042004010155
:100170000000010602200720000008060203040414
:100180000000080602FF20FF0000FF0605FF07022F
:1001900000000801010304040000FF0102FF040540
:1001A0000000FF0606FF07070000FF0606FF2020ED
:1001B00000000801010304020000FF04FFFF20FF0C
:1001C000000001FF0104FF0400002020FF040405DB
:1001D0000000FF0405FF20020000FF2020FF0404B0
:1001E000000008030502FF2020FFFF0220FFFF2080
:1001F00003FF0801020304050000080602FF202097
:100200000000080102200304FF04FF0602FF200291
:100210000000080606070705000001FF0120FF2077
:100220000000FF20FF03040500000320200520023A
:100230000820FF2020FF0308020503040508200210
:10024000000003040520FF20000001060508070444
:100250000000FF01FF040000000001042020202016
:10026000010401FF04FF000000000802202000003C
:10027000000020202004040400001F1F1F000000B5
:100280000000181C1E1F1F1F1F1F1F1F1F1F1F0FD7
:10029000070300000000001F1F1F1F1F1F1F1F1E3E
:1002A0001C181F1F1F0000001F1F1F000000001F41
:1002B0001F1F03070F1F1F1F1F1F0000000000004C
:1002C0000002040000000000000000000000000028
:1002D0000000000000000000050701020408010200
:1002E00004082040102040808040201008040201B3
:1002F000010204081020408010800404040402025B
:1003000002020404020202020101010101010101D1
:10031000030303030303030304040000390036004E
:100320003300300000003B00380035003200000090
:100330003A0037003400310002002D1972321124C6
:100340001FBECFE5D8E0DEBFCDBF14E0A0E6B0E031
:10035000ECE2FAE702C005900D92AA32B107D9F794
:1003600025E0AAE2B4E001C01D92A032B207E1F795
:1003700011E0CFE9D1E004C02197FE010E94BE3B0D
:10038000CD39D107C9F70E94F0380C94143D0C9474
:1003900000001092E50408951F93CF93DF93EC01C2
:1003A000162F0E94FF3C181739F0612FCE01DF9104
:1003B000CF911F910C94073DDF91CF911F9108952C
:1003C00080EC94E00E94A52140E060E080EC94E0A5
:1003D0000E94AC216EE770E080EC94E00E948835CA
:1003E00041E060E080EC94E00E94AC2161E970E0C3
:1003F00080EC94E00E94883582E080936C0010923B
:10040000490408950C94FF3C109233046091330426
:10041000683018F580E098E0699FA0011124282F2A
:1004200030E0FA01E20FF31FE658FD4FE491D901E5
:10043000A65DBB4FEC938F5F883089F780933204C1
:100440006F5F4AE254E080EC94E00E948422809145
:1004500033048F5F80933304D9CF0895CF93C82F8F
:1004600040E0682F80EC94E00E94AC2160EA70E0EC
:1004700080EC94E00E94883541E06C2F80EC94E0A1
:100480000E94AC2160EA70E080EC94E0CF910C9483
:10049000883580914B048131B9F4809136048823EA
:1004A00031F083E080934B048091460405C081E0E5
:1004B00080934B0480914704815080934C0481E0E9
:1004C00080934904109245040895CF9380913A0493
:1004D000882341F081E180934B0410923A0481E03B
:1004E00080934904C0913704C13071F48CE00E94BC
:1004F000E734019749F48EE080934B04C0936D007C
:10050000C0934904C093440480913704823079F445
:100510008BE00E94E734019751F48EE080934B0406
:1005200081E080936D008093490480934404CF91CF
:1005300008952F923F924F925F926F927F928F9287
:100540009F92AF92BF92CF92DF92EF92FF920F9362
:100550001F93CF93DF93CDB7DEB760970FB6F894B4
:10056000DEBF0FBECDBF88E090E00E94FF389C87C1
:100570008B8761E070E00E94F52884E190E00E94A2
:10058000FF389A838983812C912C20E7A22E21ECBD
:10059000B22EC12CD12C30EFE32E31ECF32E00E043
:1005A00010E028E432ECB901A8010E94FF2E698115
:1005B0007A818B859C850E94BA2884E190E00E9414
:1005C000FF389C838B83812C912C5401C12CD12C1E
:1005D00040E7E42E41ECF42E9701860140E050E024
:1005E00060EF71EC0E94FF2E6B817C818B859C8576
:1005F0000E94BA2884E190E00E94FF389E838D8398
:10060000812C912C50E7A52E51E4B52EC12CD12C74
:1006100076019701860140E050E060E771EC0E94AE
:10062000FF2E6D817E818B859C850E94BA2884E196
:1006300090E00E94FF3898878F83812C912C60EF87
:10064000A62E61E4B62EC12CD12C70E7E72E71E402
:10065000F72E9701860140E050E0BA010E94FF2E7C
:100660006F8178858B859C850E94BA2884E190E013
:100670000E94FF389A878987812C912CE8E4AE2E5E
:10068000E2E4BE2E7501640100E010E020EF31E4E9
:1006900040E050E060E771E40E94FF2E69857A85B2
:1006A0008B859C850E94BA286B857C858091E204AD
:1006B0009091E3040E944A238AE090E00E94FF3870
:1006C000988B8F8761E070E00E94142984E190E0AC
:1006D0000E94FF389C878B87C12CD12C7601970113
:1006E0008601B701A6010E94FF2E6B857C858F8550
:1006F00098890E94BA2884E190E00E94FF389E8782
:100700008D87812C912CF4EBAF2EF2E4BF2EC12CFF
:10071000D12CA8E4EA2EA2E4FA2E9701860140E04B
:1007200050E0BA010E94FF2E6D857E858F859889E5
:100730000E94BA2884E190E00E94FF381C01812CBD
:10074000912CB2E0AB2EB3E4BB2EC12CD12C14EB18
:10075000E12E12E4F12E9701860140E050E068E4BA
:1007600072E40E94FF2EB1018F8598890E94BA28F9
:1007700084E190E00E94FF382C01812C912C0AE248
:10078000A02E03E4B02EC12CD12C82E0E82E83E40D
:10079000F82E9701860140E050E064EB72E4C2015C
:1007A0000E94FF2EB2018F8598890E94BA2884E1A9
:1007B00090E00E94FF383C017501640195018401BD
:1007C00040E050E062E073E40E94FF2EB3018F85A9
:1007D00098890E94BA286F8578898091E204909167
:1007E000E3040E9473238CE090E00E94FF38988B12
:1007F0008F870E94412D69817A818F8598890E9417
:100800004F2D82E090E00E94FF388C010E94B32EB1
:10081000B301C8010E94B72E87E090E00E94FF3824
:100820003C0198014F85588961E070E00E940C2DD1
:10083000B3018091E2049091E3040E94A7238CE02D
:1008400090E00E94FF389A8389830E94412D6B813A
:100850007C8189819A810E944F2D82E090E00E94E4
:10086000FF383C010E94B32EB201C3010E94B72E93
:1008700087E090E00E94FF388C01930149815A8102
:1008800062E070E00E940C2DB8018091E20490912A
:10089000E3040E94A7238CE090E00E94FF389A8333
:1008A00089830E94412D6D817E8189819A810E9478
:1008B0004F2D82E090E00E94FF383C010E94B32E51
:1008C000B101C3010E94B72E87E090E00E94FF387B
:1008D0008C01930149815A8163E070E00E940C2DE4
:1008E000B8018091E2049091E3040E94A7238CE078
:1008F00090E00E94FF389A8389830E94412D6F8186
:10090000788589819A810E944F2D82E090E00E9433
:10091000FF383C010E94B32E6D857E85C3010E9485
:10092000B72E87E090E00E94FF388C019301498147
:100930005A8164E070E00E940C2DB8018091E204BD
:100940009091E3040E94A7238CE090E00E94FF387E
:100950009A8389830E94412D69857A8589819A814C
:100960000E944F2D82E090E00E94FF383C010E94DF
:10097000B32E6B857C85C3010E94B72E87E090E083
:100980000E94FF388C01930149815A8165E070E033
:100990000E940C2DB8018091E2049091E3046096CE
:1009A0000FB6F894DEBF0FBECDBFDF91CF911F9180
:1009B0000F91FF90EF90DF90CF90BF90AF909F90FE
:1009C0008F907F906F905F904F903F902F900C94FE
:1009D000A7234F925F926F927F928F929F92AF92D6
:1009E000BF92CF92DF92EF92FF9286EE94E00E9448
:1009F00006236B017C016093D6047093D704809327
:100A0000D8049093D9048090D2049090D304A090FD
:100A1000D404B090D504A50194010E946F39181632
:100A20000CF448C06091D0047091D104072E000CE2
:100A3000880B990B0E94173A2B013C01A7019601E4
:100A4000C501B4010E9402399B01AC01C301B2018E
:100A50000E9403399B01AC016093DA047093DB04BC
:100A60008093DC049093DD0461E070E08091E20407
:100A70009091E3040E94D0238091E2049091E304DA
:100A80000E94FD2361E070E08091E2049091E30414
:100A90000E944A246093DE047093DF048093E00494
:100AA0009093E1040E94E6396093E40481E080932E
:100AB000430402C010924304FF90EF90DF90CF9068
:100AC000BF90AF909F908F907F906F905F904F906E
:100AD000089584E085BD86E784BD89B7806489BFB9
:100AE00008951F920F920FB60F9211242F933F93E8
:100AF0004F935F936F937F938F939F93AF93BF9326
:100B0000EF93FF9386E784BD8091E5048F5F809328
:100B1000E5049091E5048091E404981304C0809169
:100B20004304811109C080914304811112C060E027
:100B300082E10E94B8340DC061E082E10E94B834C5
:100B400088EE93E00E94CC3360E082E10E94B834EA
:100B5000EACFFF91EF91BF91AF919F918F917F91DC
:100B60006F915F914F913F912F910F900FBE0F901A
:100B70001F90189561E084E00E947C3461E08EE172
:100B80000E947C3461E088E00E947C3460E080E078
:100B90000E947C3460E081E00E947C3461E08EE061
:100BA0000E947C3461E08AE10E947C3461E08CE147
:100BB0000E947C3461E086E10E947C3461E088E13F
:100BC0000E947C3461E082E10E947C3460E08CE031
:100BD0000E947C3460E08AE00E947C3460E08BE01C
:100BE0000E947C3460E080E10E947C3460E08BE114
:100BF0000E947C3460E08DE10E947C3460E08FE1F3
:100C00000E947C3460E087E10E947C3460E081E1F6
:100C10000E947C3464E070E089EE94E00C94C9306A
:100C200060E08EE00E94B83460E08AE10E94B8344F
:100C300060E08CE10E94B83460E086E10E94B83444
:100C400060E088E10E94B834109243040895E09176
:100C500039048E2F90E0FC013197E930F10508F05E
:100C6000F0C0E65DFF4F0C94BE3B80E10E94E7348C
:100C700080935A04882309F4D5C087E10E94E734A1
:100C800080935A048111DDC085E0D6C080E10E94C6
:100C9000E73480935A04882309F4C4C087E10E9492
:100CA000E73480935A04882379F38BE10E94E73478
:100CB00080935A048111C5C086E0BEC08BE10E94BA
:100CC000E73480935A048823B9F3089581E10E94A0
:100CD000FD334091E40428E833E1BC01629FC00188
:100CE000639F900D729F900D112468E074E00E9444
:100CF000693B8CED869F9001879F300D1124429FA8
:100D0000C001439F900D11246AEA70E00E94693B84
:100D10007093500460934F04809151049091520459
:100D20009C0128533F4F2617370714F487E084C0EF
:100D30009C01285C310962177307C4F3245D3E4FA0
:100D4000261737072CF485E180934B0483E00AC013
:100D500084569109681779070CF073C085E1809378
:100D60004B0484E080933704089581E10E94FD33B1
:100D70004091E40428E833E1BC01629FC001639F15
:100D8000900D729F900D112468E074E00E94693B01
:100D90008CED869F9001879F300D1124429FC001EA
:100DA000439F900D11246AEA70E00E94693B7093A2
:100DB000500460934F0480915104909152049C011F
:100DC00028533F4F261737070CF4B0CF2059314036
:100DD000621773070CF4AACF245D3E4F261737071E
:100DE0000CF4B1CF84569109681779070CF4B6CF8B
:100DF00008958BE10E94E73480935A04882309F414
:100E00005BCF08958DE10E94E73480935A048111ED
:100E100018C088E011C080E10E94E73480935A0432
:100E200081110FC084E008C08FE10E94E7348093F5
:100E30005A04811106C089E08093590481E08093AF
:100E40003A0408958F929F92AF92BF92CF92DF9211
:100E5000EF92FF9280914404882309F4AEC18091FF
:100E60003A048111AAC180916D00882309F49EC0C3
:100E7000E09139048E2F90E0FC013197EA30F105C2
:100E800008F08EC0ED5CFF4F0C94BE3B61E08EE03D
:100E90000E94B83460E005C061E08EE00E94B83482
:100EA00061E08AE10E94B83460E08CE10E94B834CD
:100EB00060E086E10E94B83461E088E10E94B834C5
:100EC000109243046DC080914704813019F489E188
:100ED00090E004C0823031F48AE090E090937C048A
:100EE00080937B0460E08EE00E94B83460E08AE189
:100EF0000E94B83460E08CE10E94B83460E086E182
:100F00000E94B83460E088E10E94B83481E08093A8
:100F1000430446C060E08EE00E94B83461E00FC038
:100F200060E08EE00E94B83460E08AE10E94B8344C
:100F300061E009C061E08EE00E94B83460E08AE1BF
:100F40000E94B83460E08CE10E94B83460E00DC0CB
:100F500060E08EE00E94B83460E08AE10E94B8341C
:100F600060E08CE10E94B83461E086E10E94B83410
:100F700060E0A3CF109244048FE080934B04109262
:100F8000580410925704109256041092550410926F
:100F90004C0481E080934904109239040E941006A9
:100FA00065E070E080E090E00E9490338091390429
:100FB000843009F446C028F4823051F0833079F04F
:100FC000C7C0853009F48AC0873009F48AC0C0C020
:100FD0008AE00E94E734019709F0BAC005C08AE0B0
:100FE0000E94E7340197D1F4809139048F5F809398
:100FF00039048A3008F0ACC090E0880F991FFC01DA
:10100000E35AFB4F208131813093580420935704D9
:10101000FC01EF58FB4F8081918182C08091550483
:1010200090915604181619060CF492C0809157043A
:101030009091580406970CF08BC081E0809359047E
:1010400085C0C090D204D090D304E090D404F09036
:10105000D5048090D6049090D704A090D804B09086
:10106000D90420E030E040EA50E4C701B6010E9414
:101070000339A50194010E94C73A87FD1CC0A50150
:101080009401C701B6010E946F391816A4F085E0DB
:101090008093390480916704909168049093580478
:1010A0008093570480917B0490917C049093560424
:1010B0008093550413C080915504909156041816DE
:1010C000190664F08091570490915804069734F4FF
:1010D00082E08093590481E080933A040E94E904FD
:1010E00037C020E030E046EC52E46091D6047091C5
:1010F000D7048091D8049091D9040E946F391816B2
:10110000A4F088E08093390480916D0490916E047E
:1011100090935804809357048091810490918204A5
:10112000909356048093550413C080915504909178
:1011300056041816190664F08091570490915804CB
:10114000069734F483E08093590481E080933A0455
:1011500010926D000E945E33C0903B04D0903C041E
:10116000E0903D04F0903E0480906700909068000D
:10117000A0906900B0906A00C80CD91CEA1CFB1C46
:10118000C616D706E806F90610F40E9427068CE07A
:101190000E94E734892B31F485E180934B0481E090
:1011A000809337048BE00E94E734892B31F485E18A
:1011B00080934B0482E080933704FF90EF90DF90A0
:1011C000CF90BF90AF909F908F90089580914B04E7
:1011D000882371F0813021F1883031F480914C0402
:1011E0008B305CF18AE027C0893071F1843031F4B2
:1011F00080914C0484300CF183E01DC08330B1F049
:10120000853051F18B3041F18D3031F1873021F152
:101210008C3011F18230C1F08031F1F08231D1F4A3
:1012200080914C0483304CF082E005C080914C04E6
:1012300087301CF086E080934C0480914C0487FF3B
:101240006FC010924C04089580914C048530ACF32B
:1012500084E0F1CF843131F480914C0482306CF31E
:1012600081E0E9CF8731C1F38A3099F420913804C5
:1012700080915B0490915C04222331F08B3F9105B7
:10128000BCF08AEF90E010C0CC9794F08BE390E034
:101290000BC08630C9F480915B0490915C04853664
:1012A000910534F084E690E090935C0480935B04B5
:1012B00080915B0490915C04181619068CF11092D1
:1012C0005C0410925B0408958331D1F480915B0437
:1012D00090915C04C39734F082E390E090935C04B7
:1012E00080935B0480915B0490915C048F3C9F4FE2
:1012F000BCF48EEC9FEF90935C0480935B040895A4
:10130000863171F480914D0490914E04893B9B404D
:1013100038F088EB9BE090934E0480934D04089541
:1013200008951F93CF93DF93EC01172F0E94CC01F8
:10133000612FCE010196DF91CF911F910C94CC01CA
:101340001F93CF93DF93EC010E940202182FCE016E
:1013500001960E94020290E0982F8827810F911D2C
:10136000DF91CF911F9108950F931F93CF93DF9338
:1013700001E714E0C0E0D0E0CE010E94020290E05C
:10138000F801819391938F012196CA30D105A1F77D
:101390000DE514E0CE010E94020290E0F801819375
:1013A00091938F012196C431D105A1F705E814E08E
:1013B000CE010E940202F80181938F012196C9316A
:1013C000D105B1F78EE190E00E940202C82F81E0C2
:1013D000C11101C080E08093CF048FE190E00E94B2
:1013E000020290E0CC2319F0919581959109909398
:1013F000D1048093D0048CE190E00E94A0099093E6
:10140000540480935304DF91CF911F910F9108955D
:10141000AF92BF92CF92DF92EF92FF920F931F9302
:101420000E94B40988E190E00E940202811109C083
:1014300061E08DE00E947C3460E08DE00E94B83471
:1014400004C060E08DE00E947C3480918604843684
:1014500018F480935A0405C084E680935A0480935C
:10146000860460915A0470E080E090E01F921F9221
:101470001F922FEF2F93A12CB12C650114E6E12EC2
:10148000F12C00E010E020E030E0A9010E94AE382D
:1014900060935A0470E08EE10E941B3480918704AF
:1014A0000F900F900F900F90843618F480935A0489
:1014B00005C084E680935A048093870460915A049F
:1014C00070E080E090E01F921F921F922AEF2F930E
:1014D000A12CB12C650114E6E12EF12C00E010E006
:1014E00020E030E0A9010E94AE3860935A040F90CA
:1014F0000F900F900F9070E088E01F910F91FF9078
:10150000EF90DF90CF90BF90AF900C941B3480ECA5
:1015100094E00E94A52140E060E080EC94E00E940D
:10152000AC2164EA70E080EC94E00E94883561E9C7
:1015300071E080EC94E00E94883541E060E080EC4E
:1015400094E00E94AC2167EA70E080EC94E00C9497
:10155000883580914B04853109F053C080EC94E0CC
:101560000E94A52140E060E080EC94E00E94AC2164
:1015700062EB70E080EC94E00E94883541E060E02E
:1015800080EC94E00E94AC2180913704813031F4EA
:1015900065EC70E080EC94E00E948835809137041F
:1015A000823031F468ED70E080EC94E00E94883580
:1015B00080913704833031F46BEE70E080EC94E07E
:1015C0000E94883580913704843031F46FEF70E0E9
:1015D00080EC94E00E94883510924C0410924904EB
:1015E0001092440442E050E068EE73E089EE94E02B
:1015F0000E943A32809137048150823010F40C946A
:101600001006089580914B04853151F48EE080934B
:101610004B0481E080936D008093490480934404DF
:10162000089580914B04843009F0ACC080914C0443
:10163000811127C080EC94E00E94A52140E060E089
:1016400080EC94E00E94AC2164EA70E080EC94E0CD
:101650000E9488356EE171E080EC94E00E9488354C
:1016600041E060E080EC94E00E94AC2163E171E035
:1016700080EC94E00E94883581E080936C001092A9
:10168000490480914C04813039F580EC94E00E944B
:10169000A52140E060E080EC94E00E94AC216CE188
:1016A00071E080EC94E00E94883541E060E080ECDD
:1016B00094E00E94AC2164EA70E080EC94E00E9427
:1016C000883565E171E080EC94E00E94883582E025
:1016D00080936C001092490480914C04823039F55B
:1016E00080EC94E00E94A52140E060E080EC94E072
:1016F0000E94AC2164EA70E080EC94E00E9488359E
:1017000060E371E080EC94E00E94883541E060E0A5
:1017100080EC94E00E94AC2165E271E080EC94E002
:101720000E94883583E080936C0010924904809178
:101730004C04833039F580EC94E00E94A52140E010
:1017400060E080EC94E00E94AC216EE271E080ECFD
:1017500094E00E94883541E060E080EC94E00E94D3
:10176000AC2164EA70E080EC94E00E94883567E286
:1017700071E080EC94E00E94883584E080936C00F6
:10178000109249040895CF93C0914B04C13009F0E1
:1017900080C080914C04811126C080EC94E00E94AE
:1017A000A52140E060E080EC94E00E94AC2164EA76
:1017B00070E080EC94E00E9488356EE471E080EC8B
:1017C00094E00E94883541E060E080EC94E00E9463
:1017D000AC2167E371E080EC94E00E948835C0930F
:1017E0006C001092490480914C04813039F580ECF2
:1017F00094E00E94A52140E060E080EC94E00E942B
:10180000AC216CE471E080EC94E00E94883541E00A
:1018100060E080EC94E00E94AC2164EA70E080EC2F
:1018200094E00E94883569E371E080EC94E00E94C6
:10183000883582E080936C001092490480914C04BA
:10184000823039F580EC94E00E94A52140E060E010
:1018500080EC94E00E94AC2164EA70E080EC94E0BB
:101860000E94883561E671E080EC94E00E94883542
:1018700041E060E080EC94E00E94AC2161EA70E01D
:1018800080EC94E00E94883585E080936C00109293
:101890004904CF910895CF93C0914B04C13009F012
:1018A00044C080916C009FEF980F923088F59EE0C5
:1018B00090934B0410924C04C093490410926B0017
:1018C00080934704C09339040E945E3360933B04C5
:1018D00070933C0480933D0490933E040E94B409AD
:1018E00080915F0490916004909358048093570412
:1018F00080917304909174049093560480935504DE
:1019000010926C00C0934504C0934404C0936D00D2
:1019100080916C00853049F410924B0410924C0475
:1019200081E08093490410926B00CF9108958091DB
:101930004B04863109F041C080EC94E00E94A5215F
:1019400040E060E080EC94E00E94AC2166E671E04B
:1019500080EC94E00E9488351092490441E060E0F8
:1019600080EC94E00E94AC2168E771E080EC94E0A8
:101970000E94883560915304709154044AE050E00D
:1019800080EC94E00E943C3641E069E080EC94E019
:101990000E94AC216CE771E080EC94E00E948835F5
:1019A00060914D0470914E044AE050E080EC94E068
:1019B0000E94EE358AE080936C00089580914B047C
:1019C000863181F480916C008A3061F410924C046D
:1019D00087E180934B0410926C0081E0809349046E
:1019E00010926B00089580914B04873159F58091D6
:1019F0004C04811121C080EC94E00E94A52140E0BC
:101A000060E080EC94E00E94AC216EE770E080EC36
:101A100094E00E94883541E060E080EC94E00E9410
:101A2000AC2160E871E080EC94E00E94883581E0B0
:101A300080936C001092490480914C04813011F421
:101A40000C94E001089580914B04873161F58091F9
:101A50006C00813041F482E080934B0410925C046E
:101A600010925B0418C08230B1F480934B046091F3
:101A70004D0470914E048CE190E00E949109809198
:101A80004D0490914E04909354048093530410920B
:101A90004E0410924D0483E080934C0481E08093C7
:101AA000490410926B00089580914B048111B8C0D5
:101AB00080914C0481112AC080EC94E00E94A52101
:101AC00040E060E080EC94E00E94AC2164EA70E0C9
:101AD00080EC94E00E94883561E971E080EC94E04C
:101AE0000E94883541E060E080EC94E00E94AC21E7
:101AF00067EA70E080EC94E00E94883581E0809392
:101B00006C008091490481111092490480914C0429
:101B1000813051F580EC94E00E94A52140E060E026
:101B200080EC94E00E94AC216FE871E080EC94E0DE
:101B30000E94883541E060E080EC94E00E94AC2196
:101B400064EA70E080EC94E00E94883569EA70E015
:101B500080EC94E00E94883582E080936C00809154
:101B6000490481111092490480914C04823051F54E
:101B700080EC94E00E94A52140E060E080EC94E0DD
:101B80000E94AC2164EA70E080EC94E00E94883509
:101B90006AEA71E080EC94E00E94883541E060E000
:101BA00080EC94E00E94AC2160EA71E080EC94E06B
:101BB0000E94883583E080936C00809149048111F4
:101BC0001092490480914C04833051F580EC94E0EC
:101BD0000E94A52140E060E080EC94E00E94AC21EE
:101BE00068EA71E080EC94E00E94883541E060E0B2
:101BF00080EC94E00E94AC2164EA70E080EC94E018
:101C00000E94883562EA71E080EC94E00E94883599
:101C100084E080936C008091490481111092490402
:101C2000089580914B04811120C090916B009130F8
:101C3000E1F480916C00813039F480934B04109270
:101C40004C04809349040895823011F0833029F4C4
:101C500020916600222349F002C0843031F4809341
:101C60004B0410924C0490934904089580914B04C6
:101C7000823109F081C080914C04811127C080EC31
:101C800094E00E94A52140E060E080EC94E00E9496
:101C9000AC2164EA70E080EC94E00E94883561EC4D
:101CA00071E080EC94E00E94883541E060E080ECD7
:101CB00094E00E94AC2160EB71E080EC94E00E9423
:101CC000883581E080936C001092490480914C0427
:101CD000813039F580EC94E00E94A52140E060E07D
:101CE00080EC94E00E94AC216FEB71E080EC94E01A
:101CF0000E94883541E060E080EC94E00E94AC21D5
:101D000064EA70E080EC94E00E94883562EB71E058
:101D100080EC94E00E94883582E080936C00109201
:101D2000490480914C04823039F580EC94E00E94A3
:101D3000A52140E060E080EC94E00E94AC2164EAE0
:101D400070E080EC94E00E94883561E671E080EC00
:101D500094E00E94883541E060E080EC94E00E94CD
:101D6000AC2161EA70E080EC94E00E94883583E069
:101D700080936C0010924904089580914B04823145
:101D800069F580916C009FEF980F923080F49AE093
:101D900090934B0410924C0491E09093490410925C
:101DA0006B008130C1F48093380410926C008091F4
:101DB0006C00833099F488E080934B048091480450
:101DC000815080934C0481E08093490410926B0011
:101DD00010926C00089510923804E7CF0895809116
:101DE0004B048F3061F491E090934B048091470451
:101DF000815080934C0490934904109245040895B7
:101E000080914B04803191F580EC94E00E94A521F3
:101E100040E060E080EC94E00E94AC216EEC71E068
:101E200080EC94E00E94883541E060E080EC94E032
:101E30000E94AC211092490480914C04811109C088
:101E400060E871E080EC94E00E94883581E0809346
:101E50006C0080914C04813049F461E970E080ECC1
:101E600094E00E94883582E080936C000895809110
:101E70004B04803139F580916C00813021F48EE083
:101E800080934B0413C0823089F481E080934B042B
:101E90001092440410924504109256041092550476
:101EA00010925804109257040E94100610926C0071
:101EB00080914704815080934C0481E080934904D1
:101EC00010926B00089580914B048E30B1F48EEA2D
:101ED00094E00E945420811106C08CE994E00E9495
:101EE0005420882351F080E180934B0410924C04DD
:101EF00081E0809349048093440408950F931F93D5
:101F000080914404882309F487C080913A048111A8
:101F100083C00E945E3300913F04109140042091E1
:101F20004104309142040C591F4F2F4F3F4F061769
:101F300017072807390708F06FC00E945E336093C7
:101F40003F0470934004809341049093420481E0E5
:101F5000809349048091570490915804019790937D
:101F600058048093570497FF0FC0809155049091B7
:101F70005604019790935604809355048BE390E0A8
:101F8000909358048093570480915504909156047F
:101F900097FF42C0809139048F5F809339040E947B
:101FA0005E3360933B0470933C0480933D049093B4
:101FB0003E04209139042A3078F5822F90E0880F72
:101FC000991FFC01E35AFB4F408151815093580403
:101FD00040935704FC01EF58FB4F8081918190930F
:101FE0005604809355042530A1F480914704823033
:101FF00081F48091710490917204909356048093BF
:10200000550480915D0490915E04909358048093F0
:10201000570481E080936D001F910F910895809186
:102020004B04853059F580914C04811121C080EC1E
:1020300094E00E94A52140E060E080EC94E00E94E2
:10204000AC216EE770E080EC94E00E94883541E0BE
:1020500060E080EC94E00E94AC2160E871E080ECEC
:1020600094E00E94883581E080936C0010924904CE
:1020700080914C04813011F40C94E001089580911A
:102080004B04853009F04BC080916C00813041F4E5
:1020900088E080934B0410925C0410925B0431C082
:1020A000823079F588E080934B0460915B04609303
:1020B0005A049091380480914804992359F090E093
:1020C0000E94CC01E0914804F0E0EE0FFF1FEF58B2
:1020D000FB4F0BC090E00A960E94CC01E0914804AF
:1020E000F0E0EE0FFF1FE35AFB4F80915B049091ED
:1020F0005C049183808310925C0410925B041092C4
:102100005A0480914804882311F0815001C085E071
:1021100080934C0481E08093490410926B000895F1
:1021200080914B048A3009F06CC080EC94E00E94EE
:10213000A52140E060E080EC94E00E94AC2166E6DE
:1021400071E080EC94E00E9488351092490441E0EF
:1021500060E080EC94E00E94AC2160EE71E080ECE5
:1021600094E00E94883580913804E0914804F0E0C2
:10217000882319F0ED5EFB4F02C0E75FFB4F4AE09A
:1021800050E0608180EC94E00E94E73541E067E038
:1021900080EC94E00E94AC2168E771E080EC94E070
:1021A0000E94883580913804E0914804F0E0EE0FF9
:1021B000FF1F882319F0EF58FB4F02C0E35AFB4F73
:1021C000608171814AE050E080EC94E00E943C36EE
:1021D00041E06EE080EC94E00E94AC216CE771E09D
:1021E00080EC94E00E94883560915B0470915C04FF
:1021F0004AE050E080EC94E00E943C3681E080931D
:102200006C00089580914B048A3091F480916C00A9
:10221000813071F4809148048A3018F485E080930D
:102220004B0410924C0481E08093490410926B009F
:102230000895CF9380914B04883009F0DBC18091E1
:102240004C04811129C080EC94E00E94A52140E05B
:1022500060E080EC94E00E94AC2164EA70E080ECE5
:1022600094E00E94883562EF71E080EC94E00E9477
:10227000883541E060E080EC94E00E94AC2164EE9F
:1022800071E080EC94E00E94883581E080936C00DE
:10229000109249048093480480914C04813049F5A0
:1022A00080EC94E00E94A52140E060E080EC94E0A6
:1022B0000E94AC2160EF71E080EC94E00E948835D0
:1022C00041E060E080EC94E00E94AC2164EA70E0C0
:1022D00080EC94E00E94883566EE71E080EC94E03A
:1022E0000E94883582E080936C00109249048093AC
:1022F000480480914C04823049F580EC94E00E94BF
:10230000A52140E060E080EC94E00E94AC2164EA0A
:1023100070E080EC94E00E94883568E072E080EC28
:1023200094E00E94883541E060E080EC94E00E94F7
:10233000AC216CEF71E080EC94E00E94883583E082
:1023400080936C00109249048093480480914C045F
:10235000833049F580EC94E00E94A52140E060E0E4
:1023600080EC94E00E94AC2166E072E080EC94E0A6
:102370000E94883541E060E080EC94E00E94AC214E
:1023800064EA70E080EC94E00E9488356EEF71E0C2
:1023900080EC94E00E94883584E080936C00109279
:1023A00049048093480480914C04843049F580ECC2
:1023B00094E00E94A52140E060E080EC94E00E945F
:1023C000AC2164EA70E080EC94E00E94883566E21B
:1023D00072E080EC94E00E94883541E060E080EC9F
:1023E00094E00E94AC2162E172E080EC94E00E94F3
:1023F000883585E080936C001092490480934804EE
:10240000C0914C04C53041F580EC94E00E94A521B8
:1024100040E060E080EC94E00E94AC2164E272E075
:1024200080EC94E00E94883541E060E080EC94E02C
:102430000E94AC2164EA70E080EC94E00E94883550
:1024400064E172E080EC94E00E948835C0936C00F7
:102450001092490410924804C0914C04C63041F5D2
:1024600080EC94E00E94A52140E060E080EC94E0E4
:102470000E94AC2164EA70E080EC94E00E94883510
:1024800064E472E080EC94E00E94883541E060E012
:1024900080EC94E00E94AC2166E372E080EC94E072
:1024A0000E948835C0936C0010924904C093480480
:1024B000C0914C04C73041F580EC94E00E94A52106
:1024C00040E060E080EC94E00E94AC2162E472E0C5
:1024D00080EC94E00E94883541E060E080EC94E07C
:1024E0000E94AC2164EA70E080EC94E00E948835A0
:1024F00068E372E080EC94E00E948835C0936C0041
:1025000010924904C0934804C0914C04C83041F56E
:1025100080EC94E00E94A52140E060E080EC94E033
:102520000E94AC2164EA70E080EC94E00E9488355F
:102530006BE572E080EC94E00E94883541E060E059
:1025400080EC94E00E94AC216EE472E080EC94E0B8
:102550000E948835C0936C0010924904C0934804CF
:10256000C0914C04C93041F580EC94E00E94A52153
:1025700040E060E080EC94E00E94AC2169E572E00C
:1025800080EC94E00E94883541E060E080EC94E0CB
:102590000E94AC2164EA70E080EC94E00E948835EF
:1025A00060E572E080EC94E00E948835C0936C0096
:1025B00010924904C0934804C0914C04CA30D1F42D
:1025C00080EC94E00E94A52140E060E080EC94E083
:1025D0000E94AC2164EA70E080EC94E00E948835AF
:1025E00061E671E080EC94E00E948835C0936C0055
:1025F00010924904CF91089580914B04883009F5D9
:1026000080916C008150893060F482E180934B04AA
:1026100081E08093490410926B0010924C04109258
:102620006C0080916C008A3061F410926C0082E042
:1026300080934B0410924C0481E0809349041092E3
:102640006B00089580914B04823009F0D5C08091D1
:102650004C04811129C080EC94E00E94A52140E047
:1026600060E080EC94E00E94AC2164EA70E080ECD1
:1026700094E00E9488356FE672E080EC94E00E945E
:10268000883541E060E080EC94E00E94AC2164E693
:1026900072E080EC94E00E94883581E080936C00C9
:1026A000109249048093480480914C04813049F58C
:1026B00080EC94E00E94A52140E060E080EC94E092
:1026C0000E94AC216DE672E080EC94E00E948835B7
:1026D00041E060E080EC94E00E94AC2164EA70E0AC
:1026E00080EC94E00E94883566E672E080EC94E02D
:1026F0000E94883582E080936C0010924904809398
:10270000480480914C04823049F580EC94E00E94AA
:10271000A52140E060E080EC94E00E94AC2164EAF6
:1027200070E080EC94E00E94883569E872E080EC0B
:1027300094E00E94883541E060E080EC94E00E94E3
:10274000AC2168E772E080EC94E00E94883583E079
:1027500080936C00109249048093480480914C044B
:10276000833049F580EC94E00E94A52140E060E0D0
:1027700080EC94E00E94AC2167E872E080EC94E089
:102780000E94883541E060E080EC94E00E94AC213A
:1027900064EA70E080EC94E00E9488356AE772E0B9
:1027A00080EC94E00E94883584E080936C00109265
:1027B00049048093480480914C048430E9F480EC0F
:1027C00094E00E94A52140E060E080EC94E00E944B
:1027D000AC2164EA70E080EC94E00E94883561E608
:1027E00071E080EC94E00E94883585E080936C0075
:1027F0001092490480934804089580914B048230DC
:1028000009F04EC080916C00813059F498E09093AB
:102810004B0410924C048093490410926B00109268
:102820006C0080916C00823061F489E080934B04ED
:1028300010924C0481E08093490410926B00109236
:102840006C0080916C00833061F483E180934B04D1
:1028500010924C0481E08093490410926B00109216
:102860006C0080916C00843061F486E180934B04AD
:1028700010924C0481E08093490410926B001092F6
:102880006C0080916C00853059F410924B0481E00B
:1028900080934C048093490410926B0010926C005A
:1028A000089580914B048D3091F580EC94E00E9466
:1028B000A52140E060E080EC94E00E94AC2165E955
:1028C00072E080EC94E00E94883541E060E080ECAA
:1028D00094E00E94AC2180914C04811109C060E811
:1028E00071E080EC94E00E94883581E080936C0078
:1028F00080914C04813049F461E970E080EC94E00F
:102900000E94883582E080936C00109249040895FB
:10291000CF92DF92EF92FF920F931F93CF93DF93AB
:1029200033E1C32E34E0D32E41E7E42E44E0F42E0D
:10293000C0E0D0E0F60111916F01612FCE010E943D
:10294000CC01612F70E0F701619371937F0165E025
:1029500070E080E090E00E9490332196CA30D1056B
:1029600049F799E0E92E94E0F92E2DE5C22E24E0F6
:10297000D22EF70111917F01612FCE010E94CC016F
:10298000612F70E0F601619371936F0165E070E073
:1029900080E090E00E9490332196C431D10549F740
:1029A0008DE1C82E84E0D82E05E814E0F601F19000
:1029B0006F016F2DCE010E94CC01F801F1928F01C1
:1029C00065E070E080E090E00E9490332196C9318C
:1029D000D10561F760E08EE190E00E94CC0165E0F6
:1029E00070E080E090E00E94903360E08FE190E042
:1029F000DF91CF911F910F91FF90EF90DF90CF90DB
:102A00000C94CC0180914B048B3059F580914C048F
:102A1000811121C080EC94E00E94A52140E060E09B
:102A200080EC94E00E94AC216EE770E080EC94E0D2
:102A30000E94883541E060E080EC94E00E94AC2187
:102A400060E871E080EC94E00E94883581E080933A
:102A50006C001092490480914C04813011F40C9464
:102A6000E001089580914B048B3009F046C08091BD
:102A70006C00813041F489E080934B0410925C0437
:102A800010925B0430C0823071F589E080934B0472
:102A900060915B0460935A048091480490E00A9628
:102AA0000E94CC018091480460915B0470915C04A9
:102AB000E82FF0E0EB57FB4F6083813019F48EE193
:102AC0000E941B3480914804823039F460915B0489
:102AD00070915C0488E00E941B3410925C04109298
:102AE0005B0410925A0480914804815080934C04F6
:102AF00081E08093490410926B00089580914B040B
:102B0000863099F480916C00823379F48091480486
:102B10008150823018F48BE080934B0410924C0467
:102B200081E08093490410926B00089580914B04DA
:102B3000893009F0E1C080914C04811129C080ECFA
:102B400094E00E94A52140E060E080EC94E00E94C7
:102B5000AC2164EA70E080EC94E00E94883566EB7A
:102B600072E080EC94E00E94883541E060E080EC07
:102B700094E00E94AC2165EA72E080EC94E00E944F
:102B8000883581E080936C0010924904809348045A
:102B900080914C04813049F580EC94E00E94A5219D
:102BA00040E060E080EC94E00E94AC2164EB72E0D5
:102BB00080EC94E00E94883541E060E080EC94E095
:102BC0000E94AC2164EA70E080EC94E00E948835B9
:102BD00067EA72E080EC94E00E94883582E080939E
:102BE0006C00109249048093480480914C04823018
:102BF00049F580EC94E00E94A52140E060E080EC83
:102C000094E00E94AC2164EA70E080EC94E00E94C1
:102C100088356AED72E080EC94E00E94883541E0EE
:102C200060E080EC94E00E94AC2164EC72E080EC07
:102C300094E00E94883583E080936C0010924904F0
:102C40008093480480914C04833049F580EC94E0F3
:102C50000E94A52140E060E080EC94E00E94AC215D
:102C600068ED72E080EC94E00E94883541E060E01D
:102C700080EC94E00E94AC2164EA70E080EC94E087
:102C80000E94883566EC72E080EC94E00E94883502
:102C900084E080936C0010924904809348048091F2
:102CA0004C04843049F580EC94E00E94A52140E07A
:102CB00060E080EC94E00E94AC2164EA70E080EC7B
:102CC00094E00E94883561E671E080EC94E00E9417
:102CD000883541E060E080EC94E00E94AC2161EA3C
:102CE00070E080EC94E00E94883585E080936C0071
:102CF0001092490480934804089580914B048930D0
:102D000009F05DC080916C00813089F496E0909369
:102D10004B04E0914804F0E0EB57FB4F208130E09A
:102D200030935C0420935B0410924C0413C08230F7
:102D3000A1F486E080934B04E0914804F0E0EB5767
:102D4000FB4F808190E090935C0480935B04109231
:102D50004C0481E08093490424C0833059F48DE011
:102D600080934B0410924C0481E0809349041092AC
:102D70006B0017C08430A9F48CE080934B0488E189
:102D800090E00E940202813019F48093450402C051
:102D90001092450410924C0481E0809349041092F3
:102DA0006C0080916C00853051F482E080934B047C
:102DB00081E080934C048093490410926B00089545
:102DC00080914B04833109F055C080EC94E00E945F
:102DD000A52140E060E080EC94E00E94AC2166E632
:102DE00071E080EC94E00E9488351092490441E043
:102DF00060E080EC94E00E94AC2160EE71E080EC39
:102E000094E00E9488354AE050E060E070E080EC99
:102E100094E00E943C3641E067E080EC94E00E9440
:102E2000AC2168E771E080EC94E00E948835609105
:102E3000D0047091D1044AE050E080EC94E00E940C
:102E40003C3641E06EE080EC94E00E94AC216CE7FF
:102E500071E080EC94E00E94883560915B04709191
:102E60005C044AE050E080EC94E00E943C3681E053
:102E700080936C00089580914B04833179F48091A4
:102E80006C00813059F494E190934B0410924C04FF
:102E90008093490410926B0010926C000895809109
:102EA0004B04843159F580914C04811121C080EC90
:102EB00094E00E94A52140E060E080EC94E00E9454
:102EC000AC216EE770E080EC94E00E94883541E030
:102ED00060E080EC94E00E94AC2160E871E080EC5E
:102EE00094E00E94883581E080936C001092490440
:102EF00080914C04813011F40C94E001089580918C
:102F00004B04843109F045C080916C00813021F47C
:102F100082E080934B042FC0823089F580934B046C
:102F200080915B0490915C0497FF07C0819580932A
:102F30005A0481E08093CF0404C01092CF048093A0
:102F40005A046091CF048EE190E00E94CC0165E0CC
:102F500070E080E090E00E94903360915A048FE12D
:102F600090E00E94CC0180915B0490915C0490936E
:102F7000D1048093D00410925C0410925B0482E030
:102F800080934C0481E08093490410926B0010926E
:102F90006C00089580914B04833009F039C1809111
:102FA0004C04811129C080EC94E00E94A52140E0EE
:102FB00060E080EC94E00E94AC2164EA70E080EC78
:102FC00094E00E94883562EF72E080EC94E00E9409
:102FD000883541E060E080EC94E00E94AC2167EE2F
:102FE00072E080EC94E00E94883581E080936C0070
:102FF000109249048093460480914C04813049F535
:1030000080EC94E00E94A52140E060E080EC94E038
:103010000E94AC2160EF72E080EC94E00E94883561
:1030200041E060E080EC94E00E94AC2164EA70E052
:1030300080EC94E00E94883569EE72E080EC94E0C8
:103040000E94883582E080936C001092490480933E
:10305000460480914C04823049F580EC94E00E9453
:10306000A52140E060E080EC94E00E94AC2164EA9D
:1030700070E080EC94E00E94883564E073E080ECBE
:1030800094E00E94883541E060E080EC94E00E948A
:10309000AC2169EF72E080EC94E00E94883583E017
:1030A00080936C00109249048093460480914C04F4
:1030B000833049F580EC94E00E94A52140E060E077
:1030C00080EC94E00E94AC2162E073E080EC94E03C
:1030D0000E94883541E060E080EC94E00E94AC21E1
:1030E00064EA70E080EC94E00E9488356BEF72E057
:1030F00080EC94E00E94883584E080936C0010920C
:1031000049048093460480914C04843049F580EC56
:1031100094E00E94A52140E060E080EC94E00E94F1
:10312000AC2164EA70E080EC94E00E94883566E1AE
:1031300073E080EC94E00E94883541E060E080EC30
:1031400094E00E94AC216BE073E080EC94E00E947C
:10315000883585E080936C00109249048093460482
:1031600080914C04853049F580EC94E00E94A521C3
:1031700040E060E080EC94E00E94AC2164E173E008
:1031800080EC94E00E94883541E060E080EC94E0BF
:103190000E94AC2164EA70E080EC94E00E948835E3
:1031A0006DE073E080EC94E00E94883586E08093C7
:1031B0006C00109249048093460480914C04863040
:1031C00039F580EC94E00E94A52140E060E080ECBD
:1031D00094E00E94AC2164EA70E080EC94E00E94EC
:1031E000883561E671E080EC94E00E94883541E02A
:1031F00060E080EC94E00E94AC2161EA70E080EC39
:1032000094E00E94883587E080936C001092490416
:10321000089580914B048330F9F480916C008150C3
:10322000863060F487E080934B0410924C0481E078
:103230008093490480936C001092450480916C0047
:10324000873051F410924B0482E080934C0481E06B
:103250008093490410926B0008950F93CF93DF93EE
:1032600027E045E066E086EE94E00E94B22286E028
:1032700090E00E94FF38EC010E944223D093E304C7
:10328000C093E20404E023E049E169E080EC94E0CB
:103290000E94762242E063E18EEA94E00E942C20B4
:1032A00042E065E18CE994E00E942C2042E064E178
:1032B0008AE894E0DF91CF910F910C942C20EF924B
:1032C000FF921F93CF93DF9390EE980F903408F006
:1032D00063C020E030E0082E000C990B809753E08B
:1032E000880F991F5A95E1F7283079F0A22FB0E0A6
:1032F000FC01EA0FFB1FE658FF4FE491A65DBB4FB0
:10330000EC93E1113F5F2F5FEFCF162F3093330423
:103310001092320440933404C42FD0E02196E62E5C
:10332000F12C8091340490E0C817D9077CF11093F8
:10333000350460913504262F30E080913304869562
:10334000A701480F511D24173507D4F440913404C8
:1033500080EC94E00E94AC21E091320481E08E0F79
:1033600080933204F0E0E65DFB4F608180EC94E0F6
:103370000E94AC22809135048F5F80933504D9CFB1
:10338000809134048F5F80933404CBCF80913304D9
:10339000869590E0019702C080E090E0DF91CF91A8
:1033A0001F91FF90EF9008950F931F93CF93DF939A
:1033B000C62FD42F8C01F80181918F01882339F019
:1033C0004D2F6C2F0E945F190196C80FF4CFDF912B
:1033D000CF911F910F91089580EC94E00E94A52158
:1033E00040E062E087EF92E00E94D4196AEF70E05B
:1033F00080E090E00E94903340E065E085EE92E04E
:103400000E94D4196AEF70E080E090E00E9490334F
:1034100040E068E08BE193E00E94D4196AEF70E02D
:1034200080E090E00E94903340E06BE082E193E026
:103430000E94D4196AEF70E080E090E00E9490331F
:1034400040E06EE085EE92E00E94D4196CED75E0EC
:1034500080E090E00C9490330E94BA0520E042E0B6
:1034600060E180EC94E00E94E2210E94080A0E9440
:1034700004020E94EC190E94870A0E94990242E00D
:1034800050E068EE73E089EE94E00E943A320E94C8
:10349000690543E050E069EC71E082E00E94773218
:1034A00078940895CF9380914B04843089F51092DD
:1034B0004B0483E080934C04C1E0C0934904109214
:1034C0006B008EEA94E00E945420882309F18CE975
:1034D00094E00E9454208823D9F044E050E068EE44
:1034E00073E089EE94E00E943A32C093660080EC6B
:1034F00094E00E94A52140E061E08DE193E00E940C
:10350000D41968EE73E080E090E0CF910C94903392
:10351000CF91089580914B048C3009F050C080EC1D
:1035200094E00E94A52140E060E080EC94E00E94DD
:10353000AC2164E273E080EC94E00E948835109244
:10354000490480914C04811111C041E060E080EC9D
:1035500094E00E94AC216FE273E080EC94E00E9462
:10356000883581E080936C001092490480914C046E
:10357000813089F441E060E080EC94E00E94AC216D
:103580006AE373E080EC94E00E94883582E08093E7
:103590006C001092490480914504882331F040E08A
:1035A0006BE085E493E00E94D41980914504811179
:1035B00006C040E06BE089E493E00C94D4190895D0
:1035C000CF9380914B048C3009F064C0C0916C00A3
:1035D000C13031F51092450440E06BE080EC94E09E
:1035E0000E94AC2140E06BE089E493E00E94D41992
:1035F00060E08EE090E00E94CC011092890461E0CE
:103600008DE00E947C3460E08DE00E94B8348091AF
:103610006C00815080934C04C093490410926B005D
:1036200080916C008230E9F440E06BE085E493E047
:103630000E94D419C1E0C093450461E08EE090E09F
:103640000E94CC01C093890460E08DE00E947C342C
:1036500080916C00815080934C04C0934904109277
:103660006B008EEA94E00E945420882399F08CE944
:1036700094E00E945420882369F089E080934B04F1
:103680001092450481E080936C0080914804815041
:1036900080934C04CF91089580914B048F30D1F4E6
:1036A00080EC94E00E94A52140E063E08DE493E08B
:1036B0000E94D41910924C041092490410924404B0
:1036C0001092560410925504109258041092570408
:1036D0000C941006089580914B048D3009F09AC027
:1036E00080916C008130C9F489E080934B0480ECB8
:1036F00094E00E94A52140E060E080EC94E00E940C
:10370000AC2163E573E080EC94E00E94883568EEBC
:1037100073E080E090E00E94903380916C008230F2
:1037200009F06DC089E080934B048EEA94E00E941A
:103730005420882309F441C08CE994E00E9454206D
:103740008823D9F180EC94E00E94A52140E060E05C
:1037500080EC94E00E94AC2161E673E080EC94E0A0
:103760000E94883541E060E080EC94E00E94AC214A
:1037700063E773E080EC94E00E94883560ED77E0C9
:1037800080E090E00E9490330E94881480EC94E0E6
:103790000E94A52140E063E086E893E00E94D419EE
:1037A00042E050E068EE73E089EE94E00E943A3225
:1037B00068EE73E080E090E020C080EC94E00E942E
:1037C000A52140E060E080EC94E00E94AC216BE831
:1037D00073E080EC94E00E94883541E060E080EC8A
:1037E00094E00E94AC2160EA73E080EC94E00E94D7
:1037F000883560ED77E080E090E00E949033809122
:103800004804815080934C0481E0809349041092D5
:103810006B000895089580914B04873009F08CC0A7
:1038200080EC94E00E94A52140E060E080EC94E010
:103830000E94AC2163EB73E080EC94E00E94883539
:1038400080914604813031F469EB73E080EC94E0C0
:103850000E94883580914604823031F46CEB73E02D
:1038600080EC94E00E94883580914604833031F4E6
:103870006FEB73E080EC94E00E9488358091460401
:10388000843031F462EC73E080EC94E00E9488357F
:1038900080914604853031F466E173E080EC94E079
:1038A0000E94883580914604863031F46DE073E0E3
:1038B00080EC94E00E9488351092490480914C0479
:1038C000811111C041E060E080EC94E00E94AC21E5
:1038D0006FE273E080EC94E00E94883581E0809391
:1038E0006C001092490480914C04813089F441E0CD
:1038F00060E080EC94E00E94AC216AE373E080EC2D
:1039000094E00E94883582E080936C001092490414
:1039100080914504882331F040E06BE085E493E03A
:103920000E94D41980914504811106C040E06BE0EB
:1039300089E493E00C94D419089580914B04873066
:1039400009F0C8C080916C00813009F04EC010921F
:10395000450440E06BE080EC94E00E94AC2140E044
:103960006BE089E493E00E94D41980914604813091
:1039700021F460E08EE00E94B834809146048230E9
:1039800021F460E08AE10E94B834809146048330DB
:1039900021F460E08CE10E94B834809146048430C8
:1039A00021F460E086E10E94B834809146048530BD
:1039B00041F460E088E10E94B83460E08EE00E944B
:1039C000B83480914604863031F460E082E10E9490
:1039D000B8341092430480916C00815080934C0461
:1039E00081E08093490410926B0080916C008230DA
:1039F00009F055C081E08093450440E06BE085E428
:103A000093E00E94D41980914604813031F4809370
:103A1000450461E08EE00E94B83480914604823013
:103A200039F481E08093450461E08AE10E94B83472
:103A300080914604833039F481E08093450461E04D
:103A40008CE10E94B83480914604843039F481E0DE
:103A50008093450461E086E10E94B8348091460479
:103A6000853041F461E08EE00E94B83461E088E185
:103A70000E94B83480914604863039F461E082E1D6
:103A80000E94B83481E08093430480916C0081509F
:103A900080934C0481E08093490410926B008EEA7D
:103AA00094E00E945420811106C08CE994E00E94A9
:103AB0005420882379F00E94100683E080934B0401
:103AC0001092450481E080936C00809146048150FF
:103AD00080934C04089580914C0480934A048EEAAC
:103AE00094E00E94C5208823D1F144E150E068EEC3
:103AF00073E089EE94E00E94563280914C048F5F0F
:103B000080934C0480914B048A3051F42091380406
:103B100080915B0490915C042223A1F0019707C07F
:103B2000863051F480915B0490915C0444979093AB
:103B30005C0480935B0413C0833131F480915B0497
:103B400090915C040597F3CF863149F480914D0440
:103B500090914E04449790934E0480934D048CE9C9
:103B600094E00E94C5208823D1F144E150E068EE42
:103B700073E089EE94E00E94563280914C048150AB
:103B800080934C0480914B048A3051F42091380486
:103B900080915B0490915C042223A1F0019607C000
:103BA000863051F480915B0490915C04449690932C
:103BB0005C0480935B0413C0833131F480915B0417
:103BC00090915C040596F3CF863149F480914D04C1
:103BD00090914E04449690934E0480934D048AE84D
:103BE00094E00E94C5208823C1F144E150E068EED2
:103BF00073E089EE94E00E9456320E944B0C0E94C2
:103C0000FC120E94FD130E947D160E9409190E9459
:103C1000521A0E94110E0E943F100E9432150E94FB
:103C200002110E947E150E949D1C0E94E01A0E94B3
:103C30006B1B0E94630F0E94EF0E0E94370F0E94C1
:103C400049020E94BD0E0E943B170E947F170E94EE
:103C5000020B0E94DE0C0E94230D0C94E6085F927A
:103C60006F927F928F929F92AF92BF92CF92DF928C
:103C7000EF92FF920F931F93CF93DF93CDB7DEB7F1
:103C8000622ECDB6DEB6262F643008F023E0E22E99
:103C9000F12C570161E0A61AB108EDB7FEB7EE1995
:103CA000FF090FB6F894FEBF0FBEEDBF319621504D
:103CB0003AE0222349F0DF01A20FB11D632F0E94D9
:103CC000493B9C932150F5CF6AE00E94493B908389
:103CD0008F01742E812C912C512C8E149F04DCF4B6
:103CE000F80181918F01811109C0511007C08A1418
:103CF0009B0424F4872D0E942E0207C0462D672DB9
:103D0000805D0E945F1955245394FFEF8F1A9F0A1C
:103D100063E0760EE2CF0FB6F894DEBE0FBECDBEE6
:103D2000DF91CF911F910F91FF90EF90DF90CF9097
:103D3000BF90AF909F908F907F906F905F9008950D
:103D400080914B04813149F50E94100680EC94E08B
:103D50000E94A52140E060E085EC93E00E94D41928
:103D600020E041E161E0809159040E942F1E1092F1
:103D70004C0410924904109244041092560410927C
:103D80005504109258041092570448EB5BE068EE1B
:103D900073E089EE94E00C945632089580914B04C0
:103DA0008E3009F0A8C01092490480EC94E00E9483
:103DB000A52140E060E080EC94E00E94AC2180917D
:103DC0003904813031F462EF71E080EC94E00E94BC
:103DD000883580913904823031F466EE71E080ECF0
:103DE00094E00E94883580913904833031F468E092
:103DF00072E080EC94E00E94883580913904843030
:103E000031F46CEC73E080EC94E00E948835809192
:103E10003904853031F466ED73E080EC94E00E9463
:103E2000883580913904863031F464E472E080ECA6
:103E300094E00E94883580913904873031F468E33A
:103E400072E080EC94E00E948835809139048830DB
:103E500031F460EE73E080EC94E00E94883580914C
:103E60003904893031F46AEE73E080EC94E00E940A
:103E7000883541E060E080EC94E00E94AC2164EF82
:103E800073E080EC94E00E94883560915504709155
:103E900056044AE050E080EC94E00E943C3662EE2A
:103EA00071E080EC94E00E94883560915704709135
:103EB00058044AE050E080EC94E00E943C36609167
:103EC000D6047091D7048091D8049091D9040E94AF
:103ED000E639862F20E04AE063E00E942F1E40E092
:103EE00063E180EC94E00E94AC2164E372E080EC3A
:103EF00094E00C948835089580914B04863009F045
:103F000054C0809148048150823008F04EC080EC4B
:103F100094E00E94A52140E060E080EC94E00E94E3
:103F2000AC2180914804813031F46AEB72E080EC7E
:103F300094E00E94883580914804823031F469EF22
:103F400073E080EC94E00E94883541E060E080EC12
:103F500094E00E94AC2162E074E080EC94E00E9466
:103F60008835E0914804F0E0EB57FB4F4AE050E021
:103F7000608180EC94E00E94E73520E04AE063E055
:103F800080915B040E942F1E40E063E180EC94E08E
:103F90000E94AC2167E074E080EC94E00E948835D8
:103FA00082E380936C0010924904089590914A0432
:103FB00080914C04981304C080914904882399F19E
:103FC00081E080936B000E94540D0E94C30B0E94FD
:103FD00019110E9422130E9496150E94CA170E946E
:103FE000110B0E940F100E9402150E9490100E9457
:103FF0007C1F0E940B1C0E948A1A0E9451140E946E
:10400000CE1E0E944C1B0E94000F0E94A01E0E9408
:10401000360E0E94E0160E944F170E94A90A0E94C5
:10402000970C0C94F30C08950E9422070E947E0FB7
:104030000E94D61F0E946B1D0E94650289EE94E0CB
:104040000C94CD3021E0FC012183623021F461E049
:1040500080810C94B83408951F93CF93DF93EC01C3
:10406000862F142F688360E00E947C34111102C0F7
:10407000198204C0612FCE010E9422201A828981F8
:10408000811102C081E08A8318861F821A861986F0
:104090001C861B861E861D86188A1F8681E0898BDA
:1040A000DF91CF911F910895CF93DF93EC018A8127
:1040B00080FF02C0826001C08D7F8A8388810E9458
:1040C000E734498150E02A818417950711F42E7F47
:1040D00001C021602A838A81282F30E0A9015595EB
:1040E00047952427352720FF27C080FF11C08F85E3
:1040F00098890196988B8F87EF81F885309711F01A
:10410000CE0109950E945E337C836B83198A10C0AF
:10411000E985FA85309711F0CE010995EB85FC858C
:10412000309711F0CE0109958FEF9FEF9C838B8321
:104130008A8184608A8324C08B7F8A838B819C815F
:104140000196F1F0898981111BC00E945E332B8199
:104150003C81AB01BC01421B530B610971098D818C
:104160009E81A0E0B0E084179507A607B70740F44A
:10417000ED85FE85309721F0CE01099581E0898B90
:104180008A818170DF91CF910895CF93DF93EC0105
:104190000E945420882321F08A8182FB882780F99D
:1041A000DF91CF910895EF92FF920F931F93CF93DA
:1041B000DF93EC01E62E0B854111016010E061E018
:1041C0008E810E94B83480E1E89E7001112498012C
:1041D0002260FE2CF22A2F2D40E06C818D810E94FE
:1041E000103560E08E810E94B8348AE090E00E9431
:1041F000CC3361E08E810E94B8340D7F2E2D202BB0
:1042000040E06C818D810E94103560E08E810E94BB
:10421000B8348AE090E00E94CC3361E08E810E9445
:10422000B8342F2D40E06C818D810E94103560E004
:104230008E810E94B83484E690E0DF91CF911F9187
:104240000F91FF90EF900C94CC33EF92FF920F936D
:104250001F93CF93DF93EC01F62EEE24E3944111EC
:1042600001C0E12C61E08E810E94B8340E2D10E077
:104270000260202F40E06C818D810E9410352F2D2F
:1042800040E06C818D810E94103560E08E810E943B
:10429000B83461E08E810E94B8342E2D40E06C81EC
:1042A0008D810E9410352F2D40E06C818D810E9400
:1042B000103560E08E810E94B83485E090E00E9465
:1042C000CC3361E08E810E94B834202F40E06C81B5
:1042D0008D810E9410352F2D40E06C818D810E94D0
:1042E000103560E08E810E94B83485E090E0DF9167
:1042F000CF911F910F91FF90EF900C94CC330F93BF
:104300001F93CF93DF93FC01208524FF06C0DF912C
:10431000CF911F910F910C942521042F162FEC01A2
:1043200070E084E0759567958A95E1F7CF010E946A
:10433000D320402F612FCE01DF91CF911F910F919C
:104340000C94D32040E00C947F2161E00E94A221D4
:1043500080ED97E00C94CC33CF93DF93CDB7DEB7ED
:1043600028970FB6F894DEBF0FBECDBF9C0188E042
:10437000E6E7F0E0DE01119601900D928A95E1F7F3
:10438000F9018585841710F44FEF480FFE0131962F
:10439000E40FF11DE40FF11D9081690F6068C90100
:1043A00028960FB6F894DEBF0FBECDBFDF91CF9138
:1043B0000C94A221FC016185262F246021876C606A
:1043C0000C94A221CF93DF93EC01423018F0888542
:1043D000886088874D871E86222329F0413019F492
:1043E00088858460888780E593EC0E94CC3320E048
:1043F00040E06C818D810E94103520E040E06C81AE
:104400008D810E941035688564FD21C040E063E025
:10441000CE010E94D32084E991E10E94CC3340E098
:1044200063E0CE010E94D32084E991E10E94CC3365
:1044300040E063E0CE010E94D32086E990E00E9434
:10444000CC3340E062E0CE010E94D32016C060620F
:10445000CE010E94A22184E991E10E94CC336885BB
:104460006062CE010E94A22186E990E00E94CC33D6
:1044700068856062CE010E94A22168856062CE01DB
:104480000E94A22184E08987CE010E94DA21CE0118
:104490000E94A52182E08A8766E0CE01DF91CF915C
:1044A0000C94A2210F93CF93DF93EC01862F6D83A1
:1044B0004C832E8394E09B8761E00E947C3461E012
:1044C0008C810E947C3461E08E810E947C340530B6
:1044D00010F4188602C080E1888720E041E060E1A6
:1044E000CE01DF91CF910F910C94E2210F93DC016B
:1044F00013961C921E921297E6E2F4E0ED93FC9361
:104500000E9452220F910895EF92FF920F931F93F2
:10451000CF93DF938C017A01677088E0689FB001C8
:1045200011246064C8010E94A221E701A8E0EA0EFC
:10453000F11C6991D801ED91FC910190F081E02D81
:10454000C8010995CE15DF05A1F7DF91CF911F9125
:104550000F91FF90EF90089541E00E947F2181E04C
:1045600090E00895CF93DF93EC01842F68834A8312
:10457000298361E00E947C3461E088810E947C3460
:1045800060E089810E947C3461E08A81DF91CF9173
:104590000C94B834CF92DF92EF92FF921F93CF9397
:1045A000DF937C0110E0C7E0D0E0CC24C394D12C91
:1045B00060E0F70180810E94B8348FE99FE00197A5
:1045C000F1F700C00000F70181810E94E734892BD8
:1045D00039F0C6010C2E01C0880F0A94EAF7182B97
:1045E00061E0F70180810E94B8348FE99FE0019774
:1045F000F1F700C000002197D8F6812FDF91CF910D
:104600001F91FF90EF90DF90CF9008950F931F932D
:10461000CF93DF938C0160E0FC0182810E94B8346B
:104620008FE99FE00197F1F700C00000C8010E94E8
:10463000CA22C82FD0E0DC2FCC27C8010E94CA2292
:10464000C82B61E0F80182810E94B834C2FD11C01C
:10465000BE0183E0769567958A95E1F780E090E06A
:104660000E94153A20E030E040E85EE30E94CC3A38
:1046700004C060E070E080EC9FE7DF91CF911F9174
:104680000F910895FC01118210821382128215820B
:10469000148208950F931F93CF93DF93EC018B0146
:1046A00084E090E00E94DE3B0097B9F0FC011183AA
:1046B000008313821282E881F981309719F499837B
:1046C000888309C0228133812115310511F0F90158
:1046D000F9CF9383828381E001C080E0DF91CF91A5
:1046E0001F910F910895EF92FF920F931F93CF9315
:1046F000DF938C017B0184E090E00E94DE3BEC01C3
:10470000892BE9F0F982E8821B821A82C7010E9494
:104710002E29D8011296ED91FC911397309729F428
:104720001396DC93CE93129708C0828193810097F1
:1047300011F0FC01FACFD383C28381E001C080E095
:10474000DF91CF911F910F91FF90EF9008950F93FC
:104750001F93CF93DF93EC018B0184E090E00E94E4
:10476000DE3B0097B9F0FC011183008313821282B3
:10477000EC81FD81309719F49D838C8309C02281DF
:1047800033812115310511F0F901F9CF938382832B
:1047900081E001C080E0DF91CF911F910F910895DA
:1047A000CF92DF92EF92FF920F931F93CF93DF93FD
:1047B0008B0169017A01FC01C081D181209799F0B8
:1047C000888199810E94B0288017910741F4B70130
:1047D000A601888199810E94B42881E005C00A80E1
:1047E000DB81C02DEBCF80E0DF91CF911F910F9146
:1047F000FF90EF90DF90CF9008950F931F93CF938A
:10480000DF93EC01088119810115110549F0F801C8
:10481000808191810E94E328F80102811381F4CF05
:104820000A811B810115110549F0F80180819181F0
:104830000E94E328F80102811381F4CF08811981D5
:104840000115110549F0F801808191810E94F72836
:10485000F80102811381F4CF0C811D81011511052E
:1048600049F0F801808191810E94152DF8010281A3
:104870001381F4CF0A80DB81C02D209729F0888135
:1048800099810E94D92AF6CF81E0DF91CF911F91C3
:104890000F9108950F931F93CF93DF938B01FC012A
:1048A000C281D381209799F0888199810E94B02894
:1048B0008017910741F488819981DF91CF911F91F1
:1048C0000F910C9429290A80DB81C02DEBCF60E089
:1048D00070E0CB01DF91CF911F910F910895FC0102
:1048E0001182108208958F929F92AF92BF92CF92C1
:1048F000DF92EF92FF920F931F93CF93DF93EC0120
:104900004A015B01680179018CE090E00E94DE3B86
:10491000FC01009719F11182108282829382A48295
:10492000B582C682D782E086F18613861286A88178
:10493000B981109719F4998388830EC01A968D91C6
:104940009C911B97009711F0DC01F8CFB183A083F5
:104950001B96FC93EE931A9781E001C080E0DF91F3
:10496000CF911F910F91FF90EF90DF90CF90BF906C
:10497000AF909F908F9008952F923F924F925F92A9
:104980006F927F928F929F92AF92BF92CF92DF925F
:10499000EF92FF920F931F93CF93DF93CDB7DEB7C4
:1049A0002D970FB6F894DEBF0FBECDBFDC010D9082
:1049B000BC91A02DBE83AD83412C512C3201498680
:1049C0005A866B867C862D813E812115310509F43E
:1049D0002DC1D9011A960D90BC91A02DBA83A9833F
:1049E000109729F4E981FA81FE83ED83ECCFF90178
:1049F000C280D380E480F58012968D909D90AD901A
:104A0000BC901597A5019401C701B6010E946F39AA
:104A1000AD81BE8116963C90169717962C901797ED
:104A20001896BC91BB83ED81FE81F185FC838111D9
:104A300005C0032D122DBD87FD83DBC020E030E0D3
:104A4000A901632D722D8B819C810E946F3988236F
:104A5000A9F0A981BA8116968D919D910D90BC9176
:104A6000A02D8D839E83AF83B88720E030E0A9011D
:104A7000BC01CD010E946F39811155C020E030E0AA
:104A8000A901632D722D8B819C810E94C73A181653
:104A900074F0E981FA811681F781FD87A981BA81D5
:104AA0001896BC91BD83E981FA81018505C0132D5B
:104AB0002D86FB81FD830C81A7019601C501B40100
:104AC0000E9402394B015C019B01AC01612F7D8585
:104AD0008D81902F0E94CC3A20E030E040E05FE3EF
:104AE0000E94CC3A8B018D879D83A981BA8116964D
:104AF0002D913D914D915C911997632D722D8B8174
:104B00009C810E946F3987FF05C020E030E040ECB7
:104B10005FE304C020E030E040E450E4C501B401AC
:104B20000E9474395EC020E030E0A901632D722D2F
:104B30008B819C810E94C73A181634F520E030E042
:104B4000A9016D817E818F8198850E94C73A1816D0
:104B5000DCF42D813E814F815885632D722D8B8130
:104B60009C810E946F39A7019601811115C0C50172
:104B7000B4010E9402394B015C019B01AC01632D21
:104B8000722D8B819C8120C0C12CD12C760100E03C
:104B900010E01D861D822DC0C501B4010E9402399E
:104BA0004B015C012D813E814F815885632D722D13
:104BB0008B819C810E94033920E030E040E05FE37C
:104BC0000E94CC3AA50194010E94CC3A8B018D87BA
:104BD0009D8320E030E040E05FE3C501B4010E9426
:104BE000CC3A9B01AC01C701B6010E9403396B01AD
:104BF0007C01A7019601B8018D859D810E94CC3A68
:104C00009B01AC0169857A858B859C850E9403395F
:104C100069877A878B879C8798014D855D81C30161
:104C2000B2010E9403392B013C01DCCE20E030E0D0
:104C3000A901C301B2010E946F39882349F0A30181
:104C4000920169857A858B859C850E94743903C0A1
:104C500060E070E0CB012D960FB6F894DEBF0FBE7A
:104C6000CDBFDF91CF911F910F91FF90EF90DF901B
:104C7000CF90BF90AF909F908F907F906F905F90FC
:104C80004F903F902F900895CF93DF93611571055A
:104C900051F0EB016A857B850E944426CE01DF91AD
:104CA000CF910C94763CDF91CF910895CF93DF9311
:104CB000EC01688179810E9444261982188281E082
:104CC000DF91CF9108956115710519F0CB010E9414
:104CD000763C81E008952F923F924F925F926F92BF
:104CE0007F928F929F92AF92BF92CF92DF92EF927C
:104CF000FF920F931F93CF93DF93CDB7DEB7A497A7
:104D00000FB6F894DEBF0FBECDBF9CA38BA31B01D3
:104D10005E834D83DB0112968D919D910D90BC9128
:104D2000A02D8F839887A987BA87DB0116968D916E
:104D30009D910D90BC91A02D8B879C87AD87BE87E0
:104D4000D90112968D919D910D90BC91A02D8F87C8
:104D5000988BA98BBA8BD90116968D919D910D9048
:104D6000BC91A02D8B8B9C8BAD8BBE8B9C01AD0120
:104D7000F80166817781808591850E9402396F8F65
:104D800078A389A39AA32F81388549855A85AD8157
:104D9000BE8112966D917D918D919C9115970E9487
:104DA00002396F8B788F898F9A8F2F85388949893F
:104DB0005A89F80162817381848195810E94023948
:104DC0002B013C012B853C854D855E85AD81BE81E7
:104DD00016966D917D918D919C9119970E94023943
:104DE0006B8F7C8F8D8F9E8F2F89388D498D5A8D3B
:104DF0006F8D78A189A19AA10E94CC3A6B017C01A8
:104E00002B8D3C8D4D8D5E8DC301B2010E94CC3A3D
:104E10009B01AC01C701B6010E94023969837A8304
:104E20008B839C8320E030E0A9010E946F3987FFCB
:104E300009C089819A81AB81BC81B05889839A83EA
:104E4000AB83BC832FE632E143E85AE369817A8180
:104E50008B819C810E946F3987FF02C080E00BC16B
:104E60002B893C894D895E896B857C858D859E85E6
:104E70000E9402394B015C012F85388949895A8982
:104E80006F81788589859A850E9402396B017C0142
:104E9000A5019401C301B2010E94CC3A2B013C014F
:104EA000A70196016F8D78A189A19AA10E94CC3AA1
:104EB0009B01AC01C301B2010E9402392B013C01EC
:104EC00020E030E0A9010E946F3987FF04C077FA23
:104ED000709477F87094A50194016F89788D898D0D
:104EE0009A8D0E94CC3A4B015C01A70196016B8D13
:104EF0007C8D8D8D9E8D0E94CC3A9B01AC01C501AD
:104F0000B4010E9402396B017C0120E030E0A9016C
:104F10000E946F3987FF04C0F7FAF094F7F8F09415
:104F200029813A814B815C81C301B2010E947439AD
:104F30004B015C0120E030E0A9010E946F3987FD40
:104F40008DCF20E030E040E85FE3C501B4010E946E
:104F5000C73A18160CF482CF29813A814B815C81C3
:104F6000C701B6010E9474396B017C0120E030E07A
:104F7000A9010E946F3987FD71CF20E030E040E841
:104F80005FE3C701B6010E94C73A18160CF466CF5A
:104F90008CE090E00E94DE3B9A838983009709F4BD
:104FA0005DCFDC010D931C93A50194016F89788D71
:104FB000898D9A8D0E94CC3A2F81388549855A85F2
:104FC0000E940339E981FA81628373838483958324
:104FD000A50194016B8D7C8D8D8D9E8D0E94CC3AA8
:104FE0002B853C854D855E850E940339A981BA8158
:104FF00016966D937D938D939C931997ED81FE8109
:105000001B96FC93EE931A97F801B387A287ED8164
:10501000FE81B183A083D10112968D909D90AD90B9
:10502000BC9015971696CD90DD90ED90FC90199759
:10503000ED91FC91FA83E983B1018BA19CA10E94BF
:105040006326A50194016F85788989899A890E94D0
:105050006F3981110AC0A70196016B897C898D89FE
:105060009E890E946F39882329F029803A80211473
:10507000310489F681E0A4960FB6F894DEBF0FBE26
:10508000CDBFDF91CF911F910F91FF90EF90DF90F7
:10509000CF90BF90AF909F908F907F906F905F90D8
:1050A0004F903F902F900895AF92BF92CF92DF9292
:1050B000EF92FF920F931F93CF93DF936C01FC014C
:1050C000E080F180E114F104A9F1E701A880B98042
:1050D000A114B10439F1F501228133814481558154
:1050E0006A817B818C819D810E946F3987FD02C01E
:1050F000E501ECCF5E01F5012081318121153105FB
:1051000089F0F901008111810115110579F04A85B5
:105110005B85BE01C6010E946B26882339F0F6012B
:10512000E080F180F701E284F384CCCFF501A08028
:10513000B180E1CF81E0DF91CF911F910F91FF907E
:10514000EF90DF90CF90BF90AF900895FC017183F6
:105150006083128213821482158217821682089548
:10516000FC01808191810895FC0142835383648313
:10517000758308950F931F93CF93DF93EC018B01F9
:1051800084E090E00E94DE3B0097B9F0FC011183BF
:10519000008313821282EE81FF81309719F49F837E
:1051A0008E8309C0228133812115310511F0F90167
:1051B000F9CF9383828381E001C080E0DF91CF91BA
:1051C0001F910F910895CF93DF93FC01C681D78182
:1051D000209741F0888199810E94A9300A80DB8163
:1051E000C02DF6CFDF91CF9108950C94A6280F9390
:1051F0001F93CF93DF938C01FC01C681D781209749
:1052000069F0F801428153816481758188819981B7
:105210000E94472F0A80DB81C02DF1CF81E0DF9112
:10522000CF911F910F9108950F931F93CF93DF9309
:10523000EC010E94A62882E090E00E94FF388C01D9
:105240000E946F2419870887DF91CF911F910F91DA
:105250000895FC01808591850C94BC248F929F92C7
:10526000AF92BF92EF92FF920F931F93CF93DF9372
:105270007C01FC01C681D7818E010115110579F1F0
:10528000209731F18A819B81892BF1F08881998166
:105290000E942F2F4B015C01EA81FB81808191816B
:1052A0000E942F2F9B01AC01C501B4010E94C73A97
:1052B000181654F4EA81FB8188819981208131811B
:1052C00039832883918380830A80DB81C02DD8CFE6
:1052D000F701C681D781F80102811381CECF81E029
:1052E000DF91CF911F910F91FF90EF90BF90AF9002
:1052F0009F908F9008954F925F926F927F928F92BE
:105300009F92AF92BF92CF92DF92EF92FF920F9354
:105310001F93CF93DF93CDB7DEB768970FB6F8949E
:10532000DEBF0FBECDBF4D875E876F87788B098B41
:105330001A8B2B8B3C8B2FA538A949A95AA96FA989
:1053400078AD89AD9AAD0E9402396D8B7E8B8F8BC3
:10535000988F2D853E854F855889C701B6010E94DB
:1053600002396D837E838F8398872BA53CA54DA53D
:105370005EA56BA97CA98DA99EA90E9402396B012B
:105380007C0129893A894B895C89C501B4010E9455
:10539000023969877A878B879C872D813E814F816F
:1053A00058856D897E898F89988D0E94CC3A4B01F2
:1053B0005C0129853A854B855C85C701B6010E9451
:1053C000CC3A9B01AC01C501B4010E9402392B010A
:1053D0003C0120E030E0A9010E946F3987FF04C042
:1053E00077FA709477F870942FE632E143E85AE345
:1053F000C301B2010E946F3987FDC3C02FA538A930
:1054000049A95AA969897A898B899C890E9402399C
:105410004B015C012BA53CA54DA55EA56D857E8548
:105420008F8598890E94023969837A838B839C8354
:10543000A5019401C701B6010E94CC3A6B017C0121
:1054400029813A814B815C816D897E898F89988D14
:105450000E94CC3A9B01AC01C701B6010E940239FF
:105460006B017C0120E030E0A9010E946F3987FFC9
:1054700004C0F7FAF094F7F8F094A50194016D8157
:105480007E818F8198850E94CC3A4B015C012981F5
:105490003A814B815C8169857A858B859C850E94E8
:1054A000CC3A9B01AC01C501B4010E9402394B0109
:1054B0005C0120E030E0A9010E946F3987FF04C041
:1054C000B7FAB094B7F8B094A3019201C701B6013E
:1054D0000E9474396B017C0120E030E0A9010E9438
:1054E0006F3987FD4EC020E030E040E85FE3C70140
:1054F000B6010E94C73A18160CF443C0A3019201EA
:10550000C501B4010E9474394B015C0120E030E018
:10551000A9010E946F3987FD34C020E030E040E8E7
:105520005FE3C501B4010E94C73A181654F1A70100
:1055300096016D817E818F8198850E94CC3A2D8560
:105540003E854F8558890E940339EBADFCAD6083E1
:10555000718382839383A701960169857A858B8500
:105560009C850E94CC3A29893A894B895C890E94A2
:105570000339EDADFEAD608371838283938381E057
:1055800001C080E068960FB6F894DEBF0FBECDBFB5
:10559000DF91CF911F910F91FF90EF90DF90CF900F
:1055A000BF90AF909F908F907F906F905F904F9043
:1055B00008952F923F924F925F926F927F928F92B7
:1055C0009F92AF92BF92CF92DF92EF92FF920F9392
:1055D0001F93CF93DF93CDB7DEB76E970FB6F894D6
:1055E000DEBF0FBECDBF2C01FC01808591850E94DE
:1055F0005626F20166807780CE0109969A8B898BB8
:10560000FE013D96FC8BEB8B04979E8B8D8B61147A
:10561000710409F4E2C1F301808191810E94A330F9
:1056200020E030E0A9010E94C73A18160CF07DC1B5
:10563000F301808191810E942F2F6B017C01F30186
:10564000808191810E94352F9B01AC01C701B60179
:105650000E946F39882379F0F301808191810E9443
:105660002F2FAB01BC0100E010E09801F201808512
:1056700091850E947324F301808191810E94352FCE
:105680006B017C01F301808191810E943B2F9B0182
:10569000AC01C701B6010E946F3981114AC1F30103
:1056A000808191810E942F2F6B017C01F301808109
:1056B00091810E94412F9B01AC01C701B6010E945C
:1056C0006F39882309F435C1F301808191810E94EB
:1056D000A33020E030E040E85FE30E946F39F3013F
:1056E00020813181882309F469C1C9010E94352FC5
:1056F0006D877E878F87988BF301808191810E94CF
:10570000A33069877A878B879C87F3018081918199
:105710000E94A3306F8B788F382E292EF301808161
:1057200091810E94412F962E872E898F9A8FF301A7
:10573000808191810E94A3306B8F7C8FB82EA92E1F
:10574000F301808191810E942F2F162F072F8D8FBB
:105750009E8FF301808191810E94352F6B017C0126
:10576000F301808191810E942F2FAB01BC01FA8946
:10577000FF9389898F939C899F93EB89EF932F9255
:105780003F92F88DFF938F898F939A8D9F93E98D28
:10579000EF938F929F92AF92BF92FC8DFF938B8D70
:1057A0008F939E8D9F93ED8DEF930F931F93812C7D
:1057B000912C80E8A82E8FE3B82E00E010E098012D
:1057C000C2010E947B2909851A852B853C854D8560
:1057D0005E856F857889F201808591850E947324AA
:1057E000F301808191810E943B2F6D837E838F83A3
:1057F0009887F301808191810E94A33069837A8325
:105800008B839C83F301808191810E94A3306F8BF5
:10581000788F382E292EF301808191810E94412FAB
:10582000962E872E898F9A8FF301808191810E9415
:10583000A3306B8F7C8FB82EA92EF30180819181CC
:105840000E942F2F162F072F8D8F9E8FF30180819F
:1058500091810E94412F6B017C01F3018081918134
:105860000E943B2FAB01BC0181E090E08C0F9D1F9B
:105870009F938F939E899F93ED89EF932F923F92F1
:10588000F88DFF938F898F939A8D9F93E98DEF9376
:105890008F929F92AF92BF92FC8DFF938B8D8F93CF
:1058A0009E8D9F93ED8DEF930F931F93812C912CE1
:1058B000540100E010E020E83FE3C2010E947B2990
:1058C0000FB6F894DEBF0FBECDBF09811A812B81C0
:1058D0003C814D815E816F817885F2018085918563
:1058E0000E947324F301808191810E943B2F6B0100
:1058F0007C01F301808191810E94412F9B01AC01C9
:10590000C701B6010E946F39882379F0F3018081C5
:1059100091810E94412FAB01BC0100E010E0980191
:10592000F201808591850E947324F3016280738067
:105930006ECEF301808191810E94352F6B017C0135
:10594000F301808191810E943B2F9B01AC01C70133
:10595000B6010E946F39F30120813181882371F1F2
:10596000C9010E94A33020E030E040E85FE30E94DC
:105970006F39F301208131818111B7CEC9010E94B5
:10598000A3306B017C01F301808191810E94352F4E
:10599000AB01BC0197018601F201808591850E94CF
:1059A0007324F301808191810E94A3306B017C01FB
:1059B000F301808191810E943B2F0AC0C9010E949E
:1059C000A3306B017C01F301808191810E94352F0E
:1059D000AB01BC019701860180CFF20180859185E2
:1059E0000E94542881E06E960FB6F894DEBF0FBE79
:1059F000CDBFDF91CF911F910F91FF90EF90DF907E
:105A0000CF90BF90AF909F908F907F906F905F905E
:105A10004F903F902F900895FC0171836083128214
:105A200054834383368325830895CF92DF92EF9288
:105A3000FF92CF93DF93EC018B819C810097C9F09B
:105A40002D813E81232BA9F00E945D2D6B017C01ED
:105A500020E030E0A9010E94C73A18161CF481E04A
:105A60008A8301C01A82B701A6018D819E810E949E
:105A7000E02E8A81DF91CF91FF90EF90DF90CF9061
:105A80000895FC0111821082138212821582148201
:105A90001782168211861086138612860895611564
:105AA000710549F021E030E0FC01338322837583E6
:105AB000648381E0089580E00895CF92DF92EF92B1
:105AC000FF92CF93DF93EC018A819B818230910515
:105AD00069F024F4019709F48FC03BC1833091052C
