:100000000C9452060C947A060C947A060C947A0698
:100010000C947A060C947A060C947A060C947A0660
:100020000C947A060C947A060C947A060C94261E8C
:100030000C947A060C947A060C947A060C947A0640
:100040000C94BF200C947A060C9464180C943E18FF
:100050000C947A060C947A060C947A060C947A0620
:100060000C947A060C947A0641076D0701085D0826
:1000700036082D09420892099209920992099209BB
:100080009209F0062E0792099209920992099209A3
:100090009209A808F708A209C8091B0A410A860A9A
:1000A000D40AE70A250BDF0BFC0B3A0C7F0CD40CAF
:1000B000AC0D2E0EEB0DFC0D0D0A50616972696ED0
:1000C00067204661696C65643A20000D0A506169D9
:1000D00072696E67207375636365737366756C20F0
:1000E00077697468204849442064657669636500CF
:1000F0000D0A50616972696E672073756363657379
:100100007366756C2077697468205769696D6F74C0
:1001100065000D0A5265636569766564204B6579F3
:100120002052657175657374000D0A4E6F207069F9
:100130006E2077617320736574000D0A426C7565DB
:10014000746F6F74682070696E20697320736574B2
:1001500020746F6F3A20000D0A50616972696E67F2
:100160002077697468205769696D6F7465000D0A9E
:1001700047616D6570616420697320636F6E6E65A1
:100180006374696E67000D0A4B6579626F61726412
:1001900020697320636F6E6E656374696E67000D0E
:1001A0000A4D6F75736520697320636F6E6E6563AA
:1001B00074696E67000D0A436F6E6E656374696FD4
:1001C0006E204661696C65643A20000D0A47616DD6
:1001D0006570616420666F756E64000D0A4B657909
:1001E000626F61726420666F756E64000D0A4D6FF8
:1001F00075736520666F756E64000D0A436F756CCC
:10020000646E27742066696E6420484944206465E2
:1002100076696365000D0A436F756C646E27742000
:1002200066696E64205769696D6F7465000D0A48D0
:10023000434920436F6D6D616E64204661696C6552
:10024000643A20000D0A48434920446973636F6E85
:100250006E65637465642066726F6D2044657669AF
:100260006365003A000D0A436F6E6E6563746564E2
:1002700020746F204465766963653A20000D0A504A
:10028000533420636F6E74726F6C6C657220697387
:1002900020636F6E6E656374696E6700202D205752
:1002A00069692042616C616E636520426F617264AE
:1002B00000202D2057696920552050726F20436F10
:1002C0006E74726F6C6C6572002077697468204D73
:1002D0006F74696F6E20506C757320496E7369641A
:1002E00065000D0A5769696D6F7465206973206335
:1002F0006F6E6E656374696E67000D0A52656D6F8F
:100300007465204E616D653A20000D0A496E636F79
:100310006D696E6720436F6E6E656374696F6E20E2
:1003200052657175657374000D0A576169742046D2
:100330006F7220496E636F6D696E6720436F6E6EDA
:10034000656374696F6E2052657175657374000D15
:100350000A547279696E6720746F20636F6E6E65E0
:100360006374206F6E65206D6F72652074696D65B2
:100370002E2E2E000D0A436F6E6E65637465642029
:10038000746F2048494420646576696365000D0AEE
:10039000436F6E6E656374656420746F205769697E
:1003A0006D6F7465000D0A436F6E6E656374696EE0
:1003B0006720746F2048494420646576696365004E
:1003C0000D0A436F6E6E656374696E6720746F20EB
:1003D0005769696D6F746500646576696365005778
:1003E00069696D6F7465000D0A416E6420746865FB
:1003F0006E20707265737320616E792062757474FB
:100400006F6E206F6E2074686520000D0A4254489C
:1004100049442062746869642826427464293B0058
:100420000D0A574949205769692826427464293BB7
:10043000000D0A4E6F77206A7573742063726561D0
:1004400074652074686520696E7374616E636520DD
:100450006C696B6520736F3A000D0A48494420644B
:10046000657669636520666F756E64000D0A57696D
:10047000696D6F746520666F756E64000D0A506C4F
:100480006561736520656E61626C65206469736384
:100490006F76657279206F6620796F75722064655A
:1004A00076696365000D0A5374617274696E672022
:1004B000696E71756972790D0A50726573732031B6
:1004C00020262032206F6E20746865205769696D80
:1004D0006F74650D0A4F72207072657373207468B3
:1004E000652053594E4320627574746F6E2069669F
:1004F00020796F7520617265207573696E67206160
:100500002057696920552050726F20436F6E7472B6
:100510006F6C6C6572206F72206120576969204290
:10052000616C616E636520426F617264000D0A54F4
:100530006865206E616D6520697320736574207431
:100540006F3A20003A000D0A4C6F63616C20426CD8
:100550007565746F6F746820416464726573733A73
:1005600020000D0A577269746520636C61737320F3
:100570006F6620646576696365000D0A4E6F2072B0
:100580006573706F6E736520746F20484349205205
:1005900065736574000D0A4843492052657365749C
:1005A00020636F6D706C657465002000202D204302
:1005B00068616E6E656C2049443A20000D0A4572F0
:1005C000726F722073656E64696E67204C324341AE
:1005D00050206D6573736167653A203078000000C4
:1005E0000000000000000000FF27100032FF27106D
:1005F0000032FF27100032FF2710003200000000F9
:1006000000000000000000000000000000000D0AD3
:10061000446973636F6E6E656374656420436F6EC7
:1006200074726F6C204368616E6E656C000D0A44D5
:100630006973636F6E6E656374656420496E74657B
:100640007272757074204368616E6E656C000D0A7D
:1006500048494420496E74657272757074205375F0
:10066000636365737366756C6C7920436F6E66693E
:100670006775726564000D0A48494420496E7465C7
:10068000727275707420496E636F6D696E67204376
:100690006F6E6E656374696F6E20526571756573F8
:1006A00074000D0A48494420436F6E74726F6C20C9
:1006B0005375636365737366756C6C7920436F6EF5
:1006C00066696775726564000D0A48494420436F86
:1006D0006E74726F6C20496E636F6D696E67204334
:1006E0006F6E6E656374696F6E20526571756573A8
:1006F00074000D0A446973636F6E6E6563742052F3
:100700006571756573743A20496E7465727275709F
:1007100074204368616E6E656C000D0A44697363F2
:100720006F6E6E65637420526571756573743A20DF
:10073000436F6E74726F6C204368616E6E656C00FF
:1007400020002000200020446174613A2000200035
:100750000D0A4C3243415020436F6D6D616E642031
:1007600052656A6563746564202D20526561736FFC
:100770006E3A20000D0A4275742073686F756C64C0
:10078000206265206174206C6561737420330D0AEA
:1007900054686973206D65616E732074686174209C
:1007A000697420646F65736E277420737570706F41
:1007B000727420426C7565746F6F74682056657230
:1007C00073696F6E20322E302B454452000D0A594A
:1007D0006F757220646F6E676C65206D6179206E35
:1007E0006F7420737570706F7274207265616469C4
:1007F0006E672074686520616E616C6F672062753A
:1008000074746F6E732C2073656E736F72732061D6
:100810006E64207374617475730D0A596F7572205C
:100820004843492056657273696F6E2069733A2098
:100830000000000000240027002A000D0A50533356
:1008400020426C7565746F6F7468204C69627261C8
:1008500072792053746172746564000D0A4F5343BA
:1008600020646964206E6F74207374617274000078
:1008700000000023002600290004040404040404EA
:10088000040202020202020303030303030102043F
:100890000810204080010204081020010204081002
:1008A000200D0A67657444657644657363722000A1
:1008B0000D0A506C65617365206372656174652013
:1008C000612068756220696E7374616E636520696A
:1008D0006E20796F757220636F64653A20225553DC
:1008E0004248756220487562312826557362293B5B
:1008F00022000D0A4F7574206F6620616464726572
:100900007373207370616365000D0A6570696E66AC
:100910006F206973206E756C6C000D0A41646472FF
:10092000657373206E6F7420666F756E64000D0AB8
:100930004164647265737320696E20757365000D80
:100940000A73657444657654626C456E20000D0A26
:10095000676574436F6E6620000D0A736574436F9C
:100960006E662000205049443A20000D0A556E6BF7
:100970006E6F776E2044657669636520436F6E6E97
:100980006563746564202D205649443A20000D0AA1
:10099000000D0A42544420496E6974204661696C16
:1009A00065642C206572726F7220636F64653A20F3
:1009B000000D0A426C7565746F6F746820446F6E29
:1009C000676C6520496E697469616C697A65640059
:1009D0003A000D0A426C7565746F6F74682041644B
:1009E0006472657373207761732073657420746F0C
:1009F0003A20000D0A506C6561736520706C756754
:100A000020696E2074686520646F6E676C65206273
:100A100065666F726520747279696E6720746F20E5
:100A2000706169722077697468207468652050531A
:100A30003320436F6E74726F6C6C65720D0A6F7247
:100A4000207365742074686520426C7565746F6FDF
:100A50007468206164647265737320696E207468C1
:100A60006520636F6E7374727563746F72206F6646
:100A70002074686520505333425420636C61737353
:100A8000000D0A4D6F74696F6E20436F6E74726F44
:100A90006C6C657220436F6E6E6563746564000DE7
:100AA0000A4E617669676174696F6E20436F6E7478
:100AB000726F6C6C657220436F6E6E6563746564F3
:100AC000000D0A4475616C73686F636B20332043BB
:100AD0006F6E74726F6C6C657220436F6E6E6563BF
:100AE000746564000D0A41646472657373206E6FEF
:100AF0007420666F756E64000D0A736574416464DA
:100B0000723A20000D0A41646472657373206E6F3F
:100B10007420666F756E640042756666657220703B
:100B20006F696E746572206973204E554C4C210DAF
:100B30000A0000000000250028002B00000000082B
:100B40000002010000030407000000000000000094
:100B500010000000200000004000000080000000A5
:100B60000100000008000000020000000400000076
:100B70000001000000020000000400000008000066
:100B80000010000000200000004000000080000075
:100B90000000010000000800000010000D0A4D6F69
:100BA00074696F6E20436F6E74726F6C6C65722027
:100BB000456E61626C65640D0A000D0A4E617669CE
:100BC000676174696F6E20436F6E74726F6C6C65D1
:100BD0007220456E61626C65640D0A000D0A4475F1
:100BE000616C73686F636B203320436F6E74726F38
:100BF0006C6C657220456E61626C65640D0A000064
:100C000001020408090A0C0D0E0F0D0A50616972E9
:100C1000696E6720776974682057696920636F6E11
:100C200074726F6C6C6572207669612053594E4303
:100C3000000D0A00285553423A3A496E5472616ECB
:100C400073666572292065702072657175657374AD
:100C5000656420000D0A00285553423A3A496E5403
:100C600072616E73666572292061646472207265B8
:100C70007175657374656420000D0A002855534230
:100C80003A3A496E5472616E7366657229205365F3
:100C90007441646472657373204661696C65642095
:100CA00000002F3011241FBECFEFD8E0DEBFCDBF34
:100CB00011E0A0E0B1E0EEE1F4E602C005900D9293
:100CC000A43CB107D9F724E0A4ECB1E001C01D9227
:100CD000A13FB207E1F716E0C2E5D6E004C02197D4
:100CE000FE010E94ED31C135D107C9F70E94792B71
:100CF0000C940D320C9400002F923F925F926F92F1
:100D00007F928F929F92AF92BF92CF92DF92EF929B
:100D1000FF920F931F93CF93DF9300D000D000D0AA
:100D2000CDB7DEB7FC01ED59FF4F2081222309F436
:100D3000DEC76C010E94B32086010E5A1F4FD801F6
:100D40008D909D90AD90BC90DC01CB0188199909E4
:100D5000AA09BB09B7FDCBC70E94B320F601EE5923
:100D6000FF4FFC83EB83E080DC01CB018E0D911DF6
:100D7000A11DB11DF80180839183A283B38380E418
:100D800090E09A8389835601F2E7AF0EB11C1601F9
:100D900023E4220E311CC6018F5B9F4F9E838D83FF
:100DA00085019E012F5F3F4FF601E95BFF4F4081B8
:100DB000D1016C91FC01808191810E9462288B7F1E
:100DC00009F0B0C2D501EC918E2F90E0FC01319773
:100DD000E731F10508F0A6C2EC5CFF4F0C94ED3151
:100DE000F601E958FF4F808181119CC286010159AB
:100DF0001F4FF801808191819C0121603183208304
:100E0000D601AB58BF4F2C91213061F411962C9133
:100E1000203109F087C212962C91D601D8962C93D6
:100E2000816493C1293009F07DC2D601AA58BF4F11
:100E30002C91203109F076C21296960122583F4F2C
:100E40006D91AD014D565109FA016083A217B307A8
:100E5000B9F78162D8018D939C9364C286010C58C6
:100E60001F4FF8018081882309F45CC260E870E0BC
:100E70008DE292E00E94122160E870E0D8018C912E
:100E8000F2C086010F581F4FF8018081853008F1AC
:100E9000D601DB968C91F1977F01811103C090817F
:100EA0009923B9F0D8011C9260E870E0882319F00A
:100EB00085E192E002C08AEF91E00E941221F601E2
:100EC00011AE13AE16AED7011C928AE0E659FF4F61
:100ED0008083F80180818F5F24C2F601EC58FF4FB8
:100EE0006081662309F41EC2762F770F770F770F84
:100EF00010E07601F7E6EF0EF11C460128E6820EBF
:100F0000911CD601A759BF4F9601205C3F4FC601E7
:100F1000870F911DAC014A585F4FFA010081F7011C
:100F200000834F5F5F4FFA014081F401408388588E
:100F30009F4FFC0180818C93F60193AD9923F1F0D2
:100F400081111CC0842F8570C9F0802F8C70B1F086
:100F500081E0EB59FF4F8083F60126E0129FE00D00
:100F6000F11D1124EB58FF4FD6015496C6014A9645
:100F700021912D93A817B907D9F737C0F9018081BE
:100F80008823D1F1842F8570B9F1802F887CA1F15D
:100F900007FF06C060E870E08CEE91E00E9412212D
:100FA000D7018C9186FF06C060E870E08BED91E080
:100FB0000E941221F701808183FF06C060E870E083
:100FC0008BEC91E00E941221F60126E0129FE00DC9
:100FD000F11D1124EB58FF4FD6015496C6014A96D5
:100FE00021912D938A179B07D9F7F601E159FF4FFD
:100FF000808191818068A9C01F5F7D5F611387CF69
:1010000091C1F601E159FF4F20813181C901916001
:101010009183808386010C581F4FD8018C918111D8
:1010200013C012968C918F7090E0982F882711979B
:101030004C91842BD60153969C938E9352972260A9
:101040003160318320836EC186E0F601E659FF4F9F
:10105000808360E870E085EB91E00E94122160E8F7
:1010600070E0F80180810E944B125CC1F601EC58DF
:10107000FF4F8081811156C13597808191818D7F8D
:10108000846063C0F601EC58FF4F808181114AC132
:101090003796960127563F4F8191DF01A256B1093D
:1010A0008C93882319F0E217F307B1F7F601E159A1
:1010B000FF4F80819181886048C0F601EC58FF4F56
:1010C000A60146585F4F2191CF0181569109DC015D
:1010D0002C934E175F07B9F7DA019C9186010959E5
:1010E0001F4FF80190837496808173978083749664
:1010F000208173972083857011F1892F887CF9F006
:1011000097FF06C060E870E08FE991E00E9412212D
:10111000F801808186FF06C060E870E086E891E013
:101120000E941221D8018C9183FF06C060E870E014
:101130008EE691E00E94122181E0F60187AFF60170
:10114000E159FF4F80819181806191838083EAC062
:10115000D601DB968C91882339F060E870E087E552
:1011600091E00E94122112C0F6018285938560E809
:1011700070E0892B79F08AE391E00E941221D60178
:101180001A968D919C911B970E948F2AC6010E94EE
:101190004C29C8C089E291E00E9412218EE0F5013D
:1011A000808384E0F601ED58FF4F808386E031961E
:1011B0008083D60154968C91549731968083F601A2
:1011C0008589EA58FF4F808356968C9156973196C1
:1011D0008083F6018789E858FF4F808358968C9169
:1011E00031968083F601818DE658FF4F2EC060E86E
:1011F00070E082E191E00E9412218CE0D5018C9395
:1012000084E0F601ED58FF4F808386E031968083BD
:10121000F6018489EB58FF4F8083D60155968C9157
:10122000559731968083F6018689E958FF4F808370
:1012300057968C91579731968083F601808DE758A9
:10124000FF4F808359968C913196808349E050E01E
:10125000B501C6010E94D72865C086010C581F4FF2
:10126000F801808181112AC0D601DB968C91DB9731
:10127000882371F0D9968C9181110AC060E870E0E2
:1012800080EF90E00E94122181E0F60181AF4AC018
:10129000F601E05CFF4F8081882309F443C0D6014A
:1012A000DE968C9181113EC060E870E08BEC90E09E
:1012B0000E94122181E0F60186AF34C060E870E040
:1012C00088EB90E00E94122160E870E0D8018C91D8
:1012D0000E944B12F60192898389E159FF4F2081C8
:1012E00031812B7F3183208326E0D5012C9324E0AC
:1012F0003496208323E0F8012083F601EB58FF4F5A
:10130000908331968F70808383E13196808346E0AD
:1013100050E0B501C6010E94D72880E1F601E659E8
:10132000FF4F8083860106591F4FD801EC918E2F05
:1013300090E08131910508F091C4FC01E55BFF4F1D
:101340000C94ED317601BBE6EB0EF11CF7018081C8
:101350009181019691838083329620813181281773
:10136000390708F07BC432961182108283E0D501E0
:101370008C938CE0349680833196108243E050E069
:10138000B501C6010E94D72881E0F80180834FC0D3
:101390007601BBE6EB0EF11CF7018081918101968D
:1013A000918380833496208120FF22C0D7011D9233
:1013B0001C9260E870E085E995E00E94122182E0CD
:1013C000F801808384E2D5018C938CE0F601ED581E
:1013D000FF4F808383E03196808384E03196808361
:1013E00088E0319680833196108246E050E044C018
:1013F000F601E359FF4F208131812817390708F0A2
:101400002DC44AE0429FC001439F900D1124813DAD
:10141000B7E09B0710F080ED97E09183808360E850
:1014200070E08AE795E00E941221F8011082D7014E
:101430001D921C9213C47601BFE6EB0EF11CF7015E
:10144000808180FF0BC460E870E082E695E00E9436
:10145000122183E0D8018C93F701808191818F7DE7
:101460009183808389E0D5018C9380E134968083D9
:101470003196108243E050E0B501C6010E94D728A2
:10148000EDC33601BFE66B0E711CF301808185FF51
:10149000E5C360E870E086E495E00E9412217601E1
:1014A000F2E1EF0EF11C46012DE0820E911C60E886
:1014B00070E0D7018E917D010E944B1260E870E0D0
:1014C00084E495E00E9412218E149F0481F760E865
:1014D00070E0F60184850E944B12D3018D919C919E
:1014E00011978F7B8D939C9381E0F501808380E140
:1014F000F601ED58FF4F80833196108243E050E0B3
:10150000B501C6010E94D72884E04BC2F601E1591B
:10151000FF4F808186FFA2C3D6011896ED91FC9102
:101520001997309709F451C083E1D5018C938CE071
:10153000D601AD58BF4F8C93DF010D900020E9F725
:10154000C6018C589F4F2A2F2E1BDC012C9340E0A4
:10155000242F30E0DF010D900020E9F71197AE1B3A
:10156000BF0BC601820F931F2A173B0750F48B58FD
:101570009F4F2E0F3F1FD9012C91DC012C934F5F01
:10158000E7CFDC01AB58BF4F1C92DF010D9000206C
:10159000E9F7AD014E1B5F0B4D5F5F4FB501C60113
:1015A0000E94D72885E058C3F601E159FF4F80819A
:1015B00080FF54C360E870E08DE295E00E94122144
:1015C000F601808591850E948F2A86E0EAC1F601A6
:1015D000E05CFF4F9081F60183AD911103C0882339
:1015E00009F408C360E870E0882319F085EA94E004
:1015F00002C08CE794E00E941221F601E159FF4FEE
:10160000808191818F779183808381E0D5018C9354
:1016100084E03496808385E03196808383E331963D
:1016200080838BE8319680838EE93196808380E3D6
:10163000319680838AE03196808348E050E0B5019E
:10164000C6010E94D72887E007C37601BFE6EB0EEC
:10165000F11CF701808187FF01C382E0D5018C93E3
:101660004601B3E78B0E911C84E0F40180833601C0
:10167000F4E76F0E711CD3011C9243E050E0B501FA
:10168000C6010E94D728F60183AD60E870E0882388
:1016900019F08CE694E002C089E594E00E941221E2
:1016A00060E870E081E394E00E941221D601DB96AD
:1016B0008C9160E870E0882319F080E294E002C029
:1016C0008BE094E00E94122160E870E087EE93E0E6
:1016D0000E941221F60183AD60E870E0882319F0C2
:1016E0008FED93E002C088ED93E00E941221F60195
:1016F000EB59FF4F8081882309F45FC0D7018D919A
:101700009C911197877F8D939C9389E1F50180834C
:1017100084E0D4018C938AE0F3018083D60154964F
:101720008C915497F601EB58FF4F8083F601858921
:10173000EA58FF4F808356968C9156973196808356
:10174000F6018789E858FF4F808358968C9131962F
:101750008083F601818DE658FF4F808381E03196CA
:1017600080833196108231961082319610824DE03E
:1017700050E0B501C6010E94D7288CE012C148E0B4
:1017800050E064E671E0C7010E94FF31892B09F443
:1017900035C1F601E759FF4F8081882309F483C1E1
:1017A000D601DB968C91882309F49DC1F601EB5993
:1017B000FF4F8081882309F496C188E04DC2F6016D
:1017C000E159FF4F808180FF49C2D601DB968C91A1
:1017D00060E870E0882319F080EC93E002C085EAAD
:1017E00093E00E941221F601EB59FF4F1082C601CF
:1017F0000E940D2989E030C2F601E159FF4F808136
:10180000918190FF2BC281FF2BC0D601DB968C917A
:1018100060E870E0882319F08EE893E002C084E766
:1018200093E00E94122181E1F501808384E0F601BA
:10183000ED58FF4F808382E031968083D601529627
:101840009C91529753968C913196908331968F70DC
:10185000808345E050E0B501C6010E94D728FBC156
:1018600060E870E08FE493E00E941221C6010E94BC
:101870000D29F4C1D601D9968C91D9978111EEC169
:10188000DB968C91DB978111E9C1DE968C918111F9
:10189000E5C1F601E05CFF4F80818111DFC160E8A6
:1018A00070E088E293E00E941221F601E159FF4FB7
:1018B000808191818F7E918380838AE1F50180838D
:1018C0008CE0F601ED58FF4F808381E031968083F4
:1018D000D60118968D919C9119973196892B11F00C
:1018E00083E001C082E0808344E050E0B501C6019E
:1018F0000E94D72881E0F60184838BE052C07601F4
:10190000BFE6EB0EF11CF701808184FF47C0D601D2
:1019100014961C9260E870E08AE093E00E94122125
:10192000F70180819181877F9183808389E1D5014F
:101930008C9384E0349680838AE031968083F6012C
:101940008489EB58FF4F8083D60155968C9155972B
:1019500031968083F6018689E958FF4F8083579638
:101960008C91579731968083F601808DE758FF4F11
:10197000808359968C913196808381E03196808363
:101980003196108231961082319610824DE050E0EF
:10199000B501C6010E94D7288CE05EC182FF5EC1FE
:1019A00080E1D8018C935AC13601BFE66B0E711CE1
:1019B000F301808183FF52C160E870E08AEF92E01A
:1019C0000E941221912C7601FAE1EF0EF11CF70131
:1019D00001900020E9F73197EE19FF09892D90E079
:1019E0008E179F0708F0CBCEF601E80FF91F60E8CD
:1019F00070E0828D0E9409219394E9CF552453947D
:101A0000D601DA965C92DA97DC961C92DC97DD962A
:101A10001C924601B4E68B0E911CF401108260E822
:101A200070E082EE92E00E94122146E150E06DE605
:101A300071E0C7010E94FF31892B51F460E870E02A
:101A400089EC92E00E941221D601DC965C92A1CE34
:101A500046E150E064E871E0C7010E94FF31892B44
:101A600079F460E870E081EB92E00E941221F401C9
:101A70005082D601DC965C92DC97DD965C9289CE32
:101A800043E150E06BE971E0C7010E94FF31892B0F
:101A900009F07FCE60E870E08CE992E00E941221AC
:101AA000F401508276CE31978081853209F078CE6C
:101AB00031978081883009F073CE43E150E06FEABE
:101AC00071E0C7010E94FF31892B09F069CE60E8FF
:101AD00070E08DE792E00E94122181E0F601EA5960
:101AE000FF4F80835DCEF301808191818D7F918353
:101AF000808389E0D5018C9384E0F601ED58FF4F97
:101B0000808387E031968083F6018489EB58FF4F0C
:101B10008083D60155968C91559731968083F60136
:101B20008689E958FF4F808357968C915797319655
:101B30008083F601808DE758FF4F808359968C9102
:101B400031968083319610824AE050E0B501C6019B
:101B50000E94D7288DE080C05601FFE6AF0EB11C71
:101B6000D5018C9181FF7AC060E870E085E692E053
:101B70000E9412217601BAE1EB0EF11C4601E5E16B
:101B80008E0E911C60E870E0D7018E917D010E945D
:101B90004B1260E870E083E692E00E9412218E14FE
:101BA0009F0481F760E870E0F60184890E944B127F
:101BB000F601EA59FF4F8081882321F081E0D601A8
:101BC000DE968C93F601158216821782D5011D923E
:101BD0001C928FE041C0F601E559FF4F8081918151
:101BE0000196893E23E0920718F49183808336C0E2
:101BF000118210828AE0D5CE7601BFE6EB0EF11C91
:101C0000F701808182FF2AC060E870E084E492E0FE
:101C10000E941221D7011D921C9280E4F501282F09
:101C200011922A95E9F7F601EE54FF4FDF011D925C
:101C30008A95E9F7F60113AE12AE11AEEB59FF4FDC
:101C40001082B5971082D601DF961C92DF97DE9640
:101C50001C92B69610828AE0F801808380E490E0BE
:101C60009A8389835601F2EBAF0EB11CF601E65B55
:101C7000FF4FAB81BC81EC9085019E012F5F3F4FF0
:101C80004081F1016081AD81BE818D919C910E9466
:101C900062280C551109F601E25AFF4F6F018111BC
:101CA00016C089819A81892B91F07801D7018D9195
:101CB0009D917D01009741F0DC01ED91FC91019037
:101CC000F081E02DB5010995CE14DF0479F7F80114
:101CD000819191918F01009739F0DC01ED91FC9198
:101CE0000280F381E02D0995C016D10681F780E0CE
:101CF00026960FB6F894DEBF0FBECDBFDF91CF9111
:101D00001F910F91FF90EF90DF90CF90BF90AF9019
:101D10009F908F907F906F905F903F902F9008954D
:101D2000CF93DF93EC010E949C1BFE01EF5BFF4F02
:101D300080819181CD5BDF4FDC01ED91FC910480CE
:101D4000F581E02D6881099580E0DF91CF910895BC
:101D50006F927F928F929F92AF92BF92CF92DF92BB
:101D6000EF92FF920F931F93CF93DF9300D000D099
:101D7000CDB7DEB7F02E6DB67EB6A22FB0E05D0116
:101D800038E0A30EB11CEDB7FEB7EA19FB090FB698
:101D9000F894FEBF0FBEEDBF31966F01EDB7FEB7F1
:101DA00061837F707062F601718334E0320F328399
:101DB000BD016C5F7F4F7383248315820683E782A6
:101DC0002DB73EB7275F3F4F4A01B401641B750B27
:101DD0006A177B0738F4F40161914F01F9016193AF
:101DE0009F01F3CFFC01E35BFF4F40813A97608195
:101DF0003297808091801C821B821A8219828E0108
:101E00000F5F1F4F9E012D5F3F4FC4010E9457235C
:101E1000811109C049815A816B817C8186019501BC
:101E2000C4010E948826D82E882339F164E670E028
:101E300080E090E00E94792060E870E08CEB95E013
:101E40000E94122160E870E08D2D0E944B1260E824
:101E500070E08CEA95E00E94122160E870E08E2D1F
:101E60000E944B1260E870E08AEA95E00E9412211D
:101E700060E870E08F2D0E944B120FB6F8947EBE82
:101E80000FBE6DBE0F900F900F900F90DF91CF910E
:101E90001F910F91FF90EF90DF90CF90BF90AF9088
:101EA0009F908F907F906F900895CF93DF93DC0188
:101EB0001D961C921D971E961C921E971F961C9293
:101EC0001F9751961C92519718961D921D921D9224
:101ED0001C921B9752961C925297EEEDF5E0EC0186
:101EE000C359DF4FA356BF4F849189933196CA17C8
:101EF000DB07D1F7DF91CF910895EF920F93CF9346
:101F0000DF93EC012C852F5F2C876E817F818C8184
:101F10009D81AC014E505F4F36E0FA01308331961F
:101F20002083319624E0208331961082FE01ED5209
:101F3000FF4F2081FC01EA50FF4F2083FE01EC524D
:101F4000FF4F2081FC01E950FF4F2083FE01EB523F
:101F5000FF4F2081FC01E850FF4F2083FE01EA5231
:101F6000FF4F2081FC01E750FF4F2083E12C01E06F
:101F700028E00E94A80EE881F9810480F581E02D17
:101F8000CE01099589E08A8BDF91CF910F91EF9077
:101F900008952F923F924F925F926F927F928F920D
:101FA0009F92AF92BF92CF92DF92EF92FF920F93E8
:101FB0001F93CF93DF9300D000D0CDB7DEB76C0175
:101FC0007A8369835C834B834C0180E1880E911C8A
:101FD0005601A7E0AA0EB11C332433942601BBE0BE
:101FE0004B0E511C3601E2E16E0E711C83E0282E6F
:101FF00012E089819A81892B09F4D7C0D601909685
:102000008C91823061F128F4882341F0813079F09D
:10201000F0CF833041F18430D1F1EBCFF60114835E
:1020200085819681908787831287118730A2AE01C0
:102030004F5F5F4FBE016D5F7F4FC5010E942C2136
:10204000882309F4B2C0D6011596ED91FC9116973C
:10205000808191968C939197818192968C93F601D1
:102060007682658220A2D60192968C9192978430D6
:1020700011F493961C92F60181A1825084832581EC
:102080003681308727838287818784E080A3D601C9
:1020900092968C918430B1F0853009F442C0823040
:1020A00009F06BC0AE014F5F5F4FBE016D5F7F4FA8
:1020B000C5010E942C21882309F477C0F601858987
:1020C00084A36BC0AE014F5F5F4FBE016D5F7F4F5A
:1020D000C5010E942C21882309F467C0D6015596BA
:1020E0008C9155978F3F09F058C056968C91569712
:1020F000813009F052C098969C91989757968C9190
:10210000992321F0882309F448C003C0813009F0E5
:1021100044C0F60133A2928996A3938997A385A31D
:102120003CC0AE014F5F5F4FBE016D5F7F4FC50189
:102130000E942C218823C9F1D60193968C91939704
:10214000882359F112968D919C911397009729F14C
:10215000DC01ED91FC910190F081E02D7401D6013C
:1021600095960C91959797962C91979796964C915A
:10217000969794966C91099510C0F60121A130E0D4
:1021800022503109AE014F5F5F4FBE016D5F7F4F3F
:10219000C2010E94151D882341F0D60116969C921B
:1021A0008E92159790961C9224CF0F900F900F90BF
:1021B0000F90DF91CF911F910F91FF90EF90DF90E3
:1021C000CF90BF90AF909F908F907F906F905F90D7
:1021D0004F903F902F9008952F923F924F925F9291
:1021E0006F927F928F929F92AF92BF92CF92DF9227
:1021F000EF92FF920F931F93CF93DF9300D000D005
:10220000CDB7DEB76C017A8369835C834B834C0165
:1022100080E1880E911C5601A7E0AA0EB11C332460
:1022200033942601BBE04B0E511C3601E2E16E0EE9
:10223000711C83E0282E12E089819A81892B09F490
:10224000D7C0D60190968C91823061F128F4882312
:1022500041F0813079F0F0CF833041F18430D1F119
:10226000EBCFF6011483858196819087878312874F
:10227000118730A2AE014F5F5F4FBE016D5F7F4F90
:10228000C5010E942C21882309F4B2C0D6011596FD
:10229000ED91FC911697808191968C939197818115
:1022A00092968C93F6017682658220A2D601929650
:1022B0008C919297843011F493961C92F60181A12F
:1022C0008250848325813681308727838287818766
:1022D00084E080A3D60192968C918430B1F0853051
:1022E00009F442C0823009F06BC0AE014F5F5F4F0E
:1022F000BE016D5F7F4FC5010E942C21882309F428
:1023000077C0F601858984A36BC0AE014F5F5F4F34
:10231000BE016D5F7F4FC5010E942C21882309F407
:1023200067C0D60155968C915597803E09F058C0EC
:1023300056968C915697813009F052C098969C9190
:10234000989757968C91992321F0882309F448C0D7
:1023500003C0813009F044C0F60133A2928996A3EC
:10236000938997A385A33CC0AE014F5F5F4FBE0129
:102370006D5F7F4FC5010E942C218823C9F1D601D2
:1023800093968C919397882359F112968D919C91F5
:102390001397009729F1DC01ED91FC910190F081F8
:1023A000E02D7401D60195960C91959797962C91F6
:1023B000979796964C91969794966C91099510C024
:1023C000F60121A130E022503109AE014F5F5F4F8D
:1023D000BE016D5F7F4FC2010E94151D882341F031
:1023E000D60116969C928E92159790961C9224CFA9
:1023F0000F900F900F900F90DF91CF911F910F9141
:10240000FF90EF90DF90CF90BF90AF909F908F9014
:102410007F906F905F904F903F902F900895FA01BA
:10242000DC01A05BBF4F6C9323812370233051F4F8
:10243000228127FF2FC017972C91237024602C93A3
:1024400021E009C0223031F52281221F2227221FDC
:1024500033E0321B232F30E0A901440F551F240F16
:10246000351F280F391FD901AC5BBF4F42814F7018
:102470004C93119644814C932681FC01EE59FF4FF9
:102480003081321708F42083FC01EF5AFF4F80811E
:102490008F5F808308950F931F93CF93C82F8B0175
:1024A00090E024E0959587952A95E1F720E3280FA1
:1024B0002A3310F4822F01C0895CB8010E940921DF
:1024C000CF7080E38C0F8A3310F087E38C0FB80154
:1024D000CF911F910F910C9409214F925F926F92AF
:1024E0007F928F929F92AF92BF92CF92DF92EF92A4
:1024F0000F931F93CF93DF93CDB7DEB7A1970FB69E
:10250000F894DEBF0FBECDBF6C018B01DC011496C9
:10251000ED91FC911597858181117BC01D968C9161
:102520001D97811176C01E968C911E97811171C0E6
:102530001F968C911F9781116CC051968C918111BF
:1025400068C081AD811165C082AD811162C083AD6B
:1025500081115FC0DB0118968C911897823009F0C9
:1025600058C01C968D919C911D97419709F051C0C0
:1025700081E08583D60151968C9351978289938906
:1025800017969C938E93169752961C925297828D13
:1025900050968C9380AD8330E0F560E870E08DEC70
:1025A00097E00E941221D6011496ED91FC911597A7
:1025B00020AD30E040E050E019A25E01B1E2AB0E88
:1025C000B11C9AE0492E512C612C712CCA01B90121
:1025D000A30192010E94B031605DF50162935F0139
:1025E000211531054105510589F7309761F00190BA
:1025F0000020E9F73197AF014A195B09B5018AED6F
:1026000091E00E94681760E870E084E797E00E941C
:102610001221D60116966D917C911797F801808151
:1026200090E09B0133278217930709F03BC4218177
:1026300030E0872F992780622817390709F032C4C4
:102640005601BBE2AB0EB11C80E4F801D50101904C
:102650000D928A95E1F7F60131A922A981A992A9E3
:10266000019709F00BC2D601D3968C91813009F005
:102670004CC060E870E080E597E00E94122160E8BD
:1026800070E0F60180AD0E944B1260E870E08EE4CD
:1026900097E00E94122160E870E0D601D7968C91F5
:1026A0000E944B1260E870E086E497E00E941221DD
:1026B00060E870E0F60184AD0E944B1260E870E0C3
:1026C00084E497E00E94122160E870E0D601DB9676
:1026D0008C910E944B1260E870E082E497E00E94C7
:1026E000122160E870E0F60182AD0E944B1260E8B2
:1026F00070E080E497E00E94122160E870E0D6016B
:10270000D9968C910E944B122AC2823091F5F60123
:1027100087A990AD8131910591F484A9848781AD19
:10272000E153FF4F8083D601DA968C9131968083F6
:10273000F60180859185A285B385816015C0439798
:1027400009F00DC284A9848781ADF601ED52FF4FD7
:102750008083F60182ADEC52FF4F8083F6018085C5
:102760009185A285B385806180879187A287B38791
:10277000F6C1853091F5D601DB968D919C91DC9761
:10278000892B09F0ECC1D7968C91F601EF52FF4FDF
:10279000908189130EC0F60120ADEE52FF4F90815B
:1027A000291307C0F60180859185A285B3858260D3
:1027B000DBCFF601EB52FF4F90818913D0C1D601D8
:1027C000D8969C91319680819813C9C1F601808575
:1027D0009185A285B3858062C7CF843009F07AC025
:1027E000D601D7968C91D797F601EF52FF4F908183
:1027F000891327C0F60120ADEE52FF4F90812913B7
:1028000020C0D4962C91D49714968D919C911597B5
:10281000AC014E505F4F35E0FA0130833196208392
:1028200031962AE0208331961082F601E153FF4F62
:102830002081FC01EA50FF4F2083F601E053FF4F57
:102840002BC0F601EB52FF4F9081891388C1D6014E
:10285000D8969C9131968081981381C1F60124A964
:1028600084819581AC014E505F4F35E0DA013C9395
:10287000FC01ED50FF4F208331962AE020833196F2
:102880001082F601ED52FF4F2081FC01EA50FF4F0C
:102890002083F601EC52FF4F2081FC01E950FF4FED
:1028A00020833196108231961082319610823196B3
:1028B0001082319621E02083319622E020833196E8
:1028C00030EA308331962083E12C01E02EE00E9433
:1028D000A80E45C1863009F0A1C0F60187A94601BE
:1028E000F1ED8F0E911CD4019C9189133BC08601A0
:1028F0000E521F4FF60120ADD8019C91291332C012
:1029000060E870E08AE197E00E941221F60124A9B4
:1029100024876681778184819581AC014E505F4F19
:1029200037E0DA013C93FC01ED50FF4F20833196F4
:1029300024E0208331961082F4012081FC01EA50CA
:10294000FF4F2083D8012C9131962083F601E1536B
:10295000FF4F2081FC01E850FF4F2083F601E05338
:10296000FF4F49C04601B5ED8B0E911CF4019081DB
:102970008913F5C086010A521F4FD601D8969C9143
:10298000F80180819813EBC060E870E082EF96E078
:102990000E941221D601D4962C91D4971C962C9388
:1029A0001C9716966D917C91179714968D919C911A
:1029B0001597AC014E505F4F37E0FA0130833196E6
:1029C0002083319624E0208331961082D4012C910B
:1029D00031962083F8012081FC01E950FF4F2083CC
:1029E000F601ED52FF4F2081FC01E850FF4F20839C
:1029F000F601EC52FF4F2081FC01E750FF4F20838E
:102A0000E12C01E028E00E94A80ED601ED91FC9196
:102A10000480F581E02DC6010995A1C0873009F039
:102A20009EC0F60187A9E153FF4F9081891310C022
:102A3000D601D8962C9131969081291309C0F601C0
:102A400084A9848780859185A285B38588608CCE92
:102A5000F601ED52FF4F9081891381C0D601D896BF
:102A60009C913196808198137AC0F60184A984875D
:102A700080859185A285B385806876CEF601EB527C
:102A8000FF4F808138136BC031968081281367C057
:102A9000D6011D968C911D9781110AC01E968C91AE
:102AA0001E97811105C01F968C91882309F457C089
:102AB000F60183A9813A09F052C00E94B320D601E1
:102AC00053966D937D938D939C9356971D968C9101
:102AD0001D97811104C01F968C91882341F0F60147
:102AE00020AD86A997A9A0E0B0E0A22B11C0D60125
:102AF0001E968C911E97882379F0D7962C91D797A4
:102B0000D5968D919C91D697A0E0B0E0A22BF601CE
:102B1000878B908FA18FB28FD60157964D915D9183
:102B20006D917C915A975B968D919D910D90BC9182
:102B3000A02D481759076A077B0789F08095909563
:102B4000A095B09584239523A623B723F601878FFC
:102B500090A3A1A3B2A3438F548F658F768FF60104
:102B60008289853009F466C130F4882371F084309D
:102B700009F46AC097C1883009F4F0C0893009F4BB
:102B800010C1863009F08EC16EC0808580FF8AC179
:102B900060E870E088EC96E00E9412215601BFECDC
:102BA000AB0EB11C4601E1ED8E0E911CD6011696BE
:102BB0006D917C911797EE24E394850194011C9606
:102BC0004C911C9714968D919C9115970E949F2A69
:102BD00061E070E080E090E00E947920F60166817B
:102BE0007781E12C94014485848195810E949F2AFC
:102BF000D6011C968C911C978F5F1C968C9361E07C
:102C000070E080E090E00E947920F60124856681E2
:102C1000778184819581AC014E505F4F14E0DA01D9
:102C20001C93FC01ED50FF4F2083319628E0208358
:102C300031961082F5012081FC01EA50FF4F20837C
:102C4000F601E053FF4F6EC0F601808581FF2AC177
:102C500060E870E082EA96E00E94122186E0D601E8
:102C600052968C931FC1F601808584FF1BC160E8DA
:102C700070E086E796E00E9412215601F3EDAF0E58
:102C8000B11C460185ED880E911CD60116966D91FA
:102C90007C911797EE24E394850194011C964C9146
:102CA0001C9714968D919C9115970E949F2A61E024
:102CB00070E080E090E00E947920F60166817781E3
:102CC000E12C94014485848195810E949F2AD6013C
:102CD0001C968C911C978F5F1C968C9361E070E022
:102CE00080E090E00E947920F6012485668177815A
:102CF00084819581AC014E505F4F34E0DA013C9302
:102D0000FC01ED50FF4F2083319618E0108331967F
:102D10001082F5012081FC01EA50FF4F2083F6016B
:102D2000EC52FF4F2081FC01E950FF4F2083319688
:102D3000108231961082319621E02083319622E074
:102D4000208331962FEF20833196208301E02CE001
:102D50000E94A80ED60152961C93A4C0F60180854D
:102D600085FFA0C060E870E08EE496E00E9412212A
:102D7000D60150968C9150978D3439F480E4F5014A
:102D800011928A95E9F781E102C082E1D60152965B
:102D90008C930E94B320F60163A374A385A396A32A
:102DA00081C0808587FF7EC060E870E08DE296E09C
:102DB0000E941221F60124852F5F24876681778186
:102DC00084819581AC014E505F4F36E0DA013C932F
:102DD000FC01ED50FF4F2083319624E02083319693
:102DE0001082F601E153FF4F2081FC01EA50FF4FB2
:102DF0002083F601E053FF4F2081FC01E950FF4F93
:102E00002083F601EF52FF4F2081FC01E850FF4F75
:102E10002083F601EE52FF4F2081FC01E750FF4F67
:102E20002083E12C01E028E00E94A80E85E0F60155
:102E3000828B38C0808583FF35C060E870E08EE00B
:102E400096E00E941221F6013681278184819581C6
:102E5000FC01E159FF4F408151814B7F51834083F9
:102E6000BC016E587F4F46E0DB014C93349644E042
:102E70004083319643E040833196308331962F7002
:102E80002083319623E1208346E050E00E94D7283A
:102E90008FEF9FEFF6019783868310861186128647
:102EA0001386128AA1960FB6F894DEBF0FBECDBF6F
:102EB000DF91CF911F910F91EF90DF90CF90BF9056
:102EC000AF909F908F907F906F905F904F900895FC
:102ED000CF92DF92EF92FF920F931F93CF93DF93E6
:102EE0006C017A018B01C0E0D0E0CE15DF0581F0E6
:102EF000D8016D918D01D601ED91FC910190F08189
:102F0000E02DC6010995892B11F02196EECF7E01A7
:102F1000C701DF91CF911F910F91FF90EF90DF904C
:102F2000CF900895FC01538D448D252F30E0842FE0
:102F300090E0821B930B541710F0CF9608950197E1
:102F40000895FC01918D828D981761F0828DDF01CB
:102F5000A80FB11D5D968C91928D9F5F9F73928F8C
:102F600090E008958FEF9FEF0895FC01918D828D81
:102F7000981731F0828DE80FF11D858D90E008954E
:102F80008FEF9FEF08950E94F3318AED91E00E9448
:102F9000F61E21E0892B09F420E0822F0895EF929C
:102FA000FF920F931F93CF93DF93EC0181E0888F03
:102FB0009B8D8C8D981305C0E889F989808185FDEA
:102FC00026C0F62E0B8D10E00F5F1F4F0F731127D9
:102FD000E02E8C8DE8120CC00FB607FCFACFE88902
:102FE000F989808185FFF5CFCE010E94C31FF1CF03
:102FF0008B8DFE01E80FF11DE35AFF4FF0829FB762
:10300000F8940B8FEA89FB89808180620AC09FB7A0
:10301000F894EE89FF896083E889F989808183705B
:10302000806480839FBF81E090E0DF91CF911F910A
:103030000F91FF90EF900895CF93DF93EC01888D6F
:103040008823C9F0EA89FB89808185FD05C0A889AC
:10305000B9898C9186FD0FC00FB607FCF5CF808132
:1030600085FFF2CFA889B9898C9185FFEDCFCE017C
:103070000E94C31FE7CFDF91CF9108951F920F9257
:103080000FB60F9211242F933F934F935F936F933B
:103090007F938F939F93AF93BF93EF93FF938AEDAB
:1030A00091E00E94C31FFF91EF91BF91AF919F915B
:1030B0008F917F916F915F914F913F912F910F90E1
:1030C0000FBE0F901F9018951F920F920FB60F9280
:1030D00011242F938F939F93EF93FF93E091EA0135
:1030E000F091EB018081E091F001F091F10182FD1E
:1030F00012C090818091F3018F5F8F732091F40152
:10310000821751F0E091F301F0E0E652FE4F958F07
:103110008093F30101C08081FF91EF919F918F9186
:103120002F910F900FBE0F901F901895FC016C35DA
:103130008AE0780729F4483E91E2590749F42BC008
:103140006D3085E0780721F44A3596E0590719F18A
:10315000848581110FC0858581110CC08685811100
:1031600009C08785811106C08089811103C08189CA
:10317000882379F06C34754061F4483692E0590741
:1031800051F04F3284E0580731F081E0453D534023
:1031900019F080E0089581E0089581E0603E09F033
:1031A00080E008958D599F4FFC01808108958D5BCB
:1031B0009F4FFC0180810895089581E0089580E08B
:1031C000089580E00895089580E0089580E00895CE
:1031D0002F923F924F925F926F927F928F929F9227
:1031E000AF92BF92CF92DF92EF92FF920F931F9315
:1031F000CF93DF93CDB7DEB7AE970FB6F894DEBFAF
:103200000FBECDBF3C01D22EFC01E95BFF4F2081F8
:103210002CA710821C0181E4280E311CD1010D91D4
:103220001C912301B3E44B0E511CD801ED91FC918C
:103230000190F081E02DD2016C91C80109957C01CB
:10324000892B29F460E870E084E09BE032C06CE2F6
:1032500071E080E090E00E947920F201408160E01E
:10326000D1018D919C910E94AF24B82E882371F0DA
:1032700060E870E088EF9AE00E94122160E870E058
:103280008B2D0E944B12F70114821FC2D701149696
:103290001C92D801ED91FC910190F081E02DD201BA
:1032A0006C91C8010995009741F460E870E084EEE4
:1032B0009AE00E94122186ED26C2FC01D482C3014D
:1032C0008C5B9F4F9BA78AA7892B09F419C2D20157
:1032D0001C91612FF101808191810E948A1FFC0164
:1032E000892B09F4BBC112838AA59BA59183808396
:1032F00081E08383630190E6C90ED11CD6018D91D4
:103300009C918C34954089F48301025A1F4FF80137
:10331000808191818836F2E09F07C1F08F3224E0EE
:103320009207A1F0853D934089F0A12CF3013296DC
:103330007F018E010F5E1F4F4301FEE58F0E911C32
:10334000C3018F5A9F4F9EA78DA734C164E670E0DA
:1033500080E090E00E94792021E0AAA5BBA54C91D5
:10336000F2016081D1018D919C910E94082AB82EB2
:10337000811182C1F801808191818836F2E09F0736
:1033800041F08F32944051F460E870E08FE99AE0A8
:1033900009C060E870E081EC9AE004C060E870E089
:1033A00081E89AE00E941221D3011C968C911C970F
:1033B00081111FC01D968C911D9781111AC01E96F8
:1033C0008C911E97811115C01F968C911F978111AA
:1033D00010C050968C91509781110BC051968C91D2
:1033E000811107C060E870E083EF99E00E9412212C
:1033F0008DC0F80180819181A301445F5F4F8836C1
:10340000F2E09F0719F08F32944049F581E08983FB
:103410001A82D3015296CE0103962E91FC0121937C
:10342000CF01A417B507C9F71F921F92CE010196CD
:103430009F938F9378E0872E912CE8E0AE2EB12CED
:10344000F3E0CF2EA5EFEA2E09E021E2AAA5BBA565
:103450004C91F2016081D1018D919C912EC085E04B
:10346000898380E1888781E0898782E08A8782E199
:103470008B87FA01DE011296CE01089621912D93D9
:103480008A179B07D9F71F921F92CE0101969F932F
:103490008F933BE0832E912C4BE0A42EB12C53E074
:1034A000C52E65E0E62E09E021E2EAA5FBA54081F4
:1034B000D2016C91F101808191810E94D0230F9003
:1034C0000F900F900F9060E870E082ED99E00E94FD
:1034D000122183010E5E1F4F7301FDE0EF0EF11C00
:1034E00060E870E0D8018E918D010E944B1260E877
:1034F00070E080ED99E00E941221E016F10681F75C
:1035000060E870E0F30184850E944B1220E0AAA5D8
:10351000BBA54C91F2016081D1018D919C910E94DB
:10352000082A40E0F2016081D1018D919C910E94B6
:10353000AF24D301ED91FC910480F581E02DC3010E
:10354000099581EDE0C0F601808191818C35FAE02A
:103550009F07A1F5D4018D919C91883E9142B9F5C8
:10356000E4E0F1E0FA83E983FC82EB821E86188AAC
:103570001F8619A21AA21BA219A61F830E831987E0
:1035800008878D818B878A871D870C879E012F5F17
:103590003F4F4A2DD2016C91F101808191810E94AF
:1035A000292AB82E811161C0ADA5BEA58C918430A9
:1035B00098F4A394BCA5AB12C6CF0EC08D30954035
:1035C00031F4D4018D919C918A35964049F28AE07C
:1035D00091E09A838983C8CFF301EF5AFF4F10819E
:1035E000143008F44EC0F2010081602FD1018D919A
:1035F0009C910E948A1FFC01892B81F102838AA57C
:103600009BA5918380831383F301E05BFF4F2081AF
:10361000DC014C91F2016081D1018D919C910E945D
:10362000082AB82E811128C0F301E359FF4F84E620
:1036300090E09183808332971182108231971082BB
:10364000F3011482ED59FF4F81E0808360E870E060
:1036500081EB99E00E94122180E055C026EDB22E48
:1036600060E870E08FE399E004C060E870E08EE409
:1036700099E00E94122129C060E870E089E599E094
:10368000F8CFF301E25AFF4F00811181D601ED908E
:10369000FC9060E870E08BE699E00E941221C7017F
:1036A0000E94E42960E870E084E699E00E9412211B
:1036B000C8010E94E42940E0F2016081D1018D91AE
:1036C0009C910E94AF2491EDB92E60E870E081E9F1
:1036D00099E00E94122160E870E08B2D0E944B124D
:1036E00060E870E08EE899E00E941221D301ED912C
:1036F000FC910480F581E02DC30109958B2D03C059
:1037000088EDB82EADCFAE960FB6F894DEBF0FBEE3
:10371000CDBFDF91CF911F910F91FF90EF90DF9080
:10372000CF90BF90AF909F908F907F906F905F9061
:103730004F903F902F900895EF92FF920F931F9319
:10374000CF93DF93EC01AC014C5B5F4F80E090E0E6
:10375000DA011C92382F811102C028E001C020E05C
:10376000FA012183FC01EE0FFF1FDF01A80FB91F33
:10377000AC0FBD1FAA5BBF4F2C912E7F2D7F2C93CA
:10378000311102C02FE001C021E0E80FF91FEC0F5A
:10379000FD1FEA5BFF4F220F220F30813370232B76
:1037A000208301964D5F5F4F8430910589F68E012D
:1037B0000A5A1F4F7E01FEE5EF0EF11CD8018D91D4
:1037C0009D918D01009739F0DC01ED91FC91048011
:1037D000F581E02D09950E151F0581F719AE1AAE7A
:1037E0001EAE1FAEFE01EA59FF4F1082B397108242
:1037F0003E9681E08083319610821182128213827C
:1038000070961082CD59DF4F1882DF91CF911F91B2
:103810000F91FF90EF9008952F923F924F925F92F9
:103820006F927F928F929F92AF92BF92CF92EF92C0
:10383000FF920F931F93CF93DF93CDB7DEB76897B7
:103840000FB6F894DEBF0FBECDBF3C01162FF42E8D
:10385000022F0E949C1BC3018D5B9F4F9C8B8B8B07
:10386000DC018C91882341F060E870E08EE299E001
:103870000E94122189EDC1C0F301EF5BFF4FFE8B67
:10388000ED8B20803180D101ED91FC910190F08190
:10389000E02D60E0C10109952C01009741F460E83A
:1038A00070E08AE199E00E94122186EDA6C0FC0139
:1038B0000190F081E02DF88FEF8BEF2B41F460E861
:1038C00070E089E099E00E94122187ED96C0C30163
:1038D0008C5B9F4FD20111969C938E9314960C9300
:1038E0001F921F92CE0101969F938F9382E1882EA3
:1038F000912C92E1A92EB12CCC24C394E12C06E0AA
:1039000020E840E060E0ED89FE89808191810E949D
:10391000D023082FEF89F88DD201ED93FC930F90FF
:103920000F900F900F90811149C0D101ED91FC9142
:103930000280F381E02D2F2D40E0612FC101099518
:10394000EB89FC898083811108C060E870E082EF18
:1039500098E00E94122184ED50C08D818930A1F041
:10396000F301EB5BFF4F8885808332968A898083E1
:10397000799689859A859183808332978B859C85FA
:103980009183808380EE39C060E870E080EB98E03E
:103990000E94122140E0AB89BC896C91ED89FE89BF
:1039A000808191810E94AF24D301ED91FC9104802C
:1039B000F581E02DC301099581ED1FC060E870E03D
:1039C00081EA98E00E94122160E870E0802F0E9456
:1039D0004B1260E870E08EE899E00E9412210D30F1
:1039E00011F41DE001C011EED301ED91FC910480B2
:1039F000F581E02DC3010995812F68960FB6F894E3
:103A0000DEBF0FBECDBFDF91CF911F910F91FF9011
:103A1000EF90CF90BF90AF909F908F907F906F90DE
:103A20005F904F903F902F900895CF93DF93FC01CC
:103A3000DA018281882319F0813029F01FC0348394
:103A4000238381E08283838194810097B1F02D915B
:103A50003C911197232B91F0019794838383EB0181
:103A6000888199810196998388838D919C91119782
:103A7000019711969C938E93E6CF128281E0238169
:103A80003481232B09F080E0DF91CF910895CF920C
:103A9000DF92EF92FF92CF93DF93EC01603282E0EE
:103AA00078070CF03DC077FD06C0653B71052CF032
:103AB00064EB70E002C060E070E0898128E830E0EB
:103AC0006901C81AD10887FDD394CC0CDD1CCC0C3D
:103AD000DD1C0D2C000CEE08FF088A8128E532E081
:103AE000281B310987FD3395220F331F220F331F07
:103AF000C901330FAA0BBB0B9C01AD012C193D0969
:103B00004E095F09DB010E94A83124EB30E040E060
:103B100050E00E947E31C20ED31EE41EF51EB60197
:103B200038813C3080F5298188E890E0821B91093A
:103B300027FD9395880F991F880F991F681779079C
:103B400084F08A8148E552E0481B510987FD53956E
:103B5000440F551F440F551FCB01461757070CF450
:103B6000CA010297880F991F4FB7F894232F30E0AE
:103B7000F901EE0FFF1F2E0F3F1FF901E958FD4F0E
:103B8000928381834FBFDF91CF91FF90EF90DF90C1
:103B9000CF9008951F93CF93DF93EC01162F888168
:103BA0008C3008F04EC061E0812F0E943D2088815A
:103BB000E82FF0E09F01220F331FE20FF31FE958B7
:103BC000FD4F1F739081907C192B108319821A82EC
:103BD0006CE00E94E1319CE0899FB001112440E03B
:103BE00050E09B01240F351FF901EE0FFF1F2E0F30
:103BF0003F1FF901E958FD4F908196FD16C04F5FB8
:103C00005F4F4C30510569F781110FC01092800051
:103C100082E0809381001092850010928400B19A16
:103C200080916F00826080936F00E881F0E0CF01A7
:103C3000880F991FE80FF91FE958FD4F80818064B4
:103C400080838881DF91CF911F9108951F920F92F9
:103C50000FB60F9211242F933F934F935F936F935F
:103C60007F938F939F93AF93BF93EF93FF93809135
:103C7000CF0187FF05C010928500109284001BC001
:103C80002091CF01022E000C330B80919B0290E01B
:103C90002817390784F48091CF01082E000C990B66
:103CA000FC01EE0FFF1F8E0F9F1FFC01E958FD4F17
:103CB000808186FD15C08091CF018F5F8093CF01F9
:103CC0002091CF01022E000C330B80919B0290E0DB
:103CD00028173907C4F48091CF018C3064F113C0E8
:103CE0008091CF01082E000C990BFC01EE0FFF1FF5
:103CF0008E0F9F1FFC01E958FD4F808160E08F739C
:103D00000E940E20D8CF8091840090918500049667
:103D10008A309A4118F48AE09AE105C080918400C3
:103D200090918500049690938900809388008FEF8E
:103D30008093CF013BC02091840030918500809119
:103D4000CF01082E000C990BFC01EE0FFF1F8E0F08
:103D50009F1FFC01E958FD4F81819281820F931FC3
:103D600090938900809388008091CF01082E000CE9
:103D7000990BFC01EE0FFF1F8E0F9F1FFC01E958EE
:103D8000FD4F808186FF12C08091CF01082E000C6C
:103D9000990BFC01EE0FFF1F8E0F9F1FFC01E958CE
:103DA000FD4F808161E08F730E940E20FF91EF91A3
:103DB000BF91AF919F918F917F916F915F914F9143
:103DC0003F912F910F900FBE0F901F9018952A983A
:103DD00008952A9A089508958EBD00000DB407FE37
:103DE000FDCF8EB508958CBD9DBD0895FC01918DCC
:103DF000228D892F90E0805C9F4F821B91098F73E9
:103E00009927089580E090E0892B29F00E94C5173A
:103E100081110C94000008953FB7F8948091D5016A
:103E20009091D601A091D701B091D80126B5A89B59
:103E300005C02F3F19F00196A11DB11D3FBFBA2F3C
:103E4000A92F982F8827820F911DA11DB11DBC019C
:103E5000CD0142E0660F771F881F991F4A95D1F761
:103E60000895CF93DF93FC01862F8078A9F4283042
:103E700008F04DC0442321F09581973009F447C0E4
:103E8000EF01A1E0B0E09D85992341F011962596C0
:103E9000A031B105C1F73BC080E039C061111CC041
:103EA00085E08A9FE0018B9FD00D1124CE0FDF1F8C
:103EB000442331F081E4888785818F5F858302C048
:103EC00081E0888725E02A9FC0012B9F900D112457
:103ED000E80FF91F80851BC06770660F660F660FBD
:103EE000442341F0606485818F5F85838770687F9C
:103EF000682B03C02770687B622B25E02A9FC001D6
:103F00002B9F900D1124E80FF91F6087862FDF91FA
:103F1000CF910895611102C006960895FC0121E039
:103F20003585631739F02F5F35962031C9F780E06A
:103F300090E00895069635E0239F800D911D112491
:103F40000895FC01613499F49C01255B3F4F61E0C9
:103F5000AC014E5F5F4F158666871786548743878F
:103F60003596E217F307B9F7FC011582089521E0B1
:103F70003585631729F02F5F35962031C9F70895ED
:103F8000622F0C94F322FC01848DDF01A80FB11D78
:103F9000A35ABF4F2C91848D90E001968F7399277F
:103FA000848FA689B7892C93A089B1898C9183705D
:103FB00080648C93938D848D981306C00288F38956
:103FC000E02D80818F7D80830895833081F028F4F7
:103FD000813099F08230A1F008958730A9F08830BF
:103FE000B9F08430D1F4809180008F7D03C080913E
:103FF00080008F7780938000089584B58F7702C00A
:1040000084B58F7D84BD08958091B0008F7703C003
:104010008091B0008F7D8093B00008951F93CF935F
:10402000DF93282F30E0F901E45CF44F8491F9012B
:10403000E357F74FD491F901E758F74FC491CC23D8
:10404000C1F0162F81110E94E51FEC2FF0E0EE0F5A
:10405000FF1FEE5CF44FA591B4919FB7F894111136
:1040600004C08C91D095D82302C0EC91DE2BDC9358
:104070009FBFDF91CF911F910895CF93DF9390E081
:10408000FC01E357F74F2491FC01E758F74F849167
:10409000882361F190E0880F991FFC01EF5CF74FD6
:1040A000C591D491FC01EE5CF44FA591B4916111DE
:1040B00009C09FB7F8948881209582238883EC916A
:1040C0002E230BC0623061F49FB7F8948881322FA1
:1040D000309583238883EC912E2B2C939FBF06C0B1
:1040E0008FB7F894E8812E2B28838FBFDF91CF9173
:1040F00008958F929F92AF92BF92CF92DF92EF92EC
:10410000FF926B017C010E940C1F4B015C01C114EA
:10411000D104E104F104F1F00E940C1FDC01CB0199
:1041200088199909AA09BB09883E9340A105B105E0
:1041300070F321E0C21AD108E108F10888EE880E78
:1041400083E0981EA11CB11CC114D104E104F10448
:1041500019F7DDCFFF90EF90DF90CF90BF90AF9039
:104160009F908F9008952FB7F8946091D10170912E
:10417000D2018091D3019091D4012FBF08951F9255
:104180000F920FB60F9211242F933F938F939F930B
:10419000AF93BF938091D1019091D201A091D301AF
:1041A000B091D4013091D00123E0230F2D3720F4BA
:1041B0000196A11DB11D05C026E8230F0296A11D81
:1041C000B11D2093D0018093D1019093D201A0938F
:1041D000D301B093D4018091D5019091D601A091E3
:1041E000D701B091D8010196A11DB11D8093D501D1
:1041F0009093D601A093D701B093D801BF91AF910E
:104200009F918F913F912F910F900FBE0F901F9014
:104210001895613871052CF4682F8AED91E00C94A3
:10422000CF1708950F931F93CF93DF9361387105D4
:1042300074F4009761F08B01FC018491EF012196E9
:10424000882329F0B8010E940921FE01F6CFDF91F1
:10425000CF911F910F910895CF93DF93FC01EB0154
:1042600080819181892B39F560E870E088E19BE0DD
:104270000E94122124C0DA012D913C91232BF9F0E8
:10428000A881B9819C91A381B0E0A81BB1092081CC
:104290003181A20FB31F9C93828181508283DA0106
:1042A0008D919C91119701978D939C938881998111
:1042B00001969983888382818111DDCF02C080E0DD
:1042C00003C08381828381E0DF91CF910895CF93F2
:1042D000C82F80E591E00E94F31E0E94E71E8C2FFC
:1042E0000E94EC1E80E00E94EC1EC82F0E94E91E76
:1042F0000E94EB1E8C2FCF910895FC0120812EBDD2
:104300009B012150310941F051810DB407FEFDCFD1
:104310004EB55EBD4193F5CF61507109FC01E60FCA
:10432000F71F0DB407FEFDCF8EB5808308950F9360
:104330001F93CF93DF93C82FD62F8A0180E591E09A
:104340000E94F31E0E94E71E8C2F82600E94EC1ECA
:10435000CD2FD0E0209721F0BE01C8010E947D2121
:10436000C00FD11F0E94E91E0E94EB1ECE01DF91FB
:10437000CF911F910F9108950F931F93CF93DF93C8
:1043800000D0CDB7DEB7182F062F80E591E00E9450
:10439000F31E0E94E71E126019830A8362E070E038
:1043A000CE0101960E947D210E94E91E0E94EB1E13
:1043B0000F900F90DF91CF911F910F9108958F92E1
:1043C0009F92AF92BF92CF92DF92EF92FF920F93A4
:1043D0001F93CF93DF93862E942E59010E94B32012
:1043E0006B017C0128E8C20E23E1D21EE11CF11C06
:1043F00000E010E0D0E0C0E098280E94B320DC018B
:10440000CB018C199D09AE09BF09B7FF2DC0692DDD
:1044100080EF0E94BC210E94B320DC01CB018C19EB
:104420009D09AE09BF09B7FF09C088EC0E9467214A
:1044300087FFF1CF60E888EC0E94BC2188EF0E94E2
:104440006721C82FCF70C43019F0CE3051F00CC0A6
:104450000F5F1F4FA114B10481F20A151B0569F605
:1044600003C0DF5FD33049F68C2FDF91CF911F91CE
:104470000F91FF90EF90DF90CF90BF90AF909F9003
:104480008F9008950F931F93880F991F880F991F7E
:10449000FC01EC7FF370E05BF44F059115912591E1
:1044A00034918091C2029091C302A091C402B09154
:1044B000C502B901A80140955095609570954823B3
:1044C00059236A237B234093C2025093C302609313
:1044D000C4027093C50280239123A223B32321E059
:1044E000892B8A2B8B2B09F420E0822F1F910F91AF
:1044F0000895880F991F880F991FFC01EC7FF370B6
:10450000E05BF44F45915591659174918091BA02A9
:104510009091BB02A091BC02B091BD0248235923E7
:104520006A237B2381E0452B462B472B09F480E04F
:104530000895CF93DF93EC0161E083E00E943D207A
:10454000209711F460E004C0CF3FD10531F461E061
:1045500083E0DF91CF910C940E20EFE3FBE0E49138
:10456000E330F9F048F4E130B9F0E230A1F584B578
:10457000806284BDC8BD34C0E730E9F0E83019F18D
:10458000E43049F580918000806280938000D09370
:104590008B00C0938A0024C084B5806884BDC7BDE9
:1045A0001FC080918000806880938000D093890034
:1045B000C093880015C08091B00080688093B000DF
:1045C000C093B3000DC08091B00080628093B000B2
:1045D000C093B40005C0C038D1050CF0B8CFB2CF3D
:1045E000DF91CF910895DF92EF92FF920F931F9387
:1045F000CF93DF93EC01E62EF12C85E0689FB001AC
:104600001124FE01E60FF71F8085182F177086FF13
:1046100017C001E085E0D82EFE01D09EE00DF11D0F
:104620001124808586958695869587701817F9F0F0
:104630000F5F003189F78D81811302C011501D83F6
:1046400085E08E9DF0018F9DF00D1124EC0FFD1F74
:10465000108681E0818712862296D783C683DF91F8
:10466000CF911F910F91FF90EF90DF900895602FF1
:10467000CE010E94F322D0CF0F931F93CF93DF93ED
:104680008C01C0E0D0E0F801EC0FFD1F64916623BF
:1046900041F08AED91E00E94CF17892B11F021960D
:1046A000F2CFCE01DF91CF911F910F9108956F92BC
:1046B0007F928F929F92AF92BF92CF92DF92EF92B2
:1046C000FF920F931F93CF93DF93EC01B62EA42E8E
:1046D00079010E948A1F6C01009709F44DC0DC012A
:1046E000ED91FC911197309709F448C013969C9175
:1046F00080E0981731F02081A21629F033968F5F61
:10470000F8CFE0E0F0E0D701ED93FC933097C1F1F2
:1047100082818695869590E08031910514F08FE036
:1047200090E041E050E060E070E03A014B0104C0ED
:10473000660C771C881C991C8A95D2F7D401C3019A
:104740000197D8018D939C936B2D80EE0E94BC2124
:1047500088ED0E946721F6019481992331F0CA58AF
:10476000DF4F68816260682B02C0682F697F88ED27
:104770000E94BC2180E005C086ED03C087ED01C02A
:104780008BEDDF91CF911F910F91FF90EF90DF9014
:10479000CF90BF90AF909F908F907F906F90089533
:1047A0002F923F924F925F926F927F928F929F9241
:1047B000AF92BF92CF92DF92EF92FF920F931F932F
:1047C000CF93DF93CDB7DEB760970FB6F894DEBF17
:1047D0000FBECDBF3C01F42ED22E302E4DA05EA0D8
:1047E000188A1F861E861D868E01035F1F4F9E013D
:1047F000215F3F4F0E945723811198C0D9823A828E
:10480000EB82CC821E821D82B886AF82AE014F5FE2
:104810005F4F68E080E20E9497212D853E854F2DF5
:1048200060E1C3010E94DF21E82E81117BC08D2D44
:104830008078382E4114510409F465C0EF85F88959
:104840008281332009F450C0826082836501222472
:104850002394C114D10409F45BC09C868B864D85DA
:104860005E856F857889E12C82019E01255F3F4F2F
:10487000C3010E947B27E82E96E0891312C00F85A2
:10488000188988EF0E94672185FB882780F9822597
:10489000D80112969C91129780FB91F912969C93E5
:1048A000D8CF81113FC0EFA1F8A53097A1F00190BA
:1048B000F081E02D0190F081E02DC5018C199D095A
:1048C0009A8789876B857C859E01275F3F4FA20170
:1048D0008FA198A509958B859C85C81AD90A88153A
:1048E000990508F0B6CF0FC0816082834D855E8543
:1048F00082019401BF01C3010E948826811116C064
:104900002D853E8511C02D853E85311005C00CC01A
:10491000E11008C02D853E8560EA4F2DC3010E943D
:10492000DF2104C08E2D02C060E8F7CF60960FB67D
:10493000F894DEBF0FBECDBFDF91CF911F910F91D5
:10494000FF90EF90DF90CF90BF90AF909F908F90AF
:104950007F906F905F904F903F902F9008958F922F
:104960009F92AF92BF92CF92EF920F93CF931F92ED
:104970001F921F921F92812C912CA12CB12CC12C23
:10498000E42E05E020E040E00E94D023C82F6CE236
:1049900071E080E090E00E9479200F900F900F90DE
:1049A0000F908C2FCF910F91EF90CF90BF90AF9041
:1049B0009F908F900895CF92DF92FF920F931F9355
:1049C000CF93DF93F62ED0E0082F10E0000F111FD9
:1049D00000531C4F6801D8018D919C91DC01ED9131
:1049E000FC910280F381E02D2F2D40E060E00995DD
:1049F000803E59F461E088EE0E94BC2166E670E0DA
:104A000080E090E00E94792007C08D3019F4D33007
:104A100058F514C081112BC0F60180819181DC0111
:104A2000ED91FC910190F081E02D2F2D40E060E0B0
:104A30000995C82F8D3051F4D33050F464E670E0FE
:104A400080E090E00E947920DF5FC5CF882371F07D
:104A500061E088EE0E94BC2166E670E080E090E0B4
:104A60000E9479208C2F03C08DE001C080E0DF918F
:104A7000CF911F910F91FF90DF90CF90089588EF15
:104A80000E946721807C8034A1F018F4882301F112
:104A90000895803819F0803CB9F0089588ED0E949F
:104AA000672181FD0BC069EC88ED0E94BC2182E08A
:104AB0000CC088ED0E94672181FDF5CF6BEC88ED7D
:104AC0000E94BC2183E001C081E08093D901089558
:104AD00061ED88ED0E94BC211092D901089580E01B
:104AE00090E00895DC011296ED91FC9113973097B8
:104AF00009F00994FC012685222369F0E056FF4F56
:104B00002FEF20833196108231961082BC016356BC
:104B10007F4F0C942C2BE0E0FCE0E491DC01AA58E0
:104B2000BF4FEF70EE0F2C91E22BEC93BC01655957
:104B30007F4F42E30C94DC2ACF92DF92EF92FF92F8
:104B40000F931F93CF93DF9300D000D000D0CDB749
:104B5000DEB78C01DC0152968C91813109F443C09F
:104B6000823121F0813009F0C3C09BC00E94B32084
:104B7000F801C3A0D4A0E5A0F6A0DC01CB018C19FC
:104B80009D09AE09BF09893E9340A105B1050CF40A
:104B9000AFC0F801BB9680E4DF011D928A95E9F76A
:104BA0008FE7F80182AF83AF84AF85AF83E5898358
:104BB00084EF8A8382E48B8383E08C831D821E8250
:104BC00046E0BE016F5F7F4FC8010E94DC2A81E191
:104BD000D80152968C930E94B320F80163A374A36A
:104BE00085A396A385C00E94B320D8019396CD904B
:104BF000DD90ED90FC909697DC01CB018C199D091E
:104C0000AE09BF09893E9340A105B1050CF470C0FF
:104C1000D80150968C91803551F460E870E08CEDAD
:104C20009BE00E94122181E0F801858720C08E342C
:104C300059F460E870E08AEB9BE00E94122181E069
:104C4000D8011F968C9313C08D3489F40E94B32031
:104C5000F80163A374A385A396A360E870E08CE9D0
:104C60009BE00E94122181E0D8011E968C93F801EE
:104C7000178A108E118E128E138E148E158E168E2C
:104C8000178E10A211A212A20190F081E02D0084D3
:104C9000F185E02DC801099581E0D80152968C93E9
:104CA00027C0F8018685882319F10E94B320D80116
:104CB0009396CD90DD90ED90FC909697DC01CB0122
:104CC0008C199D09AE09BF09813A9F40A105B10524
:104CD0007CF0B80163567F4FC8010E942C2B0E94C4
:104CE000B320D80193966D937D938D939C93969763
:104CF00026960FB6F894DEBF0FBECDBFDF91CF91E1
:104D00001F910F91FF90EF90DF90CF90089508953D
:104D10002F923F924F925F926F927F928F929F92CB
:104D2000AF92BF92CF92DF92EF92FF920F931F93B9
:104D3000CF93DF9300D000D01F92CDB7DEB77D8335
:104D40006C834A016901FB01F1808FEF8F0D803484
:104D500008F074C00E94B3202B013C01F8E84F0E0C
:104D6000F3E15F1E611C711CEC81FD81828180FD7D
:104D700002C060E401C060E888EE0E94BC21312CD2
:104D80008F2D90E09A838983C114D10409F448C01F
:104D9000E980FA80CE14DF0408F47601EB82A801E2
:104DA0006E2D80E10E9497216E2D88E30E94BC2128
:104DB000EC81FD816081606280EF0E94BC2188EC03
:104DC0000E94672187FFFBCF60E888EC0E94BC212E
:104DD00088EF0E9467218F70382EA12CB12C212CD6
:104DE000332009F46BC00E94B320DC01CB0184198D
:104DF0009509A609B709B7FF61C0F6E03F1601F1B2
:104E00002EE0321609F455C084E0381209C0FFEFD5
:104E1000AF1ABF0A8114910449F1A814B90431F5FD
:104E200088EF0E94672185FB882780F9EC81FD814E
:104E3000928180FB90F99283832D45C08AED43C017
:104E400088EF0E94672185FB882780F991E08927F8
:104E5000EC81FD81928180FB90F9928390FD02C0EC
:104E600060E401C060E888EE0E94BC2160E088E355
:104E70000E94BC21F801608180E10E94BC216B810D
:104E800088E30E94BC21EC81FD816081606280EF3B
:104E90000E94BC2188EC0E94672187FFFBCF60E85D
:104EA00088EC0E94BC2188EF0E9467218F70382E09
:104EB00097CF239423E02212D9CFB2CFCE18DF08A8
:104EC0000E0D1F1D61CF0F900F900F900F900F9040
:104ED000DF91CF911F910F91FF90EF90DF90CF90D6
:104EE000BF90AF909F908F907F906F905F904F900A
:104EF0003F902F9008952F923F924F925F926F9222
:104F00007F928F929F92AF92BF92CF92DF92EF9259
:104F1000FF920F931F93CF93DF93CDB7DEB72997FF
:104F20000FB6F894DEBF0FBECDBF1C016B015B83D3
:104F30004A835901D9016D907C901197FB01F18151
:104F4000F9831D921C92DB0112968C9181FD02C0A7
:104F500060E101C060E288EE0E94BC218E2D90E0ED
:104F6000A0E0B0E08C839D83AE83BF83462C2A8172
:104F70003B81D6014C9160E0C1010E94DF21F82EF7
:104F8000B6E08B1315C088EF0E946721829581706F
:104F900091E08927F601928180FB91F9928391FD3E
:104FA00002C060E101C060E288EE0E94BC21DFCF58
:104FB00081116EC088EC0E94672182FF67C080E388
:104FC0000E946721582E90E06816790608F4542C48
:104FD000D5018D919C91F301E81BF90BF987E887C6
:104FE000F7FF02C019861886852C912C28853985F3
:104FF0008216930614F49986888680E591E00E94D3
:10500000F31E0E94E71E88E00E94EC1E4885598529
:1050100060E070E0C8010E94F831888599850097AA
:1050200021F0BC01C8010E947D21A885B9850A0F25
:105030001B1F0E94E91E0E94EB1E64E088EC0E9488
:10504000BC21F50180819181880E991E9182808218
:10505000F9815F1618F08614970470F088EF0E94AB
:10506000672182958170D60112969C91129780FBE0
:1050700091F912969C930CC0EE2009F478CF6C81C4
:105080007D818E819F810E94792071CF80EFF82EE3
:105090008F2D29960FB6F894DEBF0FBECDBFDF91DE
:1050A000CF911F910F91FF90EF90DF90CF90BF9025
:1050B000AF909F908F907F906F905F904F903F90B8
:1050C0002F9008957F928F929F92AF92BF92CF922E
:1050D000DF92EF92FF920F931F93CF93DF9300D055
:1050E00000D0CDB7DEB76C01762EF42E5901480101
:1050F0001C821B821A8219828E010F5F1F4F9E0134
:105100002D5F3F4F0E945723182F8823A9F161E894
:1051100070E08CE79CE00E94122161E870E0812F32
:105120000E944B1261E870E089E79CE00E94122126
:1051300061E870E087E59CE00E94122161E870E080
:10514000872D0E944B1261E870E084E59CE00E948C
:10515000122161E870E084E39CE00E94122161E882
:1051600070E08F2D0E944B1261E870E081E39CE0BB
:105170000E941221812F09C049815A816B817C8153
:1051800084019501C6010E947B270F900F900F901C
:105190000F90DF91CF911F910F91FF90EF90DF90D3
:1051A000CF90BF90AF909F908F907F9008958F92F7
:1051B0009F92AF92BF92CF92EF920F93CF93DF93D4
:1051C000FC01E159FF4F208131812E7F3183208303
:1051D000DC01AC5BBF4FBC97EC01CF5BDF4F1F9294
:1051E0001F927F936F934A015A01C12CE12C00E07A
:1051F00020E24C916081888199810E94D0230F9098
:105200000F900F900F90DF91CF910F91EF90CF9073
:10521000BF90AF909F908F900895FC01DC01A15941
:10522000BF4F8D919C9111978D7F9E7F8D939C9305
:10523000BF016E587F4F85E0DB018C93119684E0AF
:105240008C9311968DE08C93119684898C93119692
:1052500085898C93119686898C93119687898C9376
:105260001196808D8C931196818D8C93119688E187
:105270008C9311968CEC8C93119681E08C93119603
:105280001C9211961C9211961C9211961C9240E150
:1052900050E0CF010C94D7280F931F93CF93DF9347
:1052A000EC018C010E581F4F8DE0D8018C93FE014C
:1052B000ED58FF4F84E08083319687E180833196FB
:1052C0008C89808331968D89808331968E89808305
:1052D00031968F8980833196888D80833196898D30
:1052E00080832BADCE0185589F4F222391F126E07C
:1052F000FC012083779780818823C9F060E870E003
:105300008AE09CE00E941221FE013C96CE0142966A
:105310002191DF01A159BF4F2C93E817F907C1F77D
:10532000FE01EE57FF4FCE0184579F4F0DC0FE0187
:105330007496CE014A962191DF01A959BF4F2C9353
:10534000E817F907C1F7ECCF1192E817F907E1F771
:1053500031C0EA85FB85DF010D900020E9F7119748
:105360009D012E1B3F0BDC012C9380E0282F30E0A9
:10537000DF010D900020E9F71197AE1BBF0B2A1734
:105380003B0770F4DE01A20FB31FAD0144585F4F1D
:105390002E0F3F1FD9019C91DA019C938F5FE6CFBE
:1053A000803140F4FE01E80FF11DE458FF4F1082F8
:1053B0008F5FF6CF4AE150E0B801CE01DF91CF9187
:1053C0001F910F910C94D7280F931F93CF93DF93C6
:1053D0008C01CCE0D0E0C8010C2E02C096958795D8
:1053E0000A94E2F78F7090E3980F9A3310F4892FA4
:1053F00001C0895C60E870E00E9409212497CC3FDD
:105400008FEFD80741F7DF91CF911F910F9108954A
:105410008F929F92AF92BF92CF92EF920F931F9273
:105420001F921F921F92812C912CA12CB12CC12C68
:10543000E22E09E020E00E94D0230F900F900F9001
:105440000F900F91EF90CF90BF90AF909F908F9063
:1054500008953F924F925F926F927F928F929F92A8
:10546000AF92BF92CF92DF92EF92FF920F931F9372
:10547000CF93DF93CDB7DEB7C054D1090FB6F89400
:10548000DEBF0FBECDBF3C01162FD22E332E1F9292
:105490001F92CE0101962C019F938F9399E0892E44
:1054A000912C29E0A22EB12C32E0C32EE42E06E08E
:1054B00020E840E0C3010E94D0230F900F900F908E
:1054C0000F90811113C0AB80BC803F92DF925F923E
:1054D0004F9280E4882E912C20E840E0612FC30198
:1054E0000E94D0230F900F900F900F90C05CDF4F61
:1054F0000FB6F894DEBF0FBECDBFDF91CF911F91E5
:105500000F91FF90EF90DF90CF90BF90AF909F9062
:105510008F907F906F905F904F903F900895CF93C2
:10552000DF93009749F0EC018991882329F060E826
:1055300070E00E940921F8CFDF91CF910895EF929A
:105540000F931F93CF93DF93D801FC01EE50FF4FD1
:1055500053E05083EC01CD50DF4F4883219648E063
:10556000488321961882E9014881EC01CA50DF4F37
:105570004883E9012981EC01C950DF4F28832C9130
:105580002196288311962C91DC01A750BF4F2C93B4
:105590001196EC9211961C9211961C9211961C92E7
:1055A000E12C01E02CE0AF010E94A80EDF91CF9129
:1055B0001F910F91EF900895AF92BF92CF92DF921B
:1055C000EF92FF920F931F93CF93DF93EC015B0158
:1055D000142F0E94B320CFA0D8A4E9A4FAA4DC0120
:1055E000CB018C199D09AE09BF0987399105A10529
:1055F000B1058CF40E94B32026E9C20ED11CE11C37
:10560000F11CA7019601261B370B480B590BCA0149
:10561000B9010E947920DE01A053BF4FFE01E15382
:10562000FF4F6E817F81EC900081212FA5018C813D
:105630009D810E94A80E0E94B3206FA378A789A71E
:105640009AA7DF91CF911F910F91FF90EF90DF907C
:10565000CF90BF90AF900895AF92BF92CF92DF925C
:10566000EF92FF920F93CF93DF93EC015B010E94C7
:10567000B320CFA0D8A4E9A4FAA4DC01CB018C19F3
:105680009D09AE09BF0987399105A105B1058CF4C3
:105690000E94B32026E9C20ED11CE11CF11CA70117
:1056A0009601261B370B480B590BCA01B9010E9402
:1056B0007920DE01AC52BF4FFE01ED52FF4F6E81EB
:1056C0007F81EC90008122E3A5018C819D810E9465
:1056D000A80E0E94B3206FA378A789A79AA7DF918D
:1056E000CF910F91FF90EF90DF90CF90BF90AF9050
:1056F0000895CF93DF93CDB7DEB765970FB6F894D3
:10570000DEBF0FBECDBF789484B5826084BD84B502
:10571000816084BD85B5826085BD85B5816085BDAC
:1057200080916E00816080936E0010928100809164
:1057300081008260809381008091810081608093EC
:105740008100809180008160809380008091B10011
:1057500084608093B1008091B00081608093B0003C
:1057600080917A00846080937A0080917A008260D0
:1057700080937A0080917A00816080937A00809192
:105780007A00806880937A001092C100E091EA016B
:10579000F091EB0182E08083E091E601F091E70176
:1057A0001082E091E801F091E90180E1808310929C
:1057B000F201E091EE01F091EF0186E08083E0914B
:1057C000EC01F091ED01808180618083E091EC013A
:1057D000F091ED01808188608083E091EC01F0918F
:1057E000ED01808180688083E091EC01F091ED0112
:1057F00080818F7D8083229A0E94E91E1FB7F894D2
:105800008091C401811127C0E3E8F8E08491E7E9C1
:10581000F8E09491E82FF0E0EE0FFF1FEF5CF74FF8
:10582000A591B491EC91E92321F461E08AE00E9412
:105830000E2061E08AE00E943D208CB580618CBD25
:105840008CB580648CBD61E08DE00E943D2061E0FC
:105850008BE00E943D208091C4018F5F8093C40142
:105860001FBF229A0E94E91E219868E188E80E94E1
:10587000BC2160E288E70E94BC2160E088E70E94CA
:10588000BC2100E010E088E60E9467210F5F1F4FF7
:1058900080FD09C00F3F8FEF1807A9F78BE598E04F
:1058A0000E943C23FFCF61EC88ED0E94BC2160E6A2
:1058B00080ED0E94BC2164E088EE0E94BC2188EE4D
:1058C0000E94672182FFFBCF0E943F2560E288ECA7
:1058D0000E94BC2161E080E80E94BC218BE398E03B
:1058E0000E943C2361E08FE00E943D2061E083E064
:1058F0000E943D2061E083E10E943D2061E083E061
:105900000E943D2061E082E00E943D2061E080E154
:105910000E943D2060E081E10E943D2062E170E054
:1059200080EA92E00E94CA1D6EE070E08DE992E08C
:105930000E94CA1D0091C9011091CA01B80180EAF4
:1059400092E00E94471D64EB70E0601B710B8DE9D3
:1059500092E00E94471D60E08FE00E940E2060E010
:1059600083E00E940E2060E083E10E940E2060E050
:1059700083E00E940E2060E082E00E940E2060E042
:1059800080E10E940E2064EF71E080E090E00E94D0
:1059900079205FE3252E312C19990DC088EC0E94E7
:1059A000672185FF04C00E943F2560E201C060E0DE
:1059B00088EC0E94BC218091D901813039F040F0FF
:1059C000823079F0833039F511E00CC083E106C0F4
:1059D00080919C02807F8031F1F081E180939C0274
:1059E0001AC010E080919C02807F8031A9F40E944F
:1059F000B320DC01CB0188539F4FAF4FBF4F809343
:105A0000C5019093C601A093C701B093C80180E27D
:105A100080939C0201C010E040ED642E43E0742EA0
:105A20007301D7018D919D917D01009739F0DC01C3
:105A3000ED91FC910680F781E02D0995B0EFEB1612
:105A4000B3E0FB0671F780919C02803409F444C0F6
:105A500050F4803231F18033C9F1813109F041C114
:105A60001092F0030AC0813509F45DC0803809F452
:105A70006FC0803509F035C13EC0F301819191912D
:105A80003F01009739F0DC01ED91FC910480F58134
:105A9000E02D0995B0EF6B16B3E07B0671F782E15C
:105AA0001EC10E94B3200091C5011091C601209132
:105AB000C7013091C801DC01CB01801B910BA20B07
:105AC000B30BB7FD0EC180E380939C0261E088EECA
:105AD0000E94BC2180E403C188EE0E94672180FD02
