:100000000C9458000C94AE020C9487020C9480005F
:100010000C9480000C9480000C9480000C94800060
:100020000C9480000C94D5020C9480000C948000F9
:100030000C9480000C9480000C9480000C94800040
:100040000C943D020C9480000C940B020C94E5017E
:100050000C9480000C9480000C9480000C94800020
:100060000C9480000C948000000000002500280003
:100070002B00040404040404040402020202020229
:10008000030303030303010204081020408001025C
:1000900004081020010204081020000000080002DB
:1000A0000100000304070000000000000000A0039E
:1000B00011241FBECFEFD8E0DEBFCDBF11E0A0E01E
:1000C000B1E0E4EBF7E002C005900D92A631B10774
:1000D000D9F721E0A6E1B1E001C01D92AD3BB20726
:1000E000E1F710E0C8E5D0E004C02197FE010E94CE
:1000F000CD03C735D107C9F70E940D030C94D8036F
:100100000C940000109216010895CF92DF92EF92A6
:10011000FF920F931F93CF93DF936C017A018B01B2
:10012000C0E0D0E0CE15DF0581F0D8016D918D01E2
:10013000D601ED91FC910190F081E02DC601099569
:10014000892B11F02196EECF7E01C701DF91CF916F
:100150001F910F91FF90EF90DF90CF900895089539
:1001600080E090E00895FC01538D448D252F30E010
:10017000842F90E0821B930B541710F0CF960895B4
:1001800001970895FC01918D828D981761F0828D01
:10019000DF01A80FB11D5D968C91928D9F5F9F73BB
:1001A000928F90E008958FEF9FEF0895FC01918D5D
:1001B000828D981731F0828DE80FF11D858D90E0CA
:1001C00008958FEF9FEF0895FC01918D228D892F67
:1001D00090E0805C9F4F821B91098F73992708954F
:1001E00080E291E00E94E40021E0892B09F420E004
:1001F000822F0895FC01848DDF01A80FB11DA35A41
:10020000BF4F2C91848D90E001968F739927848F36
:10021000A689B7892C93A089B1898C918370806459
:100220008C93938D848D981306C00288F389E02DFA
:1002300080818F7D80830895EF92FF920F931F93AB
:10024000CF93DF93EC0181E0888F9B8D8C8D981389
:1002500005C0E889F989808185FD26C0F62E0B8DC1
:1002600010E00F5F1F4F0F731127E02E8C8DE812E7
:100270000CC00FB607FCFACFE889F989808185FFA9
:10028000F5CFCE010E94FA00F1CF8B8DFE01E80F71
:10029000F11DE35AFF4FF0829FB7F8940B8FEA8964
:1002A000FB89808180620AC09FB7F894EE89FF893C
:1002B0006083E889F98980818370806480839FBF2F
:1002C00081E090E0DF91CF911F910F91FF90EF902F
:1002D0000895CF93DF93EC01888D8823C9F0EA89D4
:1002E000FB89808185FD05C0A889B9898C9186FD2F
:1002F0000FC00FB607FCF5CF808185FFF2CFA8892C
:10030000B9898C9185FFEDCFCE010E94FA00E7CF2D
:10031000DF91CF91089580E090E0892B29F00E9431
:10032000F00081110C940000089590E0FC01E65665
:10033000FF4F2491FC01EA57FF4F3491FC01EE5826
:10034000FF4FE491EE2309F43CC0222339F123301E
:1003500091F038F42130A9F0223001F584B58F7D79
:1003600012C0273091F02830A1F02430B9F48091E8
:1003700080008F7D03C0809180008F778093800004
:100380000DC084B58F7784BD09C08091B0008F7790
:1003900003C08091B0008F7D8093B000F0E0EE0F3D
:1003A000FF1FE859FF4FA591B4919FB7F8946111D1
:1003B00004C08C913095382302C0EC913E2B3C93C5
:1003C0009FBF089508950E94D3031F920F920FB606
:1003D0000F9211242F933F934F935F936F937F93CB
:1003E0008F939F93AF93BF93EF93FF9380E291E03E
:1003F0000E94FA00FF91EF91BF91AF919F918F9171
:100400007F916F915F914F913F912F910F900FBE10
:100410000F901F9018951F920F920FB60F921124F4
:100420002F938F939F93EF93FF93E0913001F0917F
:1004300031018081E0913601F091370182FD12C0D7
:100440009081809139018F5F8F7320913A018217DB
:1004500051F0E0913901F0E0E05EFE4F958F80931E
:10046000390101C08081FF91EF919F918F912F9170
:100470000F900FBE0F901F9018951F920F920FB6FE
:100480000F9211242F933F938F939F93AF93BF931A
:1004900080911C0190911D01A0911E01B0911F013E
:1004A00030911B0123E0230F2D3720F40196A11D6D
:1004B000B11D05C026E8230F0296A11DB11D209392
:1004C0001B0180931C0190931D01A0931E01B0930A
:1004D0001F018091170190911801A0911901B0910D
:1004E0001A010196A11DB11D809317019093180167
:1004F000A0931901B0931A01BF91AF919F918F9171
:100500003F912F910F900FBE0F901F9018951F9243
:100510000F920FB60F9211242F933F934F935F9337
:100520006F937F938F939F93AF93BF93EF93FF93BB
:10053000E0910201F09103010995FF91EF91BF91C4
:10054000AF919F918F917F916F915F914F913F916B
:100550002F910F900FBE0F901F9018951F920F9222
:100560000FB60F9211242F933F934F935F936F9386
:100570007F938F939F93AF93BF93EF93FF93E091FC
:100580000001F09101010995FF91EF91BF91AF91A9
:100590009F918F917F916F915F914F913F912F919B
:1005A0000F900FBE0F901F9018951F920F920FB6CD
:1005B0000F9211242F933F934F935F936F937F93E9
:1005C0008F939F93AF93BF93EF93FF9386E78093AF
:1005D000B200809116018F5F80931601823361F41F
:1005E00061E08DE00E94950183E290E00197F1F7D0
:1005F00060E08DE00E949501FF91EF91BF91AF9176
:100600009F918F917F916F915F914F913F912F912A
:100610000F900FBE0F901F901895789484B582604C
:1006200084BD84B5816084BD85B5826085BD85B596
:10063000816085BD80916E00816080936E00109214
:10064000810080918100826080938100809181008F
:100650008160809381008091800081608093800020
:100660008091B10084608093B1008091B00081607E
:100670008093B00080917A00846080937A008091AA
:100680007A00826080937A0080917A008160809302
:100690007A0080917A00806880937A001092C1007D
:1006A0001092B00086E78093B20084E08093B1009E
:1006B00081E080937000E0913001F091310182E09F
:1006C0008083E0912C01F0912D011082E0912E01A8
:1006D000F0912F018FEC808310923801E09134016A
:1006E000F091350186E08083E0913201F091330191
:1006F000808180618083E0913201F09133018081BB
:1007000088608083E0913201F091330180818068BC
:100710008083E0913201F091330180818F7D80836D
:1007200082E890E09093010180930001809169003C
:10073000836080936900E89A78940E948B01FDCFD2
:10074000E0E2F1E01382128288EE93E0A0E0B0E0F4
:1007500084839583A683B78388E091E09183808327
:1007600085EC90E09587848784EC90E09787868776
:1007700080EC90E0918B808B81EC90E0938B828B6E
:1007800082EC90E0958B848B86EC90E0978B868B47
:10079000118E128E138E148E0895EE0FFF1F05908A
:1007A000F491E02D099481E090E0F8940C94D80342
:0407B000F894FFCFEB
:1007B400E201E201000000001C018500B3006901B0
:0607C400E400C200D600B3
:00000001FF
