:100000000C9465000C948D000C948D000C948D0064
:100010000C948D000C948D000C948D000C948D002C
:100020000C948D000C948D000C948D000C94960211
:100030000C948D000C948D000C948D000C948D000C
:100040000C948D000C948D000C948D000C948D00FC
:100050000C948D000000000000000002040000006D
:100060000000000000000000000000000000000090
:1000700000000507010204080102040820401020C6
:100080004080804020100804020101020408102072
:1000900040801080040404040202020204040202EC
:1000A0000202010101010101010103030303030332
:1000B0000303040400003B00380035003200000058
:1000C0003A00370034003100D40011241FBECFE5C0
:1000D000D8E0DEBFCDBF10E0A0E6B0E0E4EDFAE08E
:1000E00002C005900D92A237B107D9F720E0A2E730
:1000F000B0E001C01D92AA38B207E1F710E0C5E6F2
:10010000D0E004C02197FE010E946205C436D107E9
:10011000C9F70E9430050C9468050C94000081E436
:1001200087B986E886B9089597B1907E97B997B157
:100130008770982B97B9369A3699FECF84B195B1CE
:1001400008950E948F0020E042E060E182E790E0A5
:100150000C94EE0182E790E00E94B10140E060E083
:1001600082E790E00E94B80184E00E9494004AE097
:1001700050E0BC0182E790E00E94280541E060E089
:1001800082E790E00E94B80181E10E9473034AE097
:1001900050E0BC0182E790E00E94280564EF71E026
:1001A00080E090E00C9406030F9304E023E049E123
:1001B00069E082E790E00E9482020F910895EF9239
:1001C000FF920F931F93CF93DF93EC01E62E0B85E5
:1001D0004111016010E061E08E810E94E90380E13D
:1001E000E89E7001112498012260FE2CF22A2F2D26
:1001F00040E06C818D810E94180460E08E810E9435
:10020000E9038AE090E00E94420361E08E810E944F
:10021000E9030D7F2E2D202B40E06C818D810E9403
:10022000180460E08E810E94E9038AE090E00E9459
:10023000420361E08E810E94E9032F2D40E06C8132
:100240008D810E94180460E08E810E94E90384E69B
:1002500090E0DF91CF911F910F91FF90EF900C9460
:100260004203EF92FF920F931F93CF93DF93EC0122
:10027000F62EEE24E394411101C0E12C61E08E8161
:100280000E94E9030E2D10E00260202F40E06C81F7
:100290008D810E9418042F2D40E06C818D810E9479
:1002A000180460E08E810E94E90361E08E810E9463
:1002B000E9032E2D40E06C818D810E9418042F2DC2
:1002C00040E06C818D810E94180460E08E810E9464
:1002D000E90385E090E00E94420361E08E810E9484
:1002E000E903202F40E06C818D810E9418042F2D9E
:1002F00040E06C818D810E94180460E08E810E9434
:10030000E90385E090E0DF91CF911F910F91FF907D
:10031000EF900C9442030F931F93CF93DF93FC0154
:10032000208524FF06C0DF91CF911F910F910C947F
:100330003101042F162FEC0170E084E0759567956C
:100340008A95E1F7CF010E94DF00402F612FCE0197
:10035000DF91CF911F910F910C94DF0040E00C943E
:100360008B0161E00E94AE0180ED97E00C944203A6
:10037000CF93DF93CDB7DEB728970FB6F894DEBFE3
:100380000FBECDBF9C0188E0E1E6F0E0DE011196F2
:1003900001900D928A95E1F7F9018585841710F493
:1003A0004FEF480FFE013196E40FF11DE40FF11DF0
:1003B0009081690F6068C90128960FB6F894DEBF76
:1003C0000FBECDBFDF91CF910C94AE01FC016185D2
:1003D000262F246021876C600C94AE01CF93DF93AD
:1003E000EC01423018F08885886088874D871E862A
:1003F000222329F0413019F488858460888780E5BC
:1004000093EC0E94420320E040E06C818D810E94C9
:10041000180420E040E06C818D810E9418046885FA
:1004200064FD21C040E063E0CE010E94DF0084E96A
:1004300091E10E94420340E063E0CE010E94DF00B0
:1004400084E991E10E94420340E063E0CE010E9412
:10045000DF0086E990E00E94420340E062E0CE01C6
:100460000E94DF0016C06062CE010E94AE0184E9E6
:1004700091E10E94420368856062CE010E94AE0154
:1004800086E990E00E94420368856062CE010E9486
:10049000AE0168856062CE010E94AE0184E089876A
:1004A000CE010E94E601CE010E94B10182E08A875E
:1004B00066E0CE01DF91CF910C94AE010F93CF9304
:1004C000DF93EC01862F6D834C832E8394E09B8712
:1004D00061E00E94AD0361E08C810E94AD0361E0A8
:1004E0008E810E94AD03053010F4188602C080E1B1
:1004F000888720E041E060E1CE01DF91CF910F914C
:100500000C94EE010F93DC0113961C921E9212972D
:10051000EDE6F0E0ED93FC930E945E020F910895EA
:1005200041E00E948B0181E090E008951F920F92BC
:100530000FB60F9211242F933F938F939F93AF93F6
:10054000BF938091820090918300A0918400B0912C
:1005500085003091810023E0230F2D3720F4019690
:10056000A11DB11D05C026E8230F0296A11DB11DD6
:10057000209381008093820090938300A093840055
:10058000B09385008091860090918700A0918800AB
:10059000B09189000196A11DB11D809386009093B2
:1005A0008700A0938800B0938900BF91AF919F917D
:1005B0008F913F912F910F900FBE0F901F90189524
:1005C0003FB7F8948091860090918700A0918800B1
:1005D000B091890022B708B600FE05C02F3F19F080
:1005E0000196A11DB11D3FBFBA2FA92F982F8827B3
:1005F000820F911DA11DB11DBC01CD0142E0660F0E
:10060000771F881F991F4A95D1F708958F929F925F
:10061000AF92BF92CF92DF92EF92FF926B017C017B
:100620000E94E0024B015C01C114D104E104F10419
:1006300001F10E943F050E94E002DC01CB01881914
:100640009909AA09BB09883E9340A105B10560F349
:1006500021E0C21AD108E108F10888EE880E83E093
:10066000981EA11CB11CC114D104E104F10419F7B6
:10067000DBCFFF90EF90DF90CF90BF90AF909F9037
:100680008F9008958230910538F0880F991F880F58
:10069000991F05970197F1F70895789483B78260C1
:1006A00083BF83B7816083BF83B7806483BF83B711
:1006B000886083BF89B7816089BF1EBC8EB58260A8
:1006C0008EBD8EB581608EBD8FB581608FBD85B5C5
:1006D000846085BD85B5806485BD329A319A309A33
:1006E000379A1AB80895883010F497E005C092EF51
:1006F000980F983020F495E1981B892F01C08FEF57
:100700002091600090E4299F900111248770822B32
:1007100087B9369A3699FECF84B125B190E0922BF5
:100720000895843059F028F4813099F0823089F0AE
:100730000895853031F0873041F008958FB58F7777
:1007400002C08FB58F7D8FBD089585B58F7D85BD26
:10075000089583B78F7D83BF0895CF93DF9390E093
:10076000FC01EC58FF4F2491FC01EC56FF4F8491A3
:10077000882361F190E0880F991FFC01E254FF4F3C
:10078000C591D491FC01EC54FF4FA591B491611136
:1007900009C09FB7F8948881209582238883EC91C3
:1007A0002E230BC0623061F49FB7F8948881322FFA
:1007B000309583238883EC912E2B2C939FBF06C00A
:1007C0008FB7F894E8812E2B28838FBFDF91CF91CC
:1007D00008951F93CF93DF93282F30E0F901EC5A4F
:1007E000FF4F8491F901EC58FF4FD491F901EC5679
:1007F000FF4FC491CC23C1F0162F81110E949103A9
:10080000EC2FF0E0EE0FFF1FEC54FF4FA591B491D9
:100810009FB7F894111104C08C91D095D82302C0D1
:10082000EC91DE2BDC939FBFDF91CF911F91089558
:10083000BF92CF92DF92EF92FF920F931F93CF93CD
:10084000DF93C82ED62EB42EC7E0D0E0022F10E0E2
:1008500087E0E82EF12CB11005C0C7018C1B9D0B61
:10086000B80102C0B8018C2F02C0759567958A95B2
:10087000E2F761708C2D0E94E90361E08D2D0E94EA
:10088000E90360E08D2D0E94E903219720F7DF91B5
:10089000CF911F910F91FF90EF90DF90CF90BF907D
:1008A0000895CF92DF92EF92FF920F931F93CF9311
:1008B000DF936C017A018B01C0E0D0E0CE15DF053B
:1008C00081F0D8016D918D01D601ED91FC910190DF
:1008D000F081E02DC6010995892B11F02196EECF0C
:1008E0007E01C701DF91CF911F910F91FF90EF9093
:1008F000DF90CF9008956115710579F0FB010190AB
:100900000020E9F73197AF01461B570BDC01ED9151
:10091000FC910280F381E02D099480E090E008953D
:10092000DC01ED91FC910190F081E02D09948F9212
:100930009F92AF92BF92EF92FF920F931F93CF932C
:10094000DF93CDB7DEB7A1970FB6F894DEBF0FBE29
:10095000CDBF7C01FA01CB0119A2223008F42AE0B4
:100960008E010F5D1F4F822E912CA12CB12CBF0147
:10097000A50194010E944005F901CA010150110925
:100980006A3014F4605D01C0695CD8016C93232B5C
:10099000242B252B61F7B801C7010E947B04A19687
:1009A0000FB6F894DEBF0FBECDBFDF91CF911F9180
:1009B0000F91FF90EF90BF90AF909F908F90089510
:1009C000CF92DF92EF92FF920F931F93CF93DF931B
:1009D0002115310581F4DC01ED91FC910190F0814C
:1009E000E02D642FDF91CF911F910F91FF90EF9039
:1009F000DF90CF9009942A30310501F577FF1DC0B3
:100A00006A017B01EC016DE20E9490048C01442795
:100A10005527BA014C195D096E097F092AE0CE01FC
:100A20000E949704800F911FDF91CF911F910F912A
:100A3000FF90EF90DF90CF9008952AE0DF91CF9163
:100A40001F910F91FF90EF90DF90CF900C9497043F
:100A50009A01AB01770F660B770B0C94E0040895B5
:100A60000E944D030E942F050E94A100C0E0D0E02B
:100A70000E94AA002097E1F30E940000F9CF089598
:100A8000A1E21A2EAA1BBB1BFD010DC0AA1FBB1F92
:100A9000EE1FFF1FA217B307E407F50720F0A21B04
:100AA000B30BE40BF50B661F771F881F991F1A9471
:100AB00069F760957095809590959B01AC01BD019B
:100AC000CF010895EE0FFF1F0590F491E02D0994DA
:040AD000F894FFCFC8
:100AD4000100004000140054000000000090025186
:020AE40004000C
:107E000001C0B1C011248FE598E09EBF8DBF84B73B
:107E1000882349F0982F9A70923029F081FF02C090
:107E200097EF94BFCED085E08EBD82E08BB988E11C
:107E30008AB986E880BD80E189B98EE0AFD0B89A72
:107E400084E040E35CEF34E021E05DBD4CBD38BF31
:107E500008B602FEFDCF98B3922798BBA895815033
:107E6000A1F7C0E0D0E093D0813469F490D0182F0E
:107E700099D0123809F46DC0113811F486E001C0B0
:107E800083E081D06DC0823411F484E103C0853475
:107E900019F485E08FD064C0853541F478D0C82FBF
:107EA00076D0D0E0D82BCC0FDD1F59C0863521F419
:107EB00084E080D080E0E5CF8436A1F568D067D03B
:107EC000182F65D0D82E012F90E6E92EF12C5FD027
:107ED000F70181937F010150D1F764D0F5E4DF12FF
:107EE00001C0FFCF40E050E063E0CE013CD06E0126
:107EF00080E6E82EF12CF7014081818150E0582B7B
:107F000061E0C60130D0F2E0CF0ED11C125082E009
:107F1000E80EF11C1111EFCF40E050E065E0CE011A
:107F200022D01EC0843771F432D031D0F82E2FD039
:107F300039D08E01F80185918F0125D0FA94F11086
:107F4000F9CF0EC0853739F42DD08EE11CD085E9EC
:107F50001AD082E096CF813511F488E01FD022D06C
:107F600080E111D080CFFC010A0167BFE8951124A0
:107F700007B600FCFDCF667029F0452B19F481E1AE
:107F800087BFE89508955D9BFECF8CB908955F9BF0
:107F9000FECF5C9901C0A8958CB1089598E191BD80
:107FA00081BD0895F4DF803219F088E0F7DFFFCF5C
:107FB00084E1E9CFCF93C82FEADFC150E9F7CF9131
:0E7FC000F1CF282E80E0EADFE0E0FF270994F1
:027FFE00020679
:0400000300007E007B
:00000001FF
