:100000000C948D000C94B5000C94B5000C94B500C4
:100010000C94B5000C94B5000C94B5000C94B5008C
:100020000C94B5000C94B5000C94B5000C94B5007C
:100030000C94B5000C94B5000C94B5000C94B5006C
:100040000C94B4020C94B5000C94B5000C94B5005B
:100050000C94B5000C94B5000C94B5000C94B5004C
:100060000C945A040C94B500EC07FA0752085D088A
:100070006A087208B608FA083E098209C609F40738
:100080000D0A090A38106D1054109310B010CD10DD
:10009000CD10CD10DC10DC10DC105E100911021147
:1000A0003C1154116C1184119C11B411C811DC1154
:1000B000F011041218122E124A1248120000000009
:1000C000240027002A0000000000250028002B0043
:1000D0000000000023002600290004040404040496
:1000E00004040202020202020303030303030102E7
:1000F00004081020408001020408102001020408B6
:1001000010200000000800020100000304070000A6
:100110000000000000005812FF0D11241FBECFEF99
:10012000D8E0DEBFCDBF26E0AAEBB3E001C01D9250
:10013000AA33B207E1F713E0A0E0B1E0E4E1F1E3B4
:1001400002C005900D92AA3BB107D9F710E0CCE8A8
:10015000D0E004C02197FE010E946B16CB38D10776
:10016000C9F70E945C0E0C947D180C9400003FB7F8
:10017000F8948091730490917404A0917504B091E7
:10018000760426B5A89B05C02F3F19F00196A11D46
:10019000B11D3FBFBA2FA92F982F8827820F911D1D
:1001A000A11DB11DBC01CD0142E0660F771F881F64
:1001B000991F4A95D1F7089521E001C0220F6A9551
:1001C000EAF7DC011C962C931C971A965C934E93CD
:1001D0001997ED91FC910484F585E02D60E0099478
:1001E000DC01ED91FC910684F785E02D41E0099555
:1001F00081E090E008950895089585ED8093BC0016
:100200008091BC0084FDFCCF10924B040895409176
:10021000DC03262F30E0240F311D21323105DCF4C0
:1002200020914B042430C9F4FC0180E090E0861753
:1002300058F43091DC032191DC01A654BC4FA30F8C
:10024000B11D2C930196F3CF8091DC03680F60936E
:10025000DC0380E0089581E0089582E00895089528
:10026000E0914D0480914C04E81730F4F0E0E25B3B
:10027000FB4F808190E008958FEF9FEF089590915C
:100280004D0480914C04981750F4E92FF0E0E25BA4
:10029000FB4F208130E09F5F90934D0402C02FEF11
:1002A0003FEFC901089580914C0490E020914D04E6
:1002B000821B91090895CF92DF92EF92FF920F93E4
:1002C0001F93CF93DF937C01262F972F8A01809174
:1002D0000104882391F0C62FD72F6E01C40ED51EBE
:1002E000CC15DD0571F06991D701ED91FC9101907C
:1002F000F081E02DC7010995F3CF642F822F0E9472
:100300000701C801DF91CF911F910F91FF90EF90EE
:10031000DF90CF900895CF93DF931F92CDB7DEB7D4
:100320006983209101042223D1F0209123042032FB
:1003300040F021E030E0FC013383228380E090E054
:1003400015C080912404E82FF0E0EE5FFB4F998107
:1003500090838F5F809324048093230405C061E021
:10036000CE0101960E94070181E090E00F90DF919D
:10037000CF910895CF93FC012381222309F46EC00D
:100380009181909569236083C28181E0809301040B
:10039000C093220410922404109223048DEA94E066
:1003A0000E948B0180912304813208F04AC0209181
:1003B0004B042111FCCF92E090934B0491E0909379
:1003C0004A049FEF90934904109248048093470495
:1003D000A2E0B4E045E254E0FA019E2F941B981786
:1003E00018F49D919193F9CF1092460480914604A0
:1003F000CC0FC82BC093460480914504813061F432
:1004000010924504809146048093BB008091BC000B
:1004100083FDF8CF85EC01C085EE8093BC00809110
:100420004B048230E1F3809149048F3F79F0809151
:100430004904803241F080914904803331F024E056
:1004400005C021E003C022E001C023E01092240493
:10045000109223041092010430E002C020E030E04A
:1004600081E090E0232B11F080E090E0CF9108959F
:10047000EF92FF920F931F93CF938C01FC0175961F
:1004800084E0C0E060FF02C09081C92B6695815076
:1004900031968111F7CF413011F4F8014489F80108
:1004A0008585C82BC42B7801FEE0EF0EF11CF80106
:1004B00062896C2BC7010E94BA01F80162896095BC
:1004C0006C23C701CF911F910F91FF90EF900C9477
:1004D000BA010F931F93CF93DF93062F0F70423013
:1004E00019F440E0602F10C0142F262FEC0130E0EB
:1004F000B90184E0759567958A95E1F7CE010E9470
:100500003802412F602FCE01DF91CF911F910F91C3
:100510000C943802FC0184858823A9F0218532855A
:100520002115310519F4611106C007C021303105CC
:1005300021F4611102C0858701C015866585CF0150
:100540000E960C94BA010895089580E090E0089505
:100550002FB7F89460916F047091700480917104CA
:10056000909172042FBF08951F920F920FB60F92B1
:1005700011242F933F938F939F93AF93BF938091B9
:100580006F0490917004A0917104B0917204309145
:100590006E0423E0230F2D3720F40196A11DB11D19
:1005A00005C026E8230F0296A11DB11D20936E04FD
:1005B00080936F0490937004A0937104B0937204BD
:1005C0008091730490917404A0917504B0917604A5
:1005D0000196A11DB11D8093730490937404A093A0
:1005E0007504B0937604BF91AF919F918F913F9125
:1005F0002F910F900FBE0F901F901895DC01ED9179
:10060000FC910684F785E02D40E0099461E00E94AA
:10061000FE028BE39FE10197F1F708958F929F927D
:10062000AF92BF92CF92DF92EF92FF920F931F9300
:10063000CF93DF93EC01423018F08C8188608C837B
:100640004F836887222329F0413019F48C8184601C
:100650008C830E94B7004B015C0184E6C82ED12C2C
:10066000E12CF12C0E94B700DC01CB01881999091B
:10067000AA09BB09883E9340A105B10558F021E0C5
:10068000C21AD108E108F10888EE880E83E0981EAE
:10069000A11CB11CC114D104E104F10419F76C814F
:1006A00064FD31C0E881F9810684F785E02D42E0E0
:1006B00063E0CE0109950BE416E4C8010197F1F758
:1006C000E881F9810684F785E02D42E063E0CE0100
:1006D0000995C8010197F1F7E881F9810684F7854A
:1006E000E02D42E063E0CE01099583E592E00197B9
:1006F000F1F7E881F9810684F785E02D42E062E0B8
:10070000CE01099516C06062CE010E94FE028BE404
:1007100096E40197F1F76C816062CE010E94FE02BF
:1007200083E592E00197F1F76C816062CE010E944F
:10073000FE026C816062CE010E94FE0284E08D8325
:100740006CE0CE010E94FE02CE010E94060382E010
:100750008E8366E0CE010E94FE02E881F981048466
:10076000F585E02D6FEFCE01DF91CF911F910F91B5
:10077000FF90EF90DF90CF90BF90AF909F908F90C1
:100780000994FF920F931F93CF93DF93EC01162FE1
:10079000042FF22E8B85888B10924D0410924C04FE
:1007A000109224041092230410924B0481E0809351
:1007B0004A041092450461E082E10E94A30B61E0CB
:1007C00083E10E94A30B8091B9008E7F8093B900D2
:1007D0008091B9008D7F8093B90088E48093B80040
:1007E00085E48093BC00888990914B049111FCCFE3
:1007F00091E090934B0490934A042FEF2093490487
:100800001092480410924704909346049091460435
:10081000880F892B8093460480914504813061F4D0
:1008200010924504809146048093BB008091BC00E7
:1008300083FDF8CF85EC01C085EE8093BC008091EC
:100840004B048130E1F380914804811103C0809111
:10085000480401C081E0A5E2B4E02EE434E0F901EF
:100860009E2F921B981718F49D919193F9CF109297
:100870004D0480934C0491E0811101C090E0998B6C
:100880008DEA94E00E943F018E878989882339F0A0
:100890001F861C8260E0CE010E960E94BA012F2DA9
:1008A000402F612FCE01DF91CF911F910F91FF90CB
:1008B0000C940E031F920F920FB60F9211242F93D8
:1008C0003F934F935F936F937F938F939F93AF93D8
:1008D000BF93EF93FF938091B900887F803609F42E
:1008E0009CC068F5883209F45BC090F4803109F44B
:1008F00054C038F4882309F4F6C0883009F44DC098
:10090000F6C0883109F44CC0803209F45DC0EFC0F4
:10091000803409F468C048F4803309F455C0883342
:1009200009F0E5C080934904D8C0803509F44FC070
:10093000883509F45DC0883409F0D9C0D6C088393B
:1009400009F4C7C0A8F4883709F467C038F48836BA
:1009500009F463C0803709F460C0C9C0883809F45D
:10096000B8C0803909F45FC0803809F0C0C05BC0EE
:10097000803B09F486C038F4803A09F466C0883AAE
:1009800009F47FC0B4C0803C09F4A7C0883C09F4D6
:10099000A4C0883B09F48AC0AAC08091460410C054
:1009A0009091480480914704981770F5E0914804AD
:1009B00081E08E0F80934804F0E0EB5DFB4F808177
:1009C0008093BB0085EC86C0809349048EC0E09183
:1009D000480481E08E0F809348048091BB00F0E0D2
:1009E000EB5DFB4F808390914804809147046EC07B
:1009F000E091480481E08E0F809348048091BB0011
:100A0000F0E0EB5DFB4F808380914A0481116DC063
:100A100081E08093450484EA61C083E080934B04C5
:100A200010920004CFCF80910004803208F051C0B2
:100A3000E091000481E08E0F809300048091BB0060
:100A4000F0E0E052FC4F8083BDCF85EC8093BC008A
:100A500010924B0480910004803230F4E091000445
:100A6000F0E0E052FC4F10826091000470E0E091F1
:100A7000DE03F091DF0380EE93E00995109200040D
:100A800036C084E080934B041092DD031092DC03A7
:100A9000E091DA03F091DB0309958091DC03811189
:100AA00005C081E08093DC031092BA03E091DD037E
:100AB00081E08E0F8093DD03F0E0E654FC4F8081EF
:100AC0008093BB009091DD038091DC03981708F4BC
:100AD00079CF85E88093BC000AC085EC8093BC0088
:100AE00010924B0404C0109249040E94FD00FF9133
:100AF000EF91BF91AF919F918F917F916F915F9196
:100B00004F913F912F910F900FBE0F901F9018950E
:100B10002F923F924F925F926F927F928F929F920D
:100B2000AF92BF92CF92DF92EF92FF920F931F93FB
:100B3000CF93DF93CDB7DEB72F970FB6F894DEBF14
:100B40000FBECDBF9F878E870E94A8026D837E83D4
:100B50008F839887EE85FF8582A193A1A4A1B5A17B
:100B60004D815E816F817885481B590B6A0B7B0B29
:100B700086A597A5A0A9B1A9481759076A077B07B9
:100B800008F40AC1248D358DD9018D919D910D9068
:100B9000BC91A02D89839A83AB83BC8300A0F1A173
:100BA000E02D9C01AD0160817181828193810E9461
:100BB0002A154B015C01EE85FF8522A533A544A5CE
:100BC00055A569817A818B819C810E942A156B01D0
:100BD0007C01AE85BF8550962D913D914D915C91E4
:100BE0005397C501B4010E943514EE85FF8526A1F7
:100BF00037A140A551A50E942B152B013C01AE85C4
:100C0000BF8596966D937D938D939C939997DB9674
:100C1000BC91B987B11118C0EE85FF852485358553
:100C200046855785C701B6010E9435149B01AC016A
:100C3000C301B2010E942A15AE85BF8596966D93B9
:100C40007D938D939C939997EE85FF8546A057A041
:100C500060A471A416A907A930AC21AC212F302FB4
:100C6000432D522DC301B2010E943F1618162CF4D9
:100C7000812F902FA32DB22D18C0AE85BF85D2969F
:100C80008D919D910D90BC91A02D8A879B87AC87FB
:100C9000BD879C01AD01C301B2010E94CF1387FF44
:100CA0000AC08A859B85AC85BD85EE85FF8586A3B8
:100CB00097A3A0A7B1A7F985FF2379F0AE85BF85DB
:100CC0001C962D913D914D915C911F97C501B401EA
:100CD0000E9435144B015C0103C0812C912C5401FE
:100CE000EE85FF852489358946895789C701B60174
:100CF0000E9435149B01AC01AE85BF8596966D911F
:100D00007D918D919C9199970E942A159B01AC0130
:100D1000C501B4010E942B156B017C01212F302FDE
:100D2000432D522D0E943F161816A4F0EE85FF8524
:100D300012A903A934A825A8212F302F432D522D05
:100D4000B601C7010E94CF1387FD04C01C2D0D2DD5
:100D50003E2C2F2CAE85BF855E96ED91FC915F9762
:100D6000812F902FA32DB22D80839183A283B383F3
:100D700089819A81AB81BC81EE85FF8582A793A78B
:100D8000A4A7B5A78D819E81AF81B88582A393A3C7
:100D9000A4A3B5A381E001C080E02F960FB6F8941C
:100DA000DEBF0FBECDBFDF91CF911F910F91FF909E
:100DB000EF90DF90CF90BF90AF909F908F907F90FB
:100DC0006F905F904F903F902F9008954F925F9259
:100DD0006F927F928F929F92AF92BF92CF92DF924B
:100DE000EF92FF920F931F93CF93DF9300D000D029
:100DF000CDB7DEB74C01270138010B8D1C8DDC010E
:100E00005F965C934E935E975D967C936E935C9732
:100E100091963C932E939097DA961C92FC0112AA1D
:100E200013AA14AA15AA80E090E0AFE7B3E486AB5A
:100E300097ABA0AFB1AF84E690E0A0E0B0E086A7AA
:100E400097A7A0ABB1AB118F008F20E030E0A901D4
:100E5000C301B2010E94CF1387FD84C020E030E0BF
:100E6000A901C601B5010E94CF1387FD7BC020E018
:100E700030E0A9016F89788D898D9A8D0E94CF13FA
:100E800087FD70C081E090E0D4015B969C938E93C7
:100E90005A97DB968C93DB97F401408251826282F1
:100EA00073821496AD92BD92CD92DC9217978F8982
:100EB000988DA98DBA8D80879187A287B387448644
:100EC0005586668677862DEC3CEC4CEC5DE3C601DE
:100ED000B5010E94351469837A838B839C83F40166
:100EE000608B718B828B938B2DEC3CEC4CEC5DE337
:100EF0006F89788D898D9A8D0E9497156B017C0181
:100F0000D40154966D937D938D939C9357970130A4
:100F1000110541F5A301920160E070E0CB010E9450
:100F20002A15F401648775878687978729813A8116
:100F30004B815C8160E070E0CB010E942A15D401F6
:100F400050966D937D938D939C935397A701960133
:100F500060E070E0CB010E942A15F401648B758B70
:100F6000868B978B0E94A802D4019E960D911D91AD
:100F70002D913C91D197DC01CB01801B910BA20BF1
:100F8000B30BF40182A393A3A4A3B5A30F900F9076
:100F90000F900F90DF91CF911F910F91FF90EF90E5
:100FA000DF90CF90BF90AF909F908F907F906F9089
:100FB0005F904F900895CF92DF92EF92FF92E09171
:100FC0007B044E2F50E04E30510508F026C2FA0146
:100FD000EC5CFF4F0C946B16811106C0E0917A0413
:100FE000F0E0E95DFE4F65C0813009F016C2109255
:100FF0007B0413C2811128C0C090D505D090D605BE
:10100000E090D705F090D80520E030E048EC52E4BD
:10101000C701B6010E94CF1381110DC080E090E09E
:10102000A8ECB2E48093D5059093D605A093D7059C
:10103000B093D805F2C120E030E040E05FE3C701A3
:10104000B6010E942B1525C0813009F0E6C1C09081
:10105000D505D090D605E090D705F090D80520E0D2
:1010600030E0A901C701B6010E94CF13811109C068
:101070001092D5051092D6051092D7051092D8057A
:10108000CCC120E030E040E05FE3C701B6010E9440
:101090002A156093D5057093D6058093D705909354
:1010A000D805BBC18111A0CFE0917904F0E0EB5DE0
:1010B000FE4F808180937B04B0C1811106C0E09116
:1010C0007804F0E0EE5DFE4FF4CF813009F0A5C169
:1010D00082E0F0CF8111F9CFE0917704F0E0E15E9A
:1010E000FE4FE7CF81110FC02DEC3CEC4CEC5DE3E3
:1010F00060910D0170910E0180910F01909110018E
:101100000E942B152AC0813009F087C1C0900D01C3
:10111000D0900E01E0900F01F09010012DEC3CEC0E
:101120004CEC5DE3C701B6010E94CF1318166CF0BA
:101130008DEC9CECACECBDE380930D0190930E0123
:10114000A0930F01B093100168C12DEC3CEC4CEC66
:101150005DE3C701B6010E942A1560930D017093EB
:101160000E0180930F019093100157C181110FC0A0
:101170002DEC3CEC4CEC5DE360911101709112019F
:1011800080911301909114010E942B152AC0813087
:1011900009F043C1C0901101D0901201E0901301F9
:1011A000F09014012DEC3CEC4CEC5DE3C701B60172
:1011B0000E94CF1318166CF08DEC9CECACECBDE3E8
:1011C0008093110190931201A0931301B093140125
:1011D00024C12DEC3CEC4CEC5DE3C701B6010E9450
:1011E0002A1560931101709312018093130190935B
:1011F000140113C181110FC02DEC3CEC4CEC5DE3EC
:10120000609115017091160180911701909118015C
:101210000E942B152AC0813009F0FFC0C090150133
:10122000D0901601E0901701F09018012DEC3CECE5
:101230004CEC5DE3C701B6010E94CF1318166CF0A9
:101240008DEC9CECACECBDE3809315019093160102
:10125000A0931701B0931801E0C02DEC3CEC4CECCE
:101260005DE3C701B6010E942A15609315017093D2
:1012700016018093170190931801CFC081110FC000
:101280002DEC3CEC4CEC5DE36091010170910201AE
:1012900080910301909104010E942B152AC0813096
:1012A00009F0BBC0C0900101D0900201E0900301A1
:1012B000F09004012DEC3CEC4CEC5DE3C701B60171
:1012C0000E94CF1318166CF08DEC9CECACECBDE3D7
:1012D0008093010190930201A0930301B093040154
:1012E0009CC02DEC3CEC4CEC5DE3C701B6010E94C8
:1012F0002A1560930101709302018093030190937A
:1013000004018BC081110FC02DEC3CEC4CEC5DE373
:10131000609105017091060180910701909108018B
:101320000E942B152AC0813009F077C0C0900501BA
:10133000D0900601E0900701F09008012DEC3CEC04
:101340004CEC5DE3C701B6010E94CF1318166CF098
:101350008DEC9CECACECBDE3809305019093060111
:10136000A0930701B093080158C02DEC3CEC4CEC65
:101370005DE3C701B6010E942A15609305017093D1
:101380000601809307019093080147C081110FC0A7
:101390002DEC3CEC4CEC5DE36091090170910A018D
:1013A00080910B0190910C010E942B1529C0813076
:1013B000A1F5C0900901D0900A01E0900B01F090D6
:1013C0000C012DEC3CEC4CEC5DE3C701B6010E9436
:1013D000CF1318166CF08DEC9CECACECBDE3809355
:1013E000090190930A01A0930B01B0930C0115C061
:1013F0002DEC3CEC4CEC5DE3C701B6010E942A15D4
:101400006093090170930A0180930B0190930C0182
:1014100004C0813011F410920001FF90EF90DF9032
:10142000CF9008958EE00E94320CBC01990F880B7A
:10143000990B0E94D61320E030E040EA50E40E946D
:10144000351420E030E048EC52E40E94351420E0EE
:1014500030E040E85AE30E9435146093DD05709354
:10146000DE058093DF059093E0058FE00E94320C4B
:10147000BC01990F880B990B0E94D61320E030E035
:1014800040EA50E40E94351420E030E048EC52E499
:101490000E94351420E030E040E85AE30E94351401
:1014A00060939505709396058093970590939805A2
:1014B000089580910001882399F08DE196E00E94C3
:1014C000060386E591E00E94490C80E00E949C0C96
:1014D00087E691E00E94490C61E084E00C94A30B44
:1014E0008DE196E00E94060386E591E00E94490C9A
:1014F00080E00E949C0C88E791E00C94490C82E00B
:101500000E947A0B892B91F481E080937C041092E5
:101510007D0460E080E00E94A30B61E081E00E9416
:10152000A30B0E94590A8DE080937B040895CF920B
:10153000DF92EF92FF920F931F93CF93DF936C0193
:101540007A018B01C0E0D0E0CE15DF0589F0D8012B
:101550006D918D01D601ED91FC910190F081E02D0E
:10156000C6010995892B11F47E0102C02196ECCFAA
:10157000C701DF91CF911F910F91FF90EF90DF9006
:10158000CF900895833081F028F4813099F0823033
:10159000A1F008958730A9F08830B9F08430D1F4F3
:1015A000809180008F7D03C0809180008F77809331
:1015B0008000089584B58F7702C084B58F7D84BD87
:1015C00008958091B0008F7703C08091B0008F7D27
:1015D0008093B0000895CF93DF9390E0FC01E25137
:1015E000FF4F2491FC01E652FF4F8491882361F163
:1015F00090E0880F991FFC01E454FF4FC591D491EE
:10160000FC01EA53FF4FA591B491611109C09FB746
:10161000F8948881209582238883EC912E230BC037
:10162000623061F49FB7F8943881822F80958323CC
:101630008883EC912E2B2C939FBF06C08FB7F89414
:10164000E8812E2B28838FBFDF91CF9108950E94D0
:101650006818FC01808191810C940617EF92FF922B
:101660000F931F93CF93DF93EC01198218821B8293
:101670001A821D821C8261157105A9F17B01FB0193
:1016800001900020E9F731978F01061B170BB80175
:101690006F5F7F4F80E090E00E949E17009759F0A7
:1016A000998388831B830A832C813D81232B81F4BA
:1016B000FC0110820DC088819981009711F00E9471
:1016C0000617198218821D821C821B821A820BC087
:1016D0001D830C83B701DF91CF911F910F91FF9074
:1016E000EF900C947618DF91CF911F910F91FF909E
:1016F000EF900895CF93DF93282F30E0F901EE5F4C
:10170000FE4F8491F901E251FF4FD491F901E65265
:10171000FF4FC491CC2391F081110E94C20AEC2F9B
:10172000F0E0EE0FFF1FE053FF4FA591B491EC9155
:10173000ED2381E090E021F480E002C080E090E0C1
:10174000DF91CF9108951F93CF93DF93282F30E03F
:10175000F901EE5FFE4F8491F901E251FF4FD49100
:10176000F901E652FF4FC491CC23C9F0162F811125
:101770000E94C20AEC2FF0E0EE0FFF1FEA53FF4F6A
:10178000A591B4918FB7F894111105C09C91ED2FDC
:10179000E095E92302C0EC91ED2BEC938FBFDF9134
:1017A000CF911F9108951F93CF93DF93182FEB01D3
:1017B00061E00E94EB0A209711F460E004C0CF3F83
:1017C000D10539F461E0812FDF91CF911F910C9405
:1017D000A30BE12FF0E0EE5FFE4FE491E330F9F070
:1017E00048F4E130B9F0E230A1F584B5806284BDFF
:1017F000C8BD34C0E730E9F0E83019F1E43049F50C
:1018000080918000806280938000D0938B00C09391
:101810008A0024C084B5806884BDC7BD1FC0809184
:101820008000806880938000D0938900C0938800F6
:1018300015C08091B00080688093B000C093B30061
:101840000DC08091B00080628093B000C093B4005E
:1018500005C0C038D1050CF0B5CFAFCFDF91CF9127
:101860001F9108958E3008F08E50877080648093A9
:101870007C0080917A00806480937A0080917A0065
:1018800086FDFCCF809178002091790090E0922B2A
:101890000895009769F0FC0101900020E9F7319765
:1018A000AF01481B590BBC018DE196E00C94970ADF
:1018B00080E090E008958F929F92AF92BF920F9335
:1018C0001F93CF93DF93CDB7DEB7A1970FB6F894F0
:1018D000DEBF0FBECDBF19A2423008F44AE08E0130
:1018E0000F5D1F4F842E912CA12CB12CA5019401CA
:1018F0000E944916E62FB901CA0101501109EA30C8
:1019000014F4E05D01C0E95CD801EC93232B242B97
:10191000252B61F7C8010E94490CA1960FB6F894D7
:10192000DEBF0FBECDBFDF91CF911F910F91BF9052
:10193000AF909F908F900895CF93DF93CDB7DEB790
:1019400028970FB6F894DEBF0FBECDBF682F1D825B
:1019500080E48E8394E19F8394E5988719828A833B
:1019600080E18B8380E58C8390912406923018F47B
:101970002FEF290F01C021E08091250630E0FE0104
:10198000E20FF31F803121F4943011F4918101C0F2
:101990009581690F60688DE196E028960FB6F894FE
:1019A000DEBF0FBECDBFDF91CF910C94FE028F92B0
:1019B0009F92AF92BF92CF92DF92EF92FF92CF931E
:1019C000DF936B017C019B01AC010E9444168823CC
:1019D00019F08DEA93E027C046015701E894B7F863
:1019E0002FEF3FEF4FE75FE7C501B4010E944416B8
:1019F00081110DC02FEF3FEF4FE75FE7C501B40145
:101A00000E94CF1318161CF481EB93E00CC02FEF4B
:101A10003FEF4FE75FE4C701B6010E943F1618167B
:101A200074F485EB93E0DF91CF91FF90EF90DF901E
:101A3000CF90BF90AF909F908F900C94490C2FEF58
:101A40003FEF4FE75FECC701B6010E94CF1387FD60
:101A5000E8CF20E030E0A901C701B6010E94CF1312
:101A600087FF11C0E0911D06F0911E060190F081E4
:101A7000E02D6DE28DE196E00995EC01F7FAF09426
:101A8000F7F8F09402C0C0E0D0E02AE037ED43EA76
:101A90005BE3C701B6010E942B154B015C010E945C
:101AA00010166B017C010E94D4139B01AC01C5018F
:101AB000B4010E942A154B015C014AE0C701B6013E
:101AC0000E945B0CC80FD91FE0911D06F0911E0605
:101AD0000190F081E02D6EE28DE196E00995C80F4E
:101AE000D91F20E030E040E251E4C501B4010E947A
:101AF00035144B015C010E9410166B01E12CF12C96
:101B00004AE0C701B6010E945B0CC80FD91FC7018C
:101B1000B6010E94D4139B01AC01C501B4010E941F
:101B20002A1520E030E040E251E40E9435140E9482
:101B3000101680E090E04AE00E945B0C8C0F9D1F25
:101B4000DF91CF91FF90EF90DF90CF90BF90AF905B
:101B50009F908F900895FC0144815581608171812F
:101B60008DE196E00C94970A8F929F92AF92BF926C
:101B7000CF92DF92EF92FF92CF93DF93EC018AAD89
:101B8000811130C0EE8DFF8DC080D180E280F38066
:101B9000CEA2DFA2E8A6F9A6EC8DFD8D8081918111
:101BA000A281B3818AA79BA7ACA7BDA78EA89FA837
:101BB000A8ACB9ACA5019401C701B6010E943F16BB
:101BC000181664F08AA89BA8ACA8BDA8A50194012A
:101BD000C701B6010E94CF1387FF04C08EA29FA247
:101BE000A8A6B9A681E08AAFDF91CF91FF90EF90D0
:101BF000DF90CF90BF90AF909F908F900895CF933C
:101C0000DF93CDEDD4E02697CE010E94290B84E02E
:101C1000C93BD807C1F78DED94E00E94290B83EEF4
:101C200094E00E94290B89EE94E00E94290B8FEE2C
:101C300094E00E94290B85EF94E00E94290B8BEF22
:101C400094E00E94290BC5E2D5E02697CE010E94C0
:101C5000290B85E0C130D807C1F7C9E4D5E0269744
:101C6000CE010E94290B85E0C532D807C1F78BE56C
:101C700095E00E94290B85E595E00E94290B8FE4F1
:101C800095E00E94290B89E495E00E94290B87E6E4
:101C900095E00E94290B81E695E00E94290BC1E99D
:101CA000D5E02697CE010E94290B85E0CD36D807D6
:101CB000C1F7DF91CF910895789484B5826084BD97
:101CC00084B5816084BD85B5826085BD85B5816040
:101CD00085BD80916E00816080936E0010928100BE
:101CE0008091810082608093810080918100816079
:101CF000809381008091800081608093800080913A
:101D0000B10084608093B1008091B00081608093C5
:101D1000B00080917A00846080937A0080917A008C
:101D2000826080937A0080917A00816080937A004B
:101D300080917A00806880937A001092C100CAE294
:101D4000D1E0199160E0812F0E94EB0A61E0812FC0
:101D50000E94A30B81E0C033D80799F761E084E0CB
:101D60000E94EB0A61E087E00E94EB0A61E083E0F9
:101D70000E94EB0A61E080E00E94EB0A61E081E0F2
:101D80000E94EB0A60E082E00E94EB0A61E082E0E0
:101D90000E94A30B20E042E060E18DE196E00E940A
:101DA000C1030E94120A80E090E0ACE0B2E48093AC
:101DB000D5059093D605A093D705B093D80581EEAD
:101DC00095E00E94B40D89E995E00E94B40D6CE0A5
:101DD000362E70E0472E70E0572E52E0252E0E94DE
:101DE0007F0A0E94120A80917D04882309F4C0C0F2
:101DF00080917C048111BCC020E030E040E050E4E0
:101E00006091D5057091D6058091D7059091D80540
:101E10000E942B159B01AC016091DD057091DE05E0
:101E20008091DF059091E0050E943F16181614F48A
:101E300061E001C060E087E00E94A30B20E030E099
:101E400040E050E46091D5057091D6058091D705AA
:101E50009091D8050E942B159B01AC0160919505CE
:101E60007091960580919705909198050E943F1674
:101E7000181614F461E001C060E083E00E94A30B37
:101E800080911B06882321F081EE95E00E94880551
:101E90008091D305882321F089E995E00E94880587
:101EA0006091D9057091DA058091DB059091DC0590
:101EB0000E94091685E00E94D30B609191057091F4
:101EC000920580919305909194050E94091686E0F1
:101ED0000E94D30B80917B048C3009F05BC00E9480
:101EE000A80200917E0410917F042091800430911B
:101EF000810408511C4F2F4F3F4F06171707280723
:101F0000390708F047C00E94A80260937E047093CE
:101F10007F0480938004909381048DE196E00E9479
:101F2000060388E891E00E94490C80E00E949C0C26
:101F30006091DD057091DE058091DF059091E005EF
:101F40000E94D70C88E991E00E94490C88E00E9429
:101F50009C0C6091950570919605809197059091E4
:101F600098050E94D70C8CE991E00E94490C12C0A0
:101F700060E070E085E00E94D30B60E070E086E0F6
:101F80000E94D30B60E087E00E94A30B60E083E037
:101F90000E94A30B0E947F0A90EAA92E94E0B92E1A
:101FA00007EA14E022E8E22E24E0F22E38E8832E3D
:101FB00034E0932E68014AE2642E41E0742EF3016E
:101FC00081913F010E947A0BEC01F501808190E044
:101FD000C817D90739F00E94A802F4016083718301
:101FE000828393830E94A802F4012191319141914F
:101FF00051914F01DC01CB01821B930BA40BB50B5C
:102000000697A105B10558F0F701808190E0C81747
:10201000D90729F0C083C13011F4F601C08381E0F3
:10202000CD2B09F480E0F50181935F01FFEFCF1A1A
:10203000DF0A8FEFE81AF80AE0E36E16E1E07E06A9
:1020400009F0BDCFC0E0D0E083E0F82EF801808138
:10205000882309F41FC2E0917B048E2F90E08E301C
:10206000910508F0D6C0FC01EE5BFF4F0C946B1697
:10207000209759F480917A04811103C020927A0448
:10208000DAC0815080937A04D6C08C2FC130D1053C
:1020900089F480917A04823019F410927A04B9C0DC
:1020A0008F5F80937A04B5C0209731F18C2FC130B7
:1020B000D10571F1823051F480E00CC0209709F411
:1020C0008BC08C2FC130D10509F491C0833009F049
:1020D000A0C081E00E94DB079CC0209769F3C1305B
:1020E000D10519F481E00E94DB07C330D10509F066
:1020F00090C010927B049FC080917904811104C02C
:10210000F1E0F093790497C081508093790493C0F3
:1021100080917904813019F4109279047AC08F5F2C
:102120008093790476C0209759F4809178048111C6
:1021300003C0209278047FC08150809378047BC0D4
:102140008C2FC130D10509F0B5CF80917804823051
:1021500019F4109278045DC08F5F8093780459C0A1
:10216000209759F480917704811103C0209277045D
:1021700062C08150809377045EC08C2FC130D1053E
:1021800009F098CF80917704823019F41092770487
:1021900040C08F5F809377043CC0209709F48CCFB8
:1021A000C130D10519F481E00E94DB07C330D105AD
:1021B00081F5F0927B043FC0209709F47DCFC130B8
:1021C000D10519F481E00E94DB07C330D10509F580
:1021D00084E080937B042FC08091A604811103C00A
:1021E0002092A60428C081508093A60424C0809128
:1021F000A604823019F41092A6040BC08F5F80935E
:10220000A60407C0209709F064CF81E00E94DB0795
:1022100012C0C430D10579F4E1E0E0937D048091EF
:102220007C0481111AC0FCE0F0937B0461E00E9401
:10223000A30B60E00FC0C530D10579F410927D0486
:1022400080917C04811109C010927B0460E00E949F
:10225000A30B61E081E00E94A30BF8011082E091E2
:102260007B048E2F90E08E30910508F013C1FC01A5
:10227000E05BFF4F0C946B168DE196E00E94060325
:1022800080917A04389EC001112483599A4F0E948C
:10229000AB0D80E00E949C0C80917A04389EC001B6
:1022A00011248D589A4FF1C08DE196E00E940603EB
:1022B00081E695E00E94AB0D80E00E949C0C60914D
:1022C000D5057091D6058091D7059091D8050E94CB
:1022D000D70C87E695E0D9C08DE196E00E94060311
:1022E00080917904389EC0011124875B9A4F0E9427
:1022F000AB0D80E00E949C0C80917904389EC00157
:102300001124815B9A4FC1C08DE196E00E940603C3
:1023100080917804389EC00111248B5D9A4F0E94F1
:10232000AB0D80E00E949C0C80917804389EC00127
:102330001124855D9A4FA9C08DE196E00E940603A5
:1023400080917704389EC00111248F5F9A4F0E94BC
:10235000AB0D80E00E949C0C80917704389EC001F8
:102360001124895F9A4F91C08DE196E00E94060387
:102370008BEF94E00E94AB0D80E00E949C0C60917A
:102380000D0170910E0180910F019091100163C0B9
:102390008DE196E00E94060385EF94E00E94AB0D6C
:1023A00080E00E949C0C609111017091120180915B
:1023B0001301909114014FC08DE196E00E94060335
:1023C0008FEE94E00E94AB0D80E00E949C0C609127
:1023D00015017091160180911701909118013BC071
:1023E0008DE196E00E94060389EE94E00E94AB0D19
:1023F00080E00E949C0C609101017091020180912B
:1024000003019091040127C08DE196E00E9406032C
:1024100083EE94E00E94AB0D80E00E949C0C6091E2
:10242000050170910601809107019091080113C088
:102430008DE196E00E9406038DED94E00E94AB0DC5
:1024400080E00E949C0C6091090170910A018091CA
:102450000B0190910C010E94D70C1CC08DE196E0FD
:102460000E9406038091A604389EC001112487545F
:102470009B4F0E94AB0D80E00E949C0C8091A604B3
:10248000389EC001112481549B4F0E94AB0D02C0A5
:102490000E94590A21960F5F1F4FC630D10509F0DF
:1024A000D5CD4114510409F49ACC0E94000095CC7A
:1024B000AF92BF92CF92DF92EF92FF920F931F9352
:1024C000EDEAF4E01382128288EE93E0A0E0B0E03F
:1024D00084839583A683B78384E391E0918380838B
:1024E000EDE1F6E01382128286E491E0918380832D
:1024F000108A8FEF87871686118A87E28387148672
:1025000015861286118684E0828B82E0838B81E0BF
:10251000848B80E1858B80E2868B80E4878B80E8EA
:10252000808F40E050E063E0CF010E94DC00A0908B
:102530001101B0901201C0901301D0901401E090ED
:102540000D01F0900E0100910F01109110011F92EA
:102550001F92809118018F93809117018F93809122
:1025600016018F93809115018F9325ED35E049ED8C
:1025700055E06DED75E081EE95E00E94E606A090D5
:102580000501B0900601C0900701D0900801E090CD
:102590000101F090020100910301109104011F92CA
:1025A0001F9280910C018F9380910B018F938091EA
:1025B0000A018F93809109018F9325ED35E041E960
:1025C00055E065E975E089E995E00E94E6066FE966
:1025D00071E08DE695E00E942E0B60EB71E083E7E1
:1025E00095E00E942E0B6EEB71E089E795E00E946A
:1025F0002E0B6BEC71E08FE795E00E942E0B63EDE4
:1026000071E085E895E00E942E0B6BED71E08BE8A0
:1026100095E00E942E0B6FE971E081E695E00E9443
:102620002E0B6CEE71E087E695E00E942E0B63EFB7
:1026300071E089E495E00E942E0B64E072E08FE483
:1026400095E00E942E0B65E172E085E595E00E9421
:102650002E0B66E272E08BE595E00E942E0B67E39D
:1026600072E085E295E00E942E0B66E472E08BE258
:1026700095E00E942E0B65E572E081E395E00E94F3
:102680002E0B64E672E087E395E00E942E0B63E771
:1026900072E08DE395E00E942E0B62E872E083E425
:1026A00095E00E942E0B61E972E081E095E00E94C6
:1026B0002E0B60EA72E087E095E00E942E0B6FEA35
:1026C00072E08DE095E00E942E0B6EEB72E083E1EC
:1026D00095E00E942E0B6DEC72E089E195E00E947E
:1026E0002E0B6CED72E08FE195E00E942E0B6BEEED
:1026F00072E08BEF94E00E942E0B6CEF72E085EF9E
:1027000094E00E942E0B6DE073E08FEE94E00E9447
:102710002E0B6EE173E089EE94E00E942E0B6FE2C7
:1027200073E083EE94E00E942E0B60E473E08DED85
:1027300094E00E942E0B61E573E089EB94E00E9427
:102740002E0B61E673E08FEB94E00E942E0B61E7A5
:1027500073E085EC94E00E942E0B60E873E08BEC54
:1027600094E00E942E0B6DE873E081ED94E00E94EE
:102770002E0B8DB79EB70C960FB6F8949EBF0FBE6A
:102780008DBF6EE973E087ED94E01F910F91FF908C
:10279000EF90DF90CF90BF90AF900C942E0B0E94E3
:1027A000111408F481E00895E89409C097FB3EF401
:1027B00090958095709561957F4F8F4F9F4F99238E
:1027C000A9F0F92F96E9BB279395F695879577950C
:1027D0006795B795F111F8CFFAF4BB0F11F460FFCC
:1027E0001BC06F5F7F4F8F4F9F4F16C0882311F024
:1027F00096E911C0772321F09EE8872F762F05C038
:10280000662371F096E8862F70E060E02AF09A95D2
:10281000660F771F881FDAF7880F9695879597F9C7
:102820000895990F0008550FAA0BE0E8FEEF161661
:102830001706E807F907C0F012161306E407F507B4
:1028400098F0621B730B840B950B39F40A2661F028
:10285000232B242B252B21F408950A2609F4A140CB
:10286000A6958FEF811D811D08950E9448140C9438
:10287000B9140E94AB1438F00E94B21420F09523D2
:1028800011F00C94A2140C94A81411240C94ED14BF
:102890000E94CA1470F3959FC1F3950F50E0551F25
:1028A000629FF001729FBB27F00DB11D639FAA27A5
:1028B000F00DB11DAA1F649F6627B00DA11D661FF4
:1028C000829F2227B00DA11D621F739FB00DA11D15
:1028D000621F839FA00D611D221F749F3327A00DCF
:1028E000611D231F849F600D211D822F762F6A2F6B
:1028F00011249F5750409AF0F1F088234AF0EE0FD0
:10290000FF1FBB1F661F771F881F91505040A9F7FC
:102910009E3F510580F00C94A2140C94ED145F3F7F
:10292000E4F3983ED4F3869577956795B795F79538
:10293000E7959F5FC1F7FE2B880F911D96958795B0
:1029400097F9089597F99F6780E870E060E008952F
:102950009FEF80EC089500240A94161617061806B7
:102960000906089500240A94121613061406050693
:102970000895092E0394000C11F4882352F0BB0F24
:1029800040F4BF2B11F460FF04C06F5F7F4F8F4F87
:102990009F4F089557FD9058440F551F59F05F3FC2
:1029A00071F04795880F97FB991F61F09F3F79F071
:1029B00087950895121613061406551FF2CF4695F3
:1029C000F1DF08C0161617061806991FF1CF869575
:1029D0007105610508940895E894BB276627772759
:1029E000CB0197F908952F923F924F925F926F9289
:1029F0007F928F929F92AF92BF92CF92DF92EF928F
:102A0000FF920F931F93CF93DF93CDB7DEB7CA1B0F
:102A1000DB0B0FB6F894DEBF0FBECDBF09942A883A
:102A2000398848885F846E847D848C849B84AA84E2
:102A3000B984C884DF80EE80FD800C811B81AA816F
:102A4000B981CE0FD11D0FB6F894DEBF0FBECDBF3A
:102A5000ED0108955058BB27AA270E9442150C94F7
:102A6000B9140E94AB1438F00E94B21420F039F46B
:102A70009F3F19F426F40C94A8140EF4E095E7FB9C
:102A80000C94A214E92F0E94CA1458F3BA176207D3
:102A900073078407950720F079F4A6F50C94EC14DD
:102AA0000EF4E0950B2EBA2FA02D0B01B901900169
:102AB0000C01CA01A0011124FF27591B99F0593FAD
:102AC00050F4503E68F11A16F040A22F232F342FF5
:102AD0004427585FF3CF469537952795A795F04043
:102AE0005395C9F77EF41F16BA0B620B730B840B58
:102AF000BAF09150A1F0FF0FBB1F661F771F881F10
:102B0000C2F70EC0BA0F621F731F841F48F4879567
:102B100077956795B795F7959E3F08F0B0CF939559
:102B2000880F08F09927EE0F9795879508950E94D2
:102B3000AB150C94B9140E94B21458F00E94AB1457
:102B400040F029F45F3F29F00C94A21451110C9429
:102B5000ED140C94A8140E94CA1468F39923B1F3DD
:102B6000552391F3951B550BBB27AA2762177307B3
:102B7000840738F09F5F5F4F220F331F441FAA1F47
:102B8000A9F335D00E2E3AF0E0E832D09150504003
:102B9000E695001CCAF72BD0FE2F29D0660F771FB1
:102BA000881FBB1F261737074807AB07B0E809F097
:102BB000BB0B802DBF01FF2793585F4F3AF09E3F1C
:102BC000510578F00C94A2140C94ED145F3FE4F3DB
:102BD000983ED4F3869577956795B795F7959F5F5F
:102BE000C9F7880F911D9695879597F90895E1E0AB
:102BF000660F771F881FBB1F621773078407BA070A
:102C000020F0621B730B840BBA0BEE1F88F7E09564
:102C100008950E9410166894B1110C94ED14089553
:102C20000E94D21488F09F5798F0B92F9927B75176
:102C3000B0F0E1F0660F771F881F991F1AF0BA9560
:102C4000C9F714C0B13091F00E94EC14B1E00895BE
:102C50000C94EC14672F782F8827B85F39F0B93FB0
:102C6000CCF3869577956795B395D9F73EF4909513
:102C70008095709561957F4F8F4F9F4F08950E946B
:102C8000111408F48FEF08950E941114880B990B0A
:102C90000895A1E21A2EAA1BBB1BFD010DC0AA1F9D
:102CA000BB1FEE1FFF1FA217B307E407F50720F0B5
:102CB000A21BB30BE40BF50B661F771F881F991F30
:102CC0001A9469F760957095809590959B01AC0179
:102CD000BD01CF010895EE0FFF1F0590F491E02D87
:102CE0000994CF93DF938230910510F482E090E055
:102CF000E0913806F091390620E030E0C0E0D0E005
:102D0000309711F14081518148175907C0F0481799
:102D1000590761F482819381209719F09B838A83FC
:102D20002BC0909339068093380626C021153105B3
:102D300019F04217530718F49A01BE01DF01EF01A1
:102D40000280F381E02DDCCF2115310509F1281B2C
:102D5000390B2430310590F412968D919C91139784
:102D60006115710521F0FB019383828304C0909368
:102D7000390680933806FD01329644C0FD01E20F0A
:102D8000F31F81939193225031092D933C933AC0C4
:102D90002091360630913706232B41F420911B01F8
:102DA00030911C013093370620933606209119018B
:102DB00030911A012115310541F42DB73EB74091EC
:102DC0001D0150911E01241B350BE0913606F09138
:102DD0003706E217F307A0F42E1B3F0B281739071D
:102DE00078F0AC014E5F5F4F2417350748F04E0F67
:102DF0005F1F50933706409336068193919302C02C
:102E0000E0E0F0E0CF01DF91CF9108950F931F93A1
:102E1000CF93DF93009709F48CC0FC0132971382A3
:102E2000128200913806109139060115110581F4BE
:102E300020813181820F931F209136063091370611
:102E40002817390779F5F0933706E093360671C0F5
:102E5000D80140E050E0AE17BF0750F412962D9114
:102E60003C911397AD012115310509F1D901F3CF3B
:102E70009D01DA013383228360817181860F971F60
:102E80008217930769F4EC0128813981260F371FD7
:102E90002E5F3F4F318320838A819B81938382837E
:102EA000452B29F4F0933906E093380642C0139677
:102EB000FC93EE931297ED01499159919E01240FD5
:102EC000351FE217F30771F480819181840F951FFC
:102ED000029611969C938E938281938113969C9374
:102EE0008E931297E0E0F0E0D80112968D919C91BC
:102EF0001397009719F0F8018C01F6CF8D919C91F2
:102F000098012E5F3F4F820F931F2091360630911C
:102F100037062817390769F4309729F410923906D3
:102F20001092380602C01382128210933706009363
:102F30003606DF91CF911F910F910895A0E0B0E088
:102F4000E4EAF7E10C94F714EC01009721F4CB01CB
:102F50000E947116B8C0FC01E60FF71F9C012250B9
:102F60003109E217F30708F4ACC0D9010D911C91A7
:102F7000119706171707B0F00530110508F49FC028
:102F8000C80104978617970708F499C002501109E1
:102F9000061B170B019311936D937C93CF010E9435
:102FA00006178DC05B01A01AB10A4C01800E911E5C
:102FB000A0913806B091390640E050E0E12CF12CA8
:102FC000109709F44AC0A815B905D1F56D907C9009
:102FD0001197630182E0C80ED11CCA14DB0480F192
:102FE000A3014A195B096A0182E0C80ED11C12963E
:102FF000BC9012971396AC91B5E0CB16D10440F07B
:10300000B282A38351834083D9016D937C930AC01C
:103010000E5F1F4FC301800F911FF90191838083C1
:10302000EB2DFA2FE114F10431F0D7011396FC9344
:10303000EE93129744C0F0933906E09338063FC0F0
:103040008D919C9111974817590708F4AC017D01A7
:1030500012960D90BC91A02DB3CF80913606909121
:10306000370688159905E1F446175707C8F480918B
:10307000190190911A01009741F48DB79EB74091C4
:103080001D0150911E01841B950BE817F907C8F428
:10309000F0933706E0933606F901718360830FC021
:1030A000CB010E9471167C01009759F0A801BE0166
:1030B0000E946D18CE010E940617C70104C0CE0100
:1030C00002C080E090E0CDB7DEB7EEE00C941315BF
:1030D00081E090E0F8940C947D18FB01DC0102C0C3
:1030E00001900D9241505040D8F70895FB01DC014A
:1030F00001900D920020E1F7089510E0CCE8D0E0B7
:1031000004C0FE010E946B162196CD38D107C9F785
:04311000F894FFCF61
:10311400010000803F000000400000803F000000EC
:10312400400000A0400000803F00003A06800008F4
:10313400090A050607030401020B08090A0B0C0D12
:10314400000000008B015B01A5022F0153013F0128
:10315400300100000000F000970AA502A402C10398
:10316400DC008A026902205761726E696E67204131
:103174006C61726D2120002053797374656D205346
:10318400746F70706564200020204552525F436F55
:1031940064652078787820002053797374656D20F5
:1031A40052756E6E696E6700204320002043003D17
:1031B4003E5365742054656D707265747572650054
:1031C400202041646A6573742050494473003D3E75
:1031D40041646A6573742050494400202041626F41
:1031E4007574003D3E41626F757400202053657410
:1031F4002054656D70726574757265002020446595
:103204006743003D3E5049447320546F70486561E4
:103214007465720020205049447320426F744865DD
:1032240061746572003D3E5049447320426F744896
:1032340065617465720020205049447320546F7096
:10324400486561746572003D3E546F7048656174F1
:103254006572204B70002020546F7048656174655E
:1032640072204B69003D3E546F704865617465720D
:10327400204B69002020546F70486561746572208A
:103284004B64003D3E546F70486561746572204B19
:1032940064002020546F70486561746572204B701F
:1032A400003D3E426F74486561746572204B700046
:1032B4002020426F74486561746572204B69003D3B
:1032C4003E426F74486561746572204B690020202A
:1032D400426F74486561746572204B64003D3E42E0
:1032E4006F74486561746572204B64002020426FDE
:1032F40074486561746572204B7000536574205482
:103304006F70486561746572204B7000536574205A
:10331400546F70486561746572204B69005365741D
:1033240020546F70486561746572204B6400536566
:103334007420426F74486561746572204B70005349
:10334400657420426F74486561746572204B69002E
:1033540053657420426F74486561746572204B64D0
:10336400002057656C636F6D6520746F205049446D
:103374000020436F6E74726F6C6C657220535953E6
:103384000020536F6677617265202056312E31001C
:103394002048617264776172652056310020532F92
:1033A4005720616E6420482F572062792000202026
:1033B4004D6F68616D6564204173696D006E616E67
:0A33C40000696E66006F7666000077
:00000001FF
