:100000000C948D010C94130A0C94EC090C94B5011A
:100010000C94B5010C94B5010C94B5010C943A0AFA
:100020000C94B5010C94B5010C94B5010C94B50178
:100030000C94B5010C94B5010C94B5010C94B50168
:100040000C94B81D0C94B5010C94B5010C94B50139
:100050000C94B5010C94B5010C94B5010C94B50148
:100060000C94B5010C94B501A412AE12F312D61281
:10007000C712F312FD120C13201339131F1F1F0098
:1000800000000000181C1E1F1F1F1F1F1F1F1F1F07
:100090001F0F070300000000001F1F1F1F1F1F1F4F
:1000A0001F1E1C181F1F1F0000001F1F1F00000025
:1000B000001F1F1F03070F1F1F1F1F1F02202000ED
:1000C0000000000000FF0700000000000005052000
:1000D000200000000004FF04FF0401FF0108FF06E8
:1000E00007FF0500000120040104012004080602A6
:1000F000200307020405200000000000000801039F
:1001000004000000000102040500000000010404D6
:10011000010401010404FF0401FF010000200500A7
:10012000000000000004040420202000002004003F
:10013000000000000020200401040120200801022A
:10014000030405000001022004FF0400000606026B
:10015000FF0707000001060204070500000304FF73
:100160002020FF0000FF060607070500000806061E
:100170000307050000010102200820000008060214
:1001800003070500000806020707050000A5A500F3
:100190000000000000040500000000000020040131
:1001A0000101040000040404010101000001042015
:1001B00004010100000106022007200000080602D9
:1001C0000304040000080602FF20FF0000FF0605EC
:1001D000FF070200000801010304040000FF010200
:1001E000FF04050000FF0606FF07070000FF0606E4
:1001F000FF202000000801010304020000FF04FFAB
:10020000FF20FF000001FF0104FF0400002020FF89
:100210000404050000FF0405FF20020000FF202069
:10022000FF0404000008030502FF2020FFFF022056
:10023000FFFF2003FF080102030405000008060277
:10024000FF20200000080102200304FF04FF060233
:10025000FF20020000080606070705000001FF0155
:1002600020FF200000FF20FF0304050000032020E2
:100270000520020820FF2020FF03080205030405D3
:10028000082002000003040520FF200000010605ED
:100290000807040000FF01FF040000000001042023
:1002A000202020010401FF04FF00000000080220BC
:1002B00020000000002020200404040000000000B2
:1002C00000240027002A0000000000250028002B41
:1002D0000000000000230026002900040404040498
:1002E00004040402020202020203030303030301E3
:1002F00002040810204080010204081020010204BA
:10030000081020000000080002010000030407009C
:100310000000000000000000CD2C11241FBECFEF14
:10032000D8E0DEBFCDBF14E0A0E0B1E0E8EEF2E639
:1003300002C005900D92AC39B107D9F725E0ACE9C0
:10034000B4E001C01D92A238B207E1F711E0CDE898
:10035000D1E004C02197FE010E943230CC38D10791
:10036000C9F70E94021E0C9472310C9400002F9267
:100370003F924F925F926F927F928F929F92AF9235
:10038000BF92CF92DF92EF92FF920F931F93CF9382
:10039000DF93CDB7DEB7CA54D1090FB6F894DEBFEC
:1003A0000FBECDBF60E0809156050E94341C8FE9DE
:1003B0009FE00197F1F700C000000E943F1A082F4C
:1003C00010E0102F00270E943F1A082B61E0809157
:1003D00056050E94341C02FD13C0B80133E0769527
:1003E00067953A95E1F780E090E00E94EE2E20E0DC
:1003F00030E040E85EE30E94A52F6B017C0106C05F
:10040000C12CD12C20ECE22E2FE7F22EC0929C04BE
:10041000D0929D04E0929E04F0929F0420E030E090
:10042000A901C701B6010E94482E18160CF43AC75C
:10043000A0915205B0915305BCA3ABA32D903C9065
:10044000F101309729F100811181D8018D919C91A2
:10045000019701F56091DB047091DC04072E000C1C
:10046000880B990B0E94F02E4B015C01A7019601AD
:1004700060E070E0CB010E94DB2D9B01AC01C50167
:10048000B4010E94DC2DF801628373838483958319
:10049000910109C00280F381E02DD3CFD9011296DA
:1004A0002D913C91139721153105B1F0F901A081EF
:1004B000B18116960D90BC91A02D109779F38D9176
:1004C0009C911197FC01108A118A128A138A129644
:1004D0000D90BC91A02DF1CFEBA1FCA10280F38186
:1004E000E02DF8A7EFA39F012115310509F483C082
:1004F000F901A081B18116960D90BC91A02D1097A5
:1005000069F08D919C911197FC01108A118A128AD1
:10051000138A12960D90BC91A02DF1CFD90112969D
:100520002D913C911397E0CFA9A5BAA51296CD9035
:10053000DD90ED90FC901597FA0100811181D801B2
:100540004D905D906D907C90A3019201C701B60122
:100550000E94482EF80184809580A680B78087FD90
:1005600059C0A3019201C701B6010E94A02F87FDC7
:1005700071C0A5019401C701B6010E94482E87FFF2
:1005800069C0A3019201C501B4010E94DB2D9B014A
:10059000AC0160E070E080E89FE30E944D2E2B01EB
:1005A0003C01A5019401C701B6010E94DB2D9B010E
:1005B000AC01C301B2010E94A52F20E030E040E869
:1005C0005FE30E94DC2DD80150966D937D938D934F
:1005D0009C935397AB8DBC8D12960D90BC91A02D22
:1005E000BC8FAB8F4B8D5C8D4115510509F09CCFB5
:1005F000F101228033802114310409F4CAC0F101D1
:100600000190F081E02DFAA7E9A7268137813C8F80
:100610002B8FE8CFA5019401C301B2010E94482E9F
:100620008111B1C0D8011896CD90DD90ED90FC906D
:100630001B97A7019601C501B4010E94482E88238B
:1006400009F4A1C0F8012485358546855785C70181
:10065000B60189C0A5019401C701B6010E94A02F6F
:1006600087FD0CC0F8012085318542855385C7017F
:10067000B6010E94482E18160CF079C0D8011896C1
:100680002D913D914D915C911B972F8B388F498F08
:100690005A8FC701B6010E94A02FD8011C962D9138
:1006A0003D914D915C911F972F8F38A349A35AA379
:1006B0001816A4F5C701B6010E94482E181674F149
:1006C0002F8D38A149A15AA16F89788D898D9A8D76
:1006D0000E94DB2D9B01AC0160E070E080E89FE3AD
:1006E0000E944D2E4B015C012F89388D498D5A8D0A
:1006F000C701B6010E94DB2D9B01AC01C501B4010D
:100700000E94A52F20E030E040E85FE30E94DC2D4E
:10071000F801608B718B828B938B5CCF2F8D38A10E
:1007200049A15AA1C701B6010E94A02F18160CF0CA
:1007300051CF2F8D38A149A15AA16F89788D898D0C
:100740009A8D0E94482E81111EC02F89388D498DA7
:100750005A8DC501B4010E94482E8823A1F0A5013D
:100760009401C301B2010E94482E882361F020E069
:1007700030E040E85FE3D80150962D933D934D93D0
:100780005C93539727CFF801108A118A128A138A33
:1007900021CFABA1BCA114960D911C911597772484
:1007A00073940115110579F4FE013996FA8BE98BE2
:1007B0009E01235F3F4F3C8B2B8BAE014B5F5F4F06
:1007C0005E8B4D8B4BC0D801ED90FC90F70183817F
:1007D00094810097B9F1C580D680C114D10491F1FC
:1007E0000E94BA0A4B015C0120E030E0A9010E949E
:1007F000A02F181624F4D70112967C9202C0F7019C
:100800001282D601ED90FC90E114F104D9F0F701C9
:10081000C080D180D60150962D913D914D915C9133
:100820005397C501B4010E94A02F18162CF4F601AD
:10083000808A918AA28AB38AD7011296ED90FC90A1
:100840001397E2CFF80102811381ABCFAFA1B8A516
:1008500012960D90BC91A02DB8A7AFA32FA138A5DB
:100860002115310509F4B4C3D9016D907C90F301D1
:1008700000851185D8016D917C91C8010E946D0D94
:10088000F80111821082D30116964D905C90179753
:100890004114510409F48FC1F2010081118120E05B
:1008A00030E0A901D80150966D917D918D919C9178
:1008B00053970E94A02F18160CF077C1F801C08042
:1008C000D180E280F380A7019601648175818681E1
:1008D00097810E94482E882361F000E010E0980183
:1008E000B701A601D30118968D919C9119970E948A
:1008F0007F0DF20100811181D8011496CD90DD9019
:10090000ED90FC901797A701960118966D917D9137
:100910008D919C911B970E94482E81112FC0F80148
:10092000F081FF8BD8011196BC91BB8FF80132800A
:100930002380F485FF8FD8011D96BC91BBA3F801DD
:10094000F685F9A7D8011F96BC907F896B8DC101F0
:10095000272F362F492F582FBF8DABA16B2F7A2F02
:100960008F2F9B2D0E94482E8111E8C0D8015096F0
:100970000D911D912D913C915397F5C0D801509642
:100980008C90509751969C9051975296AC9052975C
:100990005396BC9020E030E040E85FE3682D792D6D
:1009A0008A2D9B2D0E94482E811117C000E010E077
:1009B00020E83FE3B701A601F301808591850E94FD
:1009C0007F0DD201ED91FC91008911892289338933
:1009D0004085518562857385C8C0CD86DE86EF86E9
:1009E000F88A9401F501C901DF0189879A87AB87ED
:1009F000BC87D8017C9111966C91119712965C91ED
:100A0000129713964C91BA89BF9389898F939C89C9
:100A10009F93AB89AF93FF93EF933F932F93D801AD
:100A20001F968C911F978F931E968C911E978F9374
:100A30001D968C911D978F931C968C918F93FF938D
:100A4000EF933F932F934F935F936F937F93812CFB
:100A5000912C80E8A82E8FE3B82E00E010E09801DA
:100A6000FB01CA014F2F5E2F692F782FC3010E940F
:100A70000F0C09851A852B853C854D855E856F8514
:100A80007889F301808591850E947F0DD201ED91D7
:100A9000FC9140855185628573854D835E836F83AC
:100AA0007887B089A189928983892B2F3A2F8C016D
:100AB000C901A12FB02F89839A83AB83BC83E484BF
:100AC000F584B685A78581E090E08C0F9D1F9F93EC
:100AD0008F939E899F938D898F930F931F933F933D
:100AE0002F93AF93BF93FF92EF920F931F933F9378
:100AF0002F9383818F9382818F9381818F938081C4
:100B00008F93812C912C5401CD01CE2CDF2CE92E1A
:100B1000F82E00E010E020E83FE3C3010E940F0C34
:100B20000FB6F894DEBF0FBECDBF09811A812B81AD
:100B30003C814D815E816F81788517C0F801A08866
:100B400091888288138920E030E040E85FE36A2DD5
:100B5000792D882D912F0E94482E8111A6C300E087
:100B600010E020E83FE3B701A601F30180859185FD
:100B70000E947F0DD201ED91FC91C484D584E6845E
:100B8000F7842085318542855385C701B6010E94CF
:100B9000482E882351F000E010E09801B701A6012B
:100BA000F301808591850E947F0DD20112964D90B0
:100BB0005C9013976DCEF3010084F185E02D2796AC
:100BC000FFAFEEAF27972081318138A32F8F4F8D54
:100BD00058A14115510509F439CE1A01D1010D91E1
:100BE0001C9111970115110509F4EAC112962D9176
:100BF0003D914D915C91159729A73AA74BA75CA70A
:100C0000F801228133814481558169A57AA58BA59C
:100C10009CA50E94482E87FD02C01801DFCF388EA8
:100C20002F8AAF89B88D0D90BC91A02DB88FAF8B56
:100C3000109709F4C5C1ED91FC91FCA3EBA330978B
:100C400081F3D1011A960D90BC91A02DBEA7ADA73E
:100C5000D10116962D913D914D915C91199729AB3B
:100C60003AAB4BAB5CABAF89B88D12962D913D91F1
:100C70004D915C9115972DAB3EAB4FAB58AF16968F
:100C80002D913D914D915C91199729AF3AAF4BAFA2
:100C90005CAF66817781808591850E94DB2D2B96E4
:100CA0006CAF7DAF8EAF9FAF2B9729A53AA54BA513
:100CB0005CA5EDA5FEA562817381848195810E946A
:100CC000DB2D21966CAF7DAF8EAF9FAF21972DA905
:100CD0003EA94FA958ADABA1BCA112966D917D91D3
:100CE0008D919C9115970E94DB2D2B013C0129A928
:100CF0003AA94BA95CA9EDA5FEA5668177818085FF
:100D000091850E94DB2D25966CAF7DAF8EAF9FAF96
:100D1000259721962CAD3DAD4EAD5FAD21972B961D
:100D20006CAD7DAD8EAD9FAD2B970E94A52F6B0155
:100D30007C0125962CAD3DAD4EAD5FAD2597C30131
:100D4000B2010E94A52F9B01AC01C701B6010E9410
:100D5000DB2D6B8F7C8F8D8F9E8F20E030E0A90183
:100D60000E94482E87FF09C02B8D3C8D4D8D5E8DD6
:100D700050582B8F3C8F4D8F5E8F2FE632E143E82A
:100D80005AE36B8D7C8D8D8D9E8D0E94482E87FD44
:100D900048CF29AD3AAD4BAD5CAD69A97AA98BA915
:100DA0009CA90E94DB2D4B015C012DA93EA94FA9F6
:100DB00058AD69A57AA58BA59CA50E94DB2D6B017A
:100DC0007C01A5019401C301B2010E94A52F2B0152
:100DD0003C01A70196012B966CAD7DAD8EAD9FAD0C
:100DE0002B970E94A52F9B01AC01C301B2010E9469
:100DF000DB2D2B013C0120E030E0A9010E94482EB0
:100E000087FF04C077FA709477F87094A501940175
:100E100021966CAD7DAD8EAD9FAD21970E94A52F23
:100E20004B015C01A701960125966CAD7DAD8EADA1
:100E30009FAD25970E94A52F9B01AC01C501B40170
:100E40000E94DB2D6B017C0120E030E0A9010E94B3
:100E5000482E87FF04C0F7FAF094F7F8F0942B8D32
:100E60003C8D4D8D5E8DC301B2010E944D2E4B0114
:100E70005C0120E030E0A9010E94482E87FDD1CE20
:100E800020E030E040E85FE3C501B4010E94A02FFC
:100E900018160CF4C6CE2B8D3C8D4D8D5E8DC70182
:100EA000B6010E944D2E6B017C0120E030E0A901CB
:100EB0000E94482E87FDB5CE20E030E040E85FE399
:100EC000C701B6010E94A02F18160CF4AACE8CE020
:100ED00090E00E944C308C01009709F4A2CEEBA167
:100EE000FCA1DC01ED93FC93A501940121966CAD6E
:100EF0007DAD8EAD9FAD21970E94A52F29A53AA566
:100F00004BA55CA50E94DC2DD80112966D937D93B4
:100F10008D939C931597A501940125966CAD7DAD9D
:100F20008EAD9FAD25970E94A52F29A93AA94BA95F
:100F30005CA90E94DC2DF801668377838087918706
:100F40002DA53EA533872287ABA1BCA11B961C9380
:100F50000E931A97F90111830083D1011296CD9057
:100F6000DD90ED90FC90159716968D909D90AD902C
:100F7000BC9019970C9111961C91C1010E94E4300C
:100F8000A70196016DA97EA98FA998AD0E94482E50
:100F900081110AC0A501940169AD7AAD8BAD9CADFC
:100FA0000E94482E882319F01801012BB1F62796CC
:100FB000AEADBFAD27970D90BC91A02DB8A3AF8F5C
:100FC000EF8DF8A10284F385E02DF8A3EF8FFFCD1C
:100FD000E0915205F09153050280F381E02D3097A6
:100FE00009F455C1A081B1818D919C911197019710
:100FF00099F71896ED91FC911997008111811BA228
:101000001CA21DA21EA219A61AA61BA61CA601158B
:10101000110509F426C1F801228433842114310416
:1010200011F48101F4CFC280D380E480F580D10136
:1010300012968D909D90AD90BC901597A50194014E
:10104000C701B6010E94482EF801F681FF8BD80136
:101050001796BC91BB8FF801F085FFA3D8011996B4
:10106000BC91BF8F811105C0AF88BB8C0F2F1B2F88
:10107000D9C020E030E0A9016F897B8D8FA19F8DC1
:101080000E94482E882371F0F101468057806084C9
:10109000718420E030E0A901C301B2010E94482E12
:1010A000811151C020E030E0A9016F897B8D8FA1B3
:1010B0009F8D0E94A02F181674F0D1011696BC9136
:1010C000BDA7F101F781F9ABD10118960C911897E2
:1010D00019961C9106C0BF89BDA7EB8DE9AB0FA186
:1010E0001F8DA7019601C501B4010E94DB2D2B01C4
:1010F0003C012DA539A9A8010E94A52F20E030E0D0
:1011000040E05FE30E94A52F5B018C01D1011696A0
:101110002D913D914D915C9119976F897B8D8FA198
:101120009F8D0E94482E87FF05C020E030E040ECF4
:101130005FE304C020E030E040E450E4C301B201CA
:101140000E944D2E67C020E030E0A9016F897B8DA1
:101150008FA19F8D0E94A02F181664F520E030E02B
:10116000A901C301B2010E94A02F18161CF5A3010A
:1011700092016F897B8D8FA19F8D0E94482EA701C0
:10118000960181111FC0C501B4010E94DB2D2B0106
:101190003C019B01AC016F897B8D8FA19F8D0E94CB
:1011A000A52F5B018C0120E030E040E05FE3C3014C
:1011B000B2012EC0C12CD12C7601A12CB12C00E0A3
:1011C00010E030C0C501B4010E94DB2D6DA77EA7E1
:1011D0008FA798ABA30192016F897B8D8FA19F8D03
:1011E0000E94DC2D20E030E040E05FE30E94A52F6C
:1011F0002DA53EA54FA558A90E94A52F5B018C01E6
:1012000020E030E040E05FE36DA57EA58FA598A9C2
:101210000E94A52F9B01AC01C701B6010E94DC2DE5
:101220006B017C01A7019601B501C8010E94A52FA1
:101230009B01AC0169A57AA58BA59CA50E94DC2D1C
:1012400069A77AA78BA79CA79501A8016BA17CA190
:101250008DA19EA10E94DC2D6BA37CA38DA39EA3D8
:10126000E0CE20E030E0A9016BA17CA18DA19EA180
:101270000E94482E882359F02BA13CA14DA15EA1CC
:1012800069A57AA58BA59CA50E944D2E03C060E0A0
:1012900070E0CB010E94BF2E6093F70481E0809341
:1012A000F1044FC01092F1044CC0CD86DE86EF866B
:1012B000F88A2A2D392D482D512FC901DA01898745
:1012C0009A87AB87BC87FA89FF9389898F939C891A
:1012D0009F93AB89AF931F938F929F92AF92BF92D0
:1012E000B9A5BF93EBA1EF93FF8DFF931F938F924F
:1012F0009F92AF922F923F922B8D2F933F893F93D6
:10130000812C912C90E8A92E9FE3B92E00E010E0EB
:101310009801FF89EB8DC1014F2F5E2F692F722D30
:10132000C3010E940F0C09851A852B853C854D85CC
:101330005E856F857889D30118968D919C91199758
:10134000A3CBC65BDF4F0FB6F894DEBF0FBECDBF99
:10135000DF91CF911F910F91FF90EF90DF90CF9091
:10136000BF90AF909F908F907F906F905F904F90C5
:101370003F902F9008950895CF92DF92EF92FF92C1
:101380000F931F93CF93DF936C017A018B01C0E021
:10139000D0E0CE15DF0581F0D8016D918D01D60129
:1013A000ED91FC910190F081E02DC6010995892B0A
:1013B00011F02196EECF7E01C701DF91CF911F91F1
:1013C0000F91FF90EF90DF90CF900895089580E007
:1013D00090E008950E946D311F920F920FB60F9208
:1013E00011242F933F934F935F936F937F938F932A
:1013F0009F93AF93BF93EF93FF93E0910201F0911E
:1014000003010995FF91EF91BF91AF919F918F914A
:101410007F916F915F914F913F912F910F900FBEF0
:101420000F901F9018951F920F920FB60F921124D4
:101430002F933F934F935F936F937F938F939F93DC
:10144000AF93BF93EF93FF93E0910001F0910101FF
:101450000995FF91EF91BF91AF919F918F917F91EE
:101460006F915F914F913F912F910F900FBE0F9011
:101470001F9018951F920F920FB60F9211242F9361
:101480003F934F935F936F937F938F939F93AF930C
:10149000BF93EF93FF938091F3049091F404A09194
:1014A000F504B091F604892B8A2B8B2B49F190918E
:1014B000F204809100008927809300008091F3045A
:1014C0009091F404A091F504B091F6041816190651
:1014D0001A061B060CF03DC08091F3049091F404B1
:1014E000A091F504B091F6040197A109B109809388
:1014F000F3049093F404A093F504B093F60429C088
:1015000080910801ECEBF0E0E4919FEF90930801EB
:10151000E130B9F098F0E230C9F4909170009D7F0D
:101520009093700091E09093B0009091B100987FFB
:1015300094609093B1001092B30008C010926E00B6
:1015400005C090916F009D7F90936F0060E00E94B6
:10155000341CFF91EF91BF91AF919F918F917F913B
:101560006F915F914F913F912F910F900FBE0F9010
:101570001F9018956F927F928F929F92AF92BF9219
:10158000CF92DF92EF92FF920F931F93CF93DF934F
:10159000EC018A819B818230910599F054F4019786
:1015A00009F0E1C0EC81FD81E088F18802891389AE
:1015B00025C18330910509F44DC0049709F490C00A
:1015C000D2C0888199818130910519F0029711F17B
:1015D000CAC0EC81FD81A088B188C288D38820E090
:1015E00030E0A901B501C6010E94A02F18160CF029
:1015F000BAC0EE81FF81E088F1880289138920E07A
:1016000030E0A901B701C8010E94A02F18160CF400
:10161000AFC0A9C0EC81FD81A088B188C288D38801
:1016200020E030E0A901B501C6010E94A02F0E8084
:10163000DF81C02D18160CF4A4C020E030E0A90111
:10164000688979898A899B890E94A02F18160CF4D1
:1016500098C089C0888199818130910519F00297DD
:1016600009F181C0EC81FD81E088F188028913894C
:1016700020E030E0A901B701C8010E94A02F181690
:101680000CF071C0C884D984C6010E94BA0A4B010B
:101690005C0120E030E0A9010E94A02F18160CF494
:1016A0007FC061C0EC81FD81E088F18802891389E7
:1016B00020E030E0A901B701C8010E94A02FC88432
:1016C000D98418160CF475C0C6010E94BA0A20E02D
:1016D00030E0A9010E94A02F18160CF46AC043C084
:1016E000888199818130910519F0029701F13BC001
:1016F00008851985C8010E94BA0A6B017C0120E0A7
:1017000030E0A9010E94A02F18166CF57A846B8432
:10171000872D962D0E94BA0A4B015C0120E030E033
:10172000A9010E94A02F18160CF44EC01CC0E8841A
:10173000F984C7010E94BA0A4B015C0120E030E045
:10174000A9010E94A02F0A851B8518160CF449C018
:10175000C8010E94BA0A20E030E0A9010E94A02F2F
:1017600018160CF43EC0E12CF12C00E010E046C04D
:101770009701A801B501C6010E94482E87FF3EC00F
:101780000CC0E888F9880A891B899701A801B5016E
:10179000C6010E94A02F18168CF5750186012EC077
:1017A0009701A801C501B4010E94A02F181654F496
:1017B00025C0C6010E94BA0A9701A8010E94482EBE
:1017C00087FD1CC0E601E5CEA5019401C701B60165
:1017D0000E94482E87FD03C0C72DD62DDACEE80122
:1017E000D8CEC8010E94BA0A9B01AC01C501B40160
:1017F0000E94A02F18169CF7E701CBCEB701C801B5
:10180000DF91CF911F910F91FF90EF90DF90CF90DC
:10181000BF90AF909F908F907F906F9008954F9260
:101820005F926F927F928F929F92AF92BF92CF9270
:10183000DF92EF92FF920F931F93CF93DF93CDB779
:10184000DEB768970FB6F894DEBF0FBECDBF4D87E9
:101850005E876F87788B098B1A8B2B8B3C8B2FA520
:1018600038A949A95AA96FA978AD89AD9AAD0E9446
:10187000DB2D6D8B7E8B8F8B988F2D853E854F85D5
:101880005889C701B6010E94DB2D6D837E838F834B
:1018900098872BA53CA54DA55EA56BA97CA98DA914
:1018A0009EA90E94DB2D6B017C0129893A894B8915
:1018B0005C89C501B4010E94DB2D69877A878B871B
:1018C0009C872D813E814F8158856D897E898F89C6
:1018D000988D0E94A52F4B015C0129853A854B8587
:1018E0005C85C701B6010E94A52F9B01AC01C50113
:1018F000B4010E94DB2D2B013C0120E030E0A90166
:101900000E94482E87FF04C077FA709477F870948D
:101910002FE632E143E85AE3C301B2010E94482EA8
:1019200087FDC3C02FA538A949A95AA969897A8911
:101930008B899C890E94DB2D4B015C012BA53CA56A
:101940004DA55EA56D857E858F8598890E94DB2DCE
:1019500069837A838B839C83A5019401C701B601B7
:101960000E94A52F6B017C0129813A814B815C810A
:101970006D897E898F89988D0E94A52F9B01AC016E
:10198000C701B6010E94DB2D6B017C0120E030E035
:10199000A9010E94482E87FF04C0F7FAF094F7F8D7
:1019A000F094A50194016D817E818F8198850E94BC
:1019B000A52F4B015C0129813A814B815C816985AE
:1019C0007A858B859C850E94A52F9B01AC01C50162
:1019D000B4010E94DB2D4B015C0120E030E0A90145
:1019E0000E94482E87FF04C0B7FAB094B7F8B094AD
:1019F000A3019201C701B6010E944D2E6B017C012B
:101A000020E030E0A9010E94482E87FD4EC020E072
:101A100030E040E85FE3C701B6010E94A02F18162E
:101A20000CF443C0A3019201C501B4010E944D2EE4
:101A30004B015C0120E030E0A9010E94482E87FDA7
:101A400034C020E030E040E85FE3C501B4010E940B
:101A5000A02F181654F1A70196016D817E818F8108
:101A600098850E94A52F2D853E854F8558890E9417
:101A7000DC2DEBADFCAD6083718382839383A70182
:101A8000960169857A858B859C850E94A52F298979
:101A90003A894B895C890E94DC2DEDADFEAD6083F7
:101AA00071838283938381E001C080E068960FB6E2
:101AB000F894DEBF0FBECDBFDF91CF911F910F9184
:101AC000FF90EF90DF90CF90BF90AF909F908F905E
:101AD0007F906F905F904F900895CF93DF93611543
:101AE000710551F0EB016A857B850E946D0DCE0179
:101AF000DF91CF910C94E430DF91CF9108958F92D4
:101B00009F92AF92BF92CF92DF92EF92FF920F938C
:101B10001F93CF93DF93EC014A015B0168017901C8
:101B20008CE090E00E944C30FC01009719F111828A
:101B3000108282829382A482B582C682D782E08696
:101B4000F18613861286A881B981109719F49983BA
:101B500088830EC01A968D919C911B97009711F067
:101B6000DC01F8CFB183A0831B96FC93EE931A9708
:101B700081E001C080E0DF91CF911F910F91FF9034
:101B8000EF90DF90CF90BF90AF909F908F9008958F
:101B9000CF92DF92EF92FF920F931F93CF93DF9339
:101BA000EC01C62E0B854111016010E061E08E81D1
:101BB0000E94341C80E1C89E6001112498012260BB
:101BC000DC2CD22A2D2D40E06C818D810E94631C7B
:101BD00060E08E810E94341C83E2E82EF12CC70164
:101BE0000197F1F761E08E810E94341C0D7F2C2D4E
:101BF000202B40E06C818D810E94631C60E08E810F
:101C00000E94341CC7010197F1F761E08E810E94A8
:101C1000341C2D2D40E06C818D810E94631C60E09E
:101C20008E810E94341C8BE891E00197F1F7DF91DF
:101C3000CF911F910F91FF90EF90DF90CF9008957B
:101C4000CF92DF92EF92FF920F931F93CF93DF9388
:101C5000EC01162FF42E888584FF56C001E0411157
:101C600001C000E061E08E810E94341CC02ED12CA6
:101C70006894C1F82C2D40E06C818D810E94631C1A
:101C8000212F40E06C818D810E94631C60E08E8179
:101C90000E94341C61E08E810E94341C202F40E0A1
:101CA0006C818D810E94631C212F40E06C818D81AD
:101CB0000E94631C60E08E810E94341C9FE0E92E2C
:101CC000F12CC7010197F1F761E08E810E94341C6D
:101CD0002C2D40E06C818D810E94631C212F40E0FF
:101CE0006C818D810E94631C60E08E810E94341C97
:101CF000C7010197F1F7DF91CF911F910F91FF90ED
:101D0000EF90DF90CF90089570E084E0759567952F
:101D10008A95E1F7CE010E94C80D4F2D612FCE01AB
:101D2000DF91CF911F910F91FF90EF90DF90CF90B7
:101D30000C94C80D41E00E94200E81E090E00895CF
:101D4000CF93DF93EC018A8180FF02C0826001C0E3
:101D50008D7F8A8388810E940B1C498150E02A81F3
:101D60008417950711F42E7F01C021602A838A8190
:101D7000282F30E0A901559547952427352720FFC6
:101D800027C080FF11C08F8598890196988B8F8717
:101D9000EF81F885309711F0CE0109950E94AC1DB6
:101DA0007C836B83198A10C0E985FA85309711F01E
:101DB000CE010995EB85FC85309711F0CE01099590
:101DC0008FEF9FEF9C838B838A8184608A8324C0FA
:101DD0008B7F8A838B819C810196F1F089898111A7
:101DE0001BC00E94AC1D2B813C81AB01BC01421B7E
:101DF000530B610971098D819E81A0E0B0E08417C9
:101E00009507A607B70740F4ED85FE85309721F0CA
:101E1000CE01099581E0898B8A818170DF91CF9114
:101E20000895CF93DF93EC010E94A00E882321F048
:101E30008A8182FB882780F9DF91CF910895809174
:101E40000601813009F054C01092D70460E08BE0A5
:101E50000E942C196BE08CEA93E00E94721B809127
:101E6000D904813029F460E087E090E00E949B1A59
:101E70008091D904823029F460E085E090E00E94EE
:101E80009B1A8091D904833029F460E084E090E0CB
:101E90000E949B1A8091D904843029F460E086E086
:101EA00090E00E949B1A8091D904853051F460E043
:101EB00083E090E00E949B1A60E087E090E00E943F
:101EC0009B1A8091D904863039F460E088E090E074
:101ED0000E949B1A1092F1040E94761A80910601CA
:101EE00081508093E10481E08093E4041092050125
:101EF00080910601823009F056C081E08093D704BA
:101F00006BE083EE92E00E94721B8091D9048130D5
:101F100031F48093D70487E090E00E947C1A80918E
:101F2000D904823039F481E08093D70485E090E0D1
:101F30000E947C1A8091D904833039F481E0809327
:101F4000D70484E090E00E947C1A8091D904843008
:101F500039F481E08093D70486E090E00E947C1AF7
:101F60008091D904853041F487E090E00E947C1A8A
:101F700083E090E00E947C1A8091D904863039F485
:101F800088E090E00E947C1A81E08093F1040E9436
:101F9000761A8091060181508093E10481E080935C
:101FA000E4041092050187E295E00E94A00E8111E1
:101FB00006C085E195E00E94A00E882379F00E947A
:101FC000701283E08093E5041092D70481E080933F
:101FD00006018091D90481508093E10408950E9404
:101FE000B11860E080E00E942C198BE692E00E941C
:101FF000581961E080E00E942C1982E093E00E9471
:10200000581982E0809306011092E40408958091AB
:10201000F104882399F01092F8048091F8048F5FFE
:102020008093F8048091F8048A3010F01092F8043C
:102030009091F8048091F704981710F060E001C0C7
:1020400061E088E00C94341CCF938091E10481110D
:102050001DC00E94B11860E080E00E942C1982E44B
:1020600091E00E94581985E294E00E94581961E0BD
:1020700080E00E942C1987E194E00E94581981E0C9
:10208000809306011092E4048093DA048091E104C5
:102090008130E9F40E94B11860E080E00E942C19C0
:1020A00083E294E00E94581961E080E00E942C19BC
:1020B00082E491E00E94581989E194E00E94581945
:1020C00082E0809306011092E4048093DA04809108
:1020D000E1048230E9F40E94B11860E080E00E94DF
:1020E0002C1982E491E00E9458198BE394E00E943D
:1020F000581961E080E00E942C198FE294E00E9460
:10210000581983E0809306011092E4048093DA0466
:102110008091E1048330E9F40E94B11860E080E02E
:102120000E942C1989E394E00E94581961E080E034
:102130000E942C1982E491E00E94581981E394E0F6
:102140000E94581984E0809306011092E404809361
:10215000DA048091E1048430E9F40E94B11860E06F
:1021600080E00E942C1982E491E00E94581989E5D0
:1021700094E00E94581961E080E00E942C1985E4E7
:1021800094E00E94581985E0809306011092E404BF
:102190008093DA04C091E104C530E1F40E94B118E3
:1021A00060E080E00E942C1987E594E00E945819B5
:1021B00061E080E00E942C1982E491E00E945819AD
:1021C00087E494E00E945819C09306011092E40439
:1021D0001092DA04C091E104C630E1F40E94B11813
:1021E00060E080E00E942C1982E491E00E9458197E
:1021F00087E794E00E94581961E080E00E942C1962
:1022000089E694E00E945819C09306011092E404F4
:10221000C093DA04C091E104C730E1F40E94B11820
:1022200060E080E00E942C1985E794E00E94581934
:1022300061E080E00E942C1982E491E00E9458192C
:102240008BE694E00E945819C09306011092E404B2
:10225000C093DA04C091E104C830E1F40E94B118DF
:1022600060E080E00E942C1982E491E00E945819FD
:102270008EE894E00E94581961E080E00E942C19D9
:1022800081E894E00E945819C09306011092E4047A
:10229000C093DA04C091E104C930E1F40E94B1189E
:1022A00060E080E00E942C198CE894E00E945819AC
:1022B00061E080E00E942C1982E491E00E945819AC
:1022C00083E894E00E945819C09306011092E40438
:1022D000C093DA04C091E104CA3091F40E94B118AD
:1022E00060E080E00E942C1982E491E00E9458197D
:1022F0008BE991E00E945819C09306011092E40402
:10230000CF9108951F93CF93DF93EC01162F0E9476
:10231000752D181739F0612FCE01DF91CF911F91E4
:102320000C947D2DDF91CF911F9108950C94752D04
:10233000CF92DF92EF92FF920F931F93CF93DF9391
:1023400039E1C32E31E0D32E4AEBE42E44E0F42EE3
:10235000C0E0D0E0F60111916F01612FCE010E9423
:102360008211612F70E0F701619371937F0165E045
:1023700070E080E090E00E94721D2196CA30D10585
:1023800049F79FE0E92E91E0F92E26EAC22E24E0DB
:10239000D22EF70111917F01612FCE010E9482118F
:1023A000612F70E0F601619371936F0165E070E059
:1023B00080E090E00E94721D2196C431D10549F75A
:1023C00083E2C82E81E0D82E0EEC14E0F601F190E5
:1023D0006F016F2DCE010E948211F801F1928F01E1
:1023E00065E070E080E090E00E94721D2196C931A6
:1023F000D10561F760E08EE190E00E94821165E016
:1024000070E080E090E00E94721D60E08FE190E05B
:10241000DF91CF911F910F91FF90EF90DF90CF90C0
:102420000C9482110F931F93CF93DF930AEB14E068
:10243000C0E0D0E0CE010E94961190E0F8018193B7
:1024400091938F012196CA30D105A1F706EA14E0D5
:10245000CE010E94961190E0F801819391938F0133
:102460002196C431D105A1F70EEC14E0CE010E94F3
:102470009611F80181938F012196C931D105B1F7E9
:102480008EE190E00E949611C82F81E0C11101C039
:1024900080E08093DD048FE190E00E94961190E04F
:1024A000CC2319F09195819591099093DC04809348
:1024B000DB048CE190E00E949611C82F8DE190E042
:1024C0000E94961190E0982F88278C0F911D909371
:1024D000E0048093DF04DF91CF911F910F91089565
:1024E00060E087E090E00E949B1A60E085E090E069
:1024F0000E949B1A60E084E090E00E949B1A60E0DA
:1025000086E090E00E949B1A60E083E090E00E94E9
:102510009B1A1092F1040C94761ACF92DF92EF92EC
:10252000FF9280910701882309F4C1C0E091A504BE
:102530008E2F90E0FC013197EA30F10508F0AFC032
:10254000EC5CFF4F0C94323087E090E00E947C1AE4
:1025500060E085E090E00E949B1A08C087E090E070
:102560000E947C1A85E090E00E947C1A60E084E082
:1025700090E00E949B1A60E086E090E00E949B1A27
:1025800083E090E00E947C1A1092F10488C0809150
:10259000D804813019F489E190E004C0823031F42C
:1025A0008AE090E09093C5048093C40460E087E0E3
:1025B00090E00E949B1A60E085E090E00E949B1AE8
:1025C00060E084E090E00E949B1A60E086E090E08A
:1025D0000E949B1A60E083E090E00E949B1A81E0D9
:1025E0008093F1045CC060E087E090E00E949B1A59
:1025F00085E090E00E947C1A18C060E087E090E0DF
:102600000E949B1A60E085E090E00E949B1A84E0A3
:1026100090E00E947C1A0EC087E090E00E947C1A35
:1026200060E085E090E00E949B1A60E084E090E02A
:102630000E949B1A60E086E090E00E949B1A13C003
:1026400060E087E090E00E949B1A60E085E090E007
:102650000E949B1A60E084E090E00E949B1A86E052
:1026600090E00E947C1A60E083E090E00E949B1A58
:102670008BCF1092E2048FE08093E5041092D40493
:102680001092D3041092D6041092D5041092E10453
:1026900081E08093E4041092A5040E9470120E94CD
:1026A000761A65E070E080E090E00E94721D8091F3
:1026B000A504843009F446C028F4823051F08330F8
:1026C00079F0BCC0853009F47FC0873009F47FC041
:1026D000B5C083E10E940B1C019709F0AFC005C093
:1026E00083E10E940B1C0197D1F48091A5048F5FB8
:1026F0008093A5048A3008F0A1C090E0880F991F4C
:10270000FC01EA55FB4F208131813093D4042093A2
:10271000D304FC01E654FB4F8081918177C0809106
:10272000D5049091D604181619060CF487C0809130
:10273000D3049091D40406970CF080C081E080937C
:10274000A0047AC0C0909C04D0909D04E0909E04A8
:10275000F0909F0420E030E040EA50E4C701B60169
:102760000E94482E1816ECF020E030E0A901C701C5
:10277000B6010E94A02F87FD14C085E08093A504B8
:102780008091B0049091B1049093D4048093D304C9
:102790008091C4049091C5049093D6048093D5048D
:1027A00013C08091D5049091D6041816190664F0D0
:1027B0008091D3049091D404069734F482E08093FE
:1027C000A00481E08093E6040E94B70137C020E0B6
:1027D00030E046EC52E460919C0470919D0480913D
:1027E0009E0490919F040E94482E1816A4F088E041
:1027F0008093A5048091B6049091B7049093D4047B
:102800008093D3048091CA049091CB049093D60412
:102810008093D50413C08091D5049091D6041816E6
:10282000190664F08091D3049091D404069734F48F
:1028300083E08093A00481E08093E6041092070176
:102840000E94AC1DC090A104D090A204E090A3040B
:10285000F090A4042EE5C20E21E0D21EE11CF11C72
:10286000C616D706E806F90698F48091A5048130CB
:1028700011F0823069F48AE00E940B1C8093DE0420
:10288000811106C085E08093A00481E08093E60476
:1028900081E10E940B1C892B31F485E18093E504D2
:1028A00081E08093E30482E10E940B1C892B31F4C8
:1028B00085E18093E50482E08093E304FF90EF904C
:1028C000DF90CF9008952F923F924F925F926F9238
:1028D0007F928F929F92AF92BF92CF92DF92EF92B0
:1028E000FF920F931F93CF93DF93CDB7DEB764971B
:1028F0000FB6F894DEBF0FBECDBF88E090E00E9417
:102900004C308C0181E090E0D8018D939C93F801CC
:1029100012821382148215821782168284E190E05B
:102920000E944C309C8B8B8B80E090E0A8E4B2EC52
:10293000EB89FC8980839183A283B383848395830D
:10294000A683B783812C912C50EFA52E51ECB52E88
:1029500080869186A286B386C12CD12C60E7E62EB4
:1029600061ECF62EC486D586E686F786108A118A33
:10297000128A138ABF01C8010E94161A84E190E0EE
:102980000E944C303C01FC0180829182A282B38281
:10299000C482D582E682F782C086D186E286F3863B
:1029A0001486158616861786108A118A128A138A4B
:1029B000BC01C8010E94161A84E190E00E944C30CC
:1029C0002C01DC01CD92DD92ED92FC921397FC017B
:1029D000148215821682178218961D921D921D92DE
:1029E0001C921B97C12CD12C70E7E72E71E4F72EB7
:1029F000C486D586E686F78650961D921D921D9256
:102A00001C925397BC01C8010E94161A84E190E001
:102A10000E944C301C01FC01108211821282138230
:102A2000C482D582E682F782C086D186E286F386AA
:102A3000812C912C80EFA82E81E4B82E8486958677
:102A4000A686B786108A118A128A138AB101C80134
:102A50000E94161A84E190E00E944C309A83898388
:102A6000DC01CD92DD92ED92FC921397FC01848201
:102A70009582A682B78280E090E0A8E4B2E48087E5
:102A80009187A287B38784879587A687B787108A9F
:102A9000118A128A138ABF01C8010E94161AE09097
:102AA0005205F090530584E090E00E944C3000976E
:102AB000B9F0FC011183008313821282D701ED91DA
:102AC000FC911197309719F48D939C9309C0228142
:102AD00033812115310511F0F901F9CF93838283F8
:102AE0008AE090E00E944C308C0181E090E0F80197
:102AF0009183808312821382148215821782168238
:102B000082E090E00E944C30FC0111821082D801DA
:102B100019969C938E93189784E190E00E944C3014
:102B20009C838B83FC011082118212821382148297
:102B30001582168217821086118612861386812CC2
:102B4000912C98E4A92E92E4B92E84869586A686C7
:102B5000B786108A118A128A138ABF01C8010E949F
:102B6000161A84E190E00E944C309E838D83DC0134
:102B70001D921D921D921C921397FC0184829582D6
:102B8000A682B78218968D929D92AD92BC921B97A9
:102B9000C12CD12C24EBE22E22E4F22EC486D58661
:102BA000E686F78650961D921D921D921C925397B1
:102BB000BC01C8010E94161A84E190E00E944C30CA
:102BC00098878F83FC0180829182A282B382C48223
:102BD000D582E682F782C086D186E286F386812C92
:102BE000912C32E0A32E33E4B32E84869586A686FC
:102BF000B786108A118A128A138ABC01C8010E9402
:102C0000161A84E190E00E944C309A878987DC0193
:102C1000CD92DD92ED92FC921397FC018482958215
:102C2000A682B78218968D929D92AD92BC921B9708
:102C3000C12CD12C4AE2E42E43E4F42EC486D5867E
:102C4000E686F78650961D921D921D921C92539710
:102C5000BC01C8010E94161A84E190E00E944C3029
:102C60009C878B87FC0180829182A282B382C4827E
:102C7000D582E682F782C086D186E286F386C48654
:102C8000D586E686F786108A118A128A138ABC01D5
:102C9000C8010E94161A80915205909153059E8793
:102CA0008D8784E090E00E944C305C01009709F42D
:102CB0005AC0DC0111961C930E9313961C921E921F
:102CC0001297F801F681F98BD8011796BC91BA8B4F
:102CD000EF2EFB2EE114F10489F109891A890115FF
:102CE000110531F1F801C280D380C114D10411F46F
:102CF0008601F5CF80819181988B8F87D6018D9049
:102D00009C90FC012081318142815381D4016D91DD
:102D10007D918D919C910E94482E87FFE9CFF8010B
:102D200091828082EF85F889D601ED93FC93E0CF04
:102D3000D7011296ED90FC901397CCCFAD85BE8550
:102D40001296ED91FC911397309729F41396BC924B
:102D5000AE92129708C082819381009711F0FC0116
:102D6000FACFB382A2828CE090E00E944C308C01BA
:102D7000FC01118210821382128215821482178242
:102D8000168211861086138612868B899C89892B60
:102D900041F081E090E093838283AB89BC89B58365
:102DA000A48382E090E00E944C309E878D87FC01D6
:102DB000118210826B857C850E94ED1987E090E07E
:102DC0000E944C30FC01EE24E394F12CF182E0826D
:102DD0001282148303838D859E8596838583BF012C
:102DE00080915205909153050E94C4198CE090E0A7
:102DF0000E944C309C878B87DC0111961C921E929E
:102E000013961C921E92129715961C921E9214975E
:102E100017961C921E92169719961C921E9218973E
:102E20001B961C921E921A976114710441F013961E
:102E3000FC92EE92129715967C926E92149782E015
:102E400090E00E944C308C01FC0111821082698557
:102E50007A850E94ED1987E090E00E944C30FC01D9
:102E600082E090E09183808312828B859C8594839D
:102E7000838316830583BF0180915205909153058A
:102E80000E94C4198CE090E00E944C309A87898798
:102E9000DC0111961C921E9213961C921E921297A0
:102EA00015961C921E92149717961C921E921697B6
:102EB00019961C921E9218971B961C921E921A9796
:102EC0004114510451F081E090E013969C938E934D
:102ED000129715965C924E92149782E090E00E94B1
:102EE0004C308C01FC01118210826F8178850E9428
:102EF000ED1987E090E00E944C30FC0183E090E007
:102F000091838083128289859A8594838383168333
:102F10000583BF0180915205909153050E94C41909
:102F20008CE090E00E944C3098878F83DC011196F2
:102F30001C921E9213961C921E92129715961C922A
:102F40001E92149717961C921E92169719961C9211
:102F50001E9218971B961C921E921A9721143104E8
:102F600051F081E090E013969C938E931297159602
:102F70003C922E92149782E090E00E944C308C019B
:102F8000FC01118210826D817E810E94ED1987E023
:102F900090E00E944C30FC0184E090E091838083BB
:102FA00012828F8198859483838316830583BF0162
:102FB00080915205909153050E94C4198CE090E0D5
:102FC0000E944C309E838D83DC0111961C921E92D0
:102FD00013961C921E92129715961C921E9214978D
:102FE00017961C921E92169719961C921E9218976D
:102FF0001B961C921E921A97E981FA81309751F024
:1030000081E090E013969C938E9312971596FC9313
:10301000EE93149782E090E00E944C308C01DC012A
:103020001D921C926B817C810E94ED1987E090E0DB
:103030000E944C30FC0185E090E0918380831282F5
:103040008D819E819483838316830583BF01809144
:1030500052059091530564960FB6F894DEBF0FBEEB
:10306000CDBFDF91CF911F910F91FF90EF90DF9037
:10307000CF90BF90AF909F908F907F906F905F9018
:103080004F903F902F900C94C4191F93CF93DF93D0
:10309000EC01862F688360E00E949C1C11E019837C
:1030A00061E088810E94341C1A828981811101C0EB
:1030B0001A8318861F821A8619861C861B861E860E
:1030C0001D86188A1F8681E0898BDF91CF911F9121
:1030D0000895EF92FF920F931F93CF93DF938C018C
:1030E000C0914805D09149057C01EC0EFD1E219749
:1030F000D7FD0BC0F70122917F0141E060914A05A5
:1031000080914C050E94631CF2CF109351050093EF
:10311000500561E080914E050E94341C60E0809172
:103120004E05DF91CF911F910F91FF90EF900C947E
:10313000341C009769F0FC0101900020E9F73197F9
:10314000AF01481B590BBC0189E395E00C94BC0905
:1031500080E090E0089540E0682F89E395E00C94CA
:10316000200E81E00E94AB188BE39FE10197F1F7FD
:103170000895CF93DF93823028F0909141059860B5
:103180009093410580934605109247058BE39DE09F
:103190000197F1F720E040E060913D0580913E0508
:1031A0000E94631C20E040E060913D0580913E0557
:1031B0000E94631C8091410584FD24C040E063E0CF
:1031C00089E395E00E94C80DCBE4D6E4CE010197D7
:1031D000F1F740E063E089E395E00E94C80D219794
:1031E000F1F740E063E089E395E00E94C80D83E5D4
:1031F00092E00197F1F740E062E089E395E00E94F8
:10320000C80D15C080620E94AB188BE496E401974C
:10321000F1F78091410580620E94AB1883E592E04E
:103220000197F1F78091410580620E94AB1880916F
:10323000410580620E94AB1884E0809342058CE0D7
:103240000E94AB180E94B11882E08093430586E08B
:10325000DF91CF910C94AB18CF93DF93CDB7DEB74E
:1032600028970FB6F894DEBF0FBECDBF98E0ECE212
:10327000F1E0DE01119601900D929A95E1F790919F
:103280004605961710F46FEF690FFE013196E60FB1
:10329000F11DE60FF11D9081890F806828960FB609
:1032A000F894DEBF0FBECDBFDF91CF910C94AB1869
:1032B0000C9499188F929F92AF92BF920F931F9385
:1032C000CF93DF93CDB7DEB7A1970FB6F894DEBFEB
:1032D0000FBECDBF19A2423008F44AE08E010F5D47
:1032E0001F4F842E912CA12CB12CA50194010E947A
:1032F000AA2DE62FB901CA0101501109EA3014F4D0
:10330000E05D01C0E95CD801EC93232B242B252B35
:1033100061F7C8010E949918A1960FB6F894DEBF14
:103320000FBECDBFDF91CF911F910F91BF90AF9096
:103330009F908F900895CF92DF92EF92FF926C0151
:10334000990FEE08FF08F7FE16C041E06DE289E331
:1033500095E00E94200E66277727CB016C197D0926
:103360008E099F094AE00E945A190196FF90EF903A
:10337000DF90CF9008954AE0C701B601FF90EF902B
:10338000DF90CF900C945A190F931F93CF93DF9334
:10339000EC018B0184E090E00E944C300097B9F082
:1033A000FC011183008313821282EC81FD8130972E
:1033B00019F49D838C8309C0228133812115310545
:1033C00011F0F901F9CF9383828381E001C080E09D
:1033D000DF91CF911F910F9108950F931F93CF937A
:1033E000DF93EC018B0184E090E00E944C30009769
:1033F000B9F0FC011183008313821282E881F98104
:10340000309719F49983888309C02281338121156B
:10341000310511F0F901F9CF9383828381E001C076
:1034200080E0DF91CF911F910F9108950F931F932B
:10343000CF93DF93EC018B0184E090E00E944C304D
:103440000097B9F0FC011183008313821282EE8190
:10345000FF81309719F49F838E8309C022813381C5
:103460002115310511F0F901F9CF9383828381E0B1
:1034700001C080E0DF91CF911F910F910895EF92ED
:10348000FF921F93CF93DF9310E0C7E0D0E0EE24CC
:10349000E394F12C60E0809154050E94341C8FE984
:1034A0009FE00197F1F700C00000809155050E9450
:1034B0000B1C892B39F0C7010C2E01C0880F0A9410
:1034C000EAF7182B61E0809154050E94341C8FE9C3
:1034D0009FE00197F1F700C000002197D8F6812FF7
:1034E000DF91CF911F91FF90EF900895809150054B
:1034F000909151050C946918FC0197FD379623E0D3
:10350000F595E7952A95E1F7209150053091510501
:10351000E20FF31F68E070E00E941E3021E030E00F
:10352000A90102C0440F551F8A95E2F7CA01908194
:10353000892B80830895613011F40C947C1AFC016E
:1035400097FD379623E0F595E7952A95E1F72091C9
:10355000500530915105E20FF31F68E070E00E94C2
:103560001E3021E030E0A90102C0440F551F8A95AA
:10357000E2F7CA0180959081892380830895EF92B4
:10358000FF920F931F93CF93DF93282FC62F90E0C6
:1035900080E0022E000C330B2052310943E0220F51
:1035A000331F4A95E1F7983081F0492F50E0F90137
:1035B000E40FF51FE354FF4FE491DA01A750BB4F2E
:1035C000EC93E1118F5F9F5FEECF80930205109225
:1035D000010510925805E82EE6940C2F10E00E0D10
:1035E000111DD09158058D2F90E002971CF5C093C6
:1035F0005705F09057058F2D90E080179107B4F490
:103600006D2F8F2D0E942C19E091010581E08E0F06
:1036100080930105F0E0E750FB4F608189E395E07E
:103620000E949A0EF394F0925705E3CFDF5FD09398
:103630005805D7CF8E2D90E00197DF91CF911F9144
:103640000F91FF90EF900895833081F028F481303E
:1036500099F08230A1F008958730A9F08830B9F050
:103660008430D1F4809180008F7D03C080918000F0
:103670008F7780938000089584B58F7702C084B5DA
:103680008F7D84BD08958091B0008F7703C08091B5
:10369000B0008F7D8093B00008953FB7F89480917B
:1036A0007A0590917B05A0917C05B0917D0526B5AA
:1036B000A89B05C02F3F19F00196A11DB11D3FBF6A
:1036C000BA2FA92F982F8827820F911DA11DB11DF8
:1036D000BC01CD0142E0660F771F881F991F4A95F4
:1036E000D1F708950F931F93CF93C62F8C01F80144
:1036F00081918F01882369F090EE980F903420F427
:103700006C2F0E94BF1A02C080E090E00196C80FA3
:10371000EECFCF911F910F9108956F927F928F926C
:103720009F92AF92BF92CF92DF92EF92FF920F9350
:103730001F93CF93DF93CDB7DEB7CDB6DEB6262F7E
:10374000643008F023E0E22EF12C570161E0A61A64
:10375000B108EDB7FEB7EE19FF090FB6F894FEBF3A
:103760000FBEEDBF319621503AE0222349F0DF0130
:10377000A20FB11D632F0E9412309C932150F5CFF0
:103780006AE00E94123090838F01742E812C912C5C
:10379000612C8E149F045CF5F80181918F018111D9
:1037A00016C0611014C08A149B048CF460E0872D4D
:1037B0000E942C1987E994E00E94581961E0872D36
:1037C0000E942C1987E994E00E9458190AC090E1E0
:1037D000980F903420F4672D805D0E94BF1A6624F4
:1037E0006394FFEF8F1A9F0A63E0760ED2CF0FB675
:1037F000F894DEBE0FBECDBEDF91CF911F910F9129
:10380000FF90EF90DF90CF90BF90AF909F908F9000
:103810007F906F900895CF93DF93282F30E0F901C8
:10382000ED5FFC4F8491F901E151FD4FD491F90115
:10383000E552FD4FC491CC2391F081110E94241BCD
:10384000EC2FF0E0EE0FFF1FEF52FD4FA591B4916A
:10385000EC91ED2381E090E021F480E002C080E073
:1038600090E0DF91CF9108951F93CF93DF93282F9E
:1038700030E0F901ED5FFC4F8491F901E151FD4F1A
:10388000D491F901E552FD4FC491CC23C1F0162F1C
:1038900081110E94241BEC2FF0E0EE0FFF1FE95373
:1038A000FD4FA591B4919FB7F894111104C08C916C
:1038B000D095D82302C0EC91DE2BDC939FBFDF9123
:1038C000CF911F910895BF92CF92DF92EF92FF9216
:1038D0000F931F93CF93DF93C82ED62EB42EC7E03D
:1038E000D0E0022F10E087E0E82EF12CB11005C0E7
:1038F000C7018C1B9D0BB80102C0B8018C2F02C000
:10390000759567958A95E2F761708C2D0E94341C3D
:1039100061E08D2D0E94341C60E08D2D0E94341CCE
:10392000219720F7DF91CF911F910F91FF90EF909A
:10393000DF90CF90BF900895CF93DF9390E0FC018C
:10394000E151FD4F2491FC01E552FD4F8491882304
:1039500061F190E0880F991FFC01E354FD4FC59180
:10396000D491FC01E953FD4FA591B491611109C0B7
:103970009FB7F8948881209582238883EC912E2329
:103980000BC0623061F49FB7F8948881322F309574
:1039900083238883EC912E2B2C939FBF06C08FB777
:1039A000F894E8812E2B28838FBFDF91CF91089563
:1039B0001F93CF93DF93182FEB0161E00E949C1CB3
:1039C000209711F460E004C0CF3FD10539F461E0E5
:1039D000812FDF91CF911F910C94341CE12FF0E0E7
:1039E000ED5FFC4FE491E330F9F048F4E130B9F0D9
:1039F000E230A1F584B5806284BDC8BD34C0E73033
:103A0000E9F0E83019F1E43049F5809180008062F6
:103A100080938000D0938B00C0938A0024C084B52B
:103A2000806884BDC7BD1FC080918000806880937E
:103A30008000D0938900C093880015C08091B000A9
:103A400080688093B000C093B3000DC08091B00037
:103A500080628093B000C093B40005C0C038D10527
:103A60000CF0B5CFAFCFDF91CF911F91089578942F
:103A700084B5826084BD84B5816084BD85B5826073
:103A800085BD85B5816085BDEEE6F0E08081816011
:103A90008083E1E8F0E01082808182608083808111
:103AA00081608083E0E8F0E0808181608083E1EBE9
:103AB000F0E0808184608083E0EBF0E080818160D1
:103AC0008083EAE7F0E08081846080838081826087
:103AD0008083808181608083808180688083109270
:103AE000C10008958F929F92AF92BF92CF92DF92C2
:103AF000EF92FF926B017C010E944D1B4B015C0118
:103B0000C114D104E104F104F1F00E944D1BDC0169
:103B1000CB0188199909AA09BB09883E9340A105E0
:103B2000B10570F321E0C21AD108E108F10888EE6E
:103B3000880E83E0981EA11CB11CC114D104E104BD
:103B4000F10419F7DDCFFF90EF90DF90CF90BF9099
:103B5000AF909F908F9008952FB7F894609176055D
:103B60007091770580917805909179052FBF089520
:103B70001F920F920FB60F9211242F933F938F93A2
:103B80009F93AF93BF938091760590917705A09115
:103B90007805B09179053091750523E0230F2D3715
:103BA00020F40196A11DB11D05C026E8230F029641
:103BB000A11DB11D2093750580937605909377051F
:103BC000A0937805B093790580917A0590917B0553
:103BD000A0917C05B0917D050196A11DB11D80933A
:103BE0007A0590937B05A0937C05B0937D05BF91EA
:103BF000AF919F918F913F912F910F900FBE0F909A
:103C00001F9018950E94371D61E089E00E949C1C5E
:103C100061E083E00E949C1C61E088E00E949C1CA3
:103C200062E081E10E949C1C62E082E10E949C1C97
:103C300060E08AE00E949C1C82E00E94B9180E9409
:103C400012128091CF048093DE04843628F084E63B
:103C50008093DE048093CF042091DE0430E0AFEF48
:103C6000B0E00E94CC2D24E630E040E050E00E941D
:103C70008B2D622F70E089E00E94D81C8091D004C7
:103C80008093DE04843628F084E68093DE048093FB
:103C9000D0042091DE0430E0A2E3B0E00E94CC2DFD
:103CA00024E630E040E050E00E948B2D2093DE04BB
:103CB000B90183E00E94D81C10920205C1E0D5E052
:103CC00080910205883088F590E028E0829FA0016D
:103CD0001124292F30E0FA01E20FF31FE458FF4FBF
:103CE000E491D901A750BB4FEC939F5F983089F7BF
:103CF000909301058F5F8770E8E08E9FC0011124CB
:103D000080640E94AB1809EF14E0F80161918F0103
:103D100089E395E00E949A0EC017D107B1F7809110
:103D200002058F5F80930205CBCF0E94B11860E03F
:103D300083E292E00E94721B6AEF70E080E090E004
:103D40000E94721D63E081E192E00E94721B6AEFA3
:103D500070E080E090E00E94721D66E080E491E0F7
:103D60000E94721B6AEF70E080E090E00E94721D7A
:103D700069E08EE392E00E94721B6AEF70E080E0DF
:103D800090E00E94721D6CE081E192E00E94721B43
:103D90006CED75E080E090E00E94721D0E94B11809
:103DA00060E080E00E942C1982E491E00E945819A2
:103DB00082E591E00E94581961E080E00E942C1990
:103DC00085E491E00E9458190E94631478940BE3F3
:103DD00010E078EB272E7BE0372EEEEC4E2E5524AC
:103DE0005A94F2E3EF2EF12CA4E6CA2ED12CBAEFAE
:103DF000AB2EB12CC1E043E0942ED2E054E0852EEE
:103E000066E0662E8091E204882331F08091E6041A
:103E1000811102C00E948D128091E204882309F46E
:103E200083C08091E60481117FC00E94AC1D209167
:103E3000E7043091E8044091E9045091EA042851E4
:103E40003C4F4F4F5F4F261737074807590708F079
:103E50006BC00E94AC1D6093E7047093E8048093EC
:103E6000E9049093EA04C093E4048091D304909110
:103E7000D40401979093D4048093D30497FF0DC08A
:103E80008091D5049091D60401979093D6048093A5
:103E9000D5041093D4040093D3048091D504909159
:103EA000D60497FF41C07090A50473947092A50446
:103EB0000E94AC1D6093A1047093A2048093A3049C
:103EC0009093A404F9E0F71578F1872D90E0880F1E
:103ED000991FFC01EA55FB4F208131813093D404B6
:103EE0002093D304FC01E654FB4F80819181909391
:103EF000D6048093D50425E0721214C08091D804B2
:103F0000823081F48091BA049091BB049093D604DE
:103F10008093D5048091A6049091A7049093D40433
:103F20008093D304C09307018091E1049091F00441
:103F3000981305C09091E404992309F46DC7C093C8
:103F400005019091E504911182C081111DC00E946C
:103F5000B11860E080E00E942C1982E491E00E9498
:103F6000581982E591E00E94581961E080E00E94B2
:103F70002C1985E491E00E945819C09306018091A4
:103F8000E40481111092E4048091E1048130E9F4A9
:103F90000E94B11860E080E00E942C1980E591E059
:103FA0000E94581961E080E00E942C1982E491E09F
:103FB0000E94581987E491E00E945819D093060195
:103FC0008091E40481111092E4048091E104823034
:103FD000E9F40E94B11860E080E00E942C1982E4AC
:103FE00091E00E9458198BE691E00E94581961E017
:103FF00080E00E942C1981E691E00E94581990926D
:1040000006018091E40481111092E4048091E1049E
:104010008330E9F40E94B11860E080E00E942C191E
:1040200089E691E00E94581961E080E00E942C1915
:1040300082E491E00E94581983E691E00E945819A9
:10404000809206018091E40481111092E404709042
:10405000E50481E078125BC08091E10481111AC00F
:104060000E94B11860E080E00E942C1982E491E087
:104070000E94581988E891E00E94581961E080E098
:104080000E942C1981E791E00E9458197092060154
:104090001092E4048091E1048130D1F40E94B118BF
:1040A00060E080E00E942C1986E891E00E94581997
:1040B00061E080E00E942C1982E491E00E9458198E
:1040C00083E791E00E945819D09306011092E4040E
:1040D0008091E1048230D9F40E94B11860E080E060
:1040E0000E942C1982E491E00E9458198BE991E01A
:1040F0000E94581961E080E00E942C1988E994E040
:104100000E94581985E0809306011092E404809182
:10411000E504883011F40E9424108091E504823077
:1041200009F099C08091E10481111CC00E94B1186E
:1041300060E080E00E942C1982E491E00E9458190E
:104140008BEA91E00E94581961E080E00E942C19EE
:1041500080EA91E00E945819C09306011092E4048D
:10416000C093DA048091E1048130E1F40E94B11837
:1041700060E080E00E942C1989EA91E00E945819C1
:1041800061E080E00E942C1982E491E00E945819BD
:1041900082EA91E00E945819D09306011092E4043B
:1041A000D093DA048091E1048230E1F40E94B118E6
:1041B00060E080E00E942C1982E491E00E9458198E
:1041C00085EC91E00E94581961E080E00E942C1972
:1041D00084EB91E00E945819909206011092E40439
:1041E0009092DA048091E1048330E1F40E94B118E6
:1041F00060E080E00E942C1983EC91E00E94581945
:1042000061E080E00E942C1982E491E00E9458193C
:1042100086EB91E00E945819809206011092E40406
:104220008092DA048091E1048430A9F40E94B118EC
:1042300060E080E00E942C1982E491E00E9458190D
:104240008BE991E00E94581985E080930601109255
:10425000E4048093DA048091E504893009F0A1C078
:104260008091E10481111CC00E94B11860E080E0DF
:104270000E942C1982E491E00E94581982EE91E08C
:104280000E94581961E080E00E942C1981ED91E0B4
:104290000E945819C09306011092E404C093DA04F6
:1042A0008091E1048130E1F40E94B11860E080E087
:1042B0000E942C1980EE91E00E94581961E080E084
:1042C0000E942C1982E491E00E94581983ED91E03C
:1042D0000E945819D09306011092E404D093DA0496
:1042E0008091E1048230E1F40E94B11860E080E046
:1042F0000E942C1982E491E00E94581986E092E015
:104300000E94581961E080E00E942C1980EF91E032
:104310000E945819909206011092E4049092DA04D7
:104320008091E1048330E1F40E94B11860E080E004
:104330000E942C1984E092E00E94581961E080E00C
:104340000E942C1982E491E00E94581982EF91E0BA
:104350000E945819809206011092E4048092DA04B7
:104360008091E1048430E9F40E94B11860E080E0BB
:104370000E942C1982E491E00E9458198BE991E087
:104380000E94581961E080E00E942C1988E994E0AD
:104390000E94581985E0809306011092E4048093EE
:1043A000DA048091E504833009F0E0C08091E104F3
:1043B00081111CC00E94B11860E080E00E942C199D
:1043C00082E491E00E9458198EE192E00E9458190F
:1043D00061E080E00E942C1983E192E00E9458196C
:1043E000C09306011092E404C093D9048091E104C3
:1043F0008130E1F40E94B11860E080E00E942C1945
:104400008CE192E00E94581961E080E00E942C1932
:1044100082E491E00E94581985E192E00E945819C7
:10442000D09306011092E404D093D9048091E10462
:104430008230E1F40E94B11860E080E00E942C1903
:1044400082E491E00E94581980E392E00E9458199A
:1044500061E080E00E942C1985E292E00E945819E8
:10446000909206011092E4049092D9048091E104A4
:104470008330E1F40E94B11860E080E00E942C19C2
:104480008EE292E00E94581961E080E00E942C19AF
:1044900082E491E00E94581987E292E00E94581944
:1044A000809206011092E4048092D9048091E10484
:1044B0008430E9F40E94B11860E080E00E942C1979
:1044C00082E491E00E94581982E492E00E94581917
:1044D00061E080E00E942C1987E392E00E94581965
:1044E00085E0809306011092E4048093D9048091C2
:1044F000E1048530E1F40E94B11860E080E00E94A0
:104500002C1980E492E00E94581961E080E00E943A
:104510002C1982E491E00E94581989E392E00E94EC
:104520005819609206011092E4046092D9048091B7
:10453000E1048630D9F40E94B11860E080E00E9466
:104540002C1982E491E00E9458198BE991E00E94B5
:10455000581961E080E00E942C1988E994E00E94DB
:10456000581987E0809306011092E4048091E504D5
:10457000843009F078C08091E10481111AC00E9452
:10458000B11860E080E00E942C1982E491E00E9462
:10459000581982E592E00E94581961E080E00E947B
:1045A0002C1987E492E00E945819C09306011092DA
:1045B000E4048091E1048130D1F40E94B11860E0FC
:1045C00080E00E942C1980E592E00E94581961E079
:1045D00080E00E942C1982E491E00E94581989E43D
:1045E00092E00E945819D09306011092E404809141
:1045F000E1048230D1F40E94B11860E080E00E94B2
:104600002C1982E491E00E94581984E692E00E94FD
:10461000581961E080E00E942C1989E592E00E941F
:104620005819909206011092E4048091E1048330BD
:10463000D1F40E94B11860E080E00E942C1982E65B
:1046400092E00E94581961E080E00E942C1982E4F7
:1046500091E00E9458198BE592E00E9458198092CF
:1046600006011092E4048091E504853001F5809103
:10467000E104811116C00E94B11860E080E00E9440
:104680002C198BE692E00E94581961E080E00E94AC
:104690002C198EE792E00E945819C09306011092DF
:1046A000E4048091E104813011F40E94EF0F8091C5
:1046B000E5048B3001F58091E104811116C00E9460
:1046C000B11860E080E00E942C198BE692E00E9415
:1046D000581961E080E00E942C198EE792E00E9458
:1046E0005819C09306011092E4048091E1048130CE
:1046F00011F40E94EF0F8091E5048A3009F051C057
:104700000E94B11860E080E00E942C198DE892E0D0
:104710000E9458191092E40461E080E00E942C1974
:104720008FE992E00E9458198091EF04E091DA0439
:10473000F0E0882319F0E75EFE4F02C0E15FFE4F14
:10474000608170E080E090E04AE00E945A1961E0E8
:1047500087E00E942C1983EA92E00E945819809108
:10476000EF04E091DA04F0E0EE0FFF1F882319F068
:10477000E654FB4F02C0EA55FB4F808191810E94B5
:104780009B1961E08EE00E942C1987EA92E00E945A
:1047900058198091ED049091EE040E949B19C093EA
:1047A00006018091E504863009F042C07090DA0479
:1047B0008FEF870D8230E0F50E94B11860E080E055
:1047C0000E942C1991E0791204C086EE91E00E94BB
:1047D00058198091DA04823021F48BEA92E00E9429
:1047E000581961E080E00E942C1984EB92E00E944D
:1047F0005819E091DA04F0E0E253FB4F608170E079
:1048000080E090E04AE00E945A194AE063E080911B
:10481000ED040E948D1B60E083E10E942C1989EB5E
:1048200092E00E945819E2E3E09306011092E4043A
:104830008091E504873009F065C00E94B11860E0FE
:1048400080E00E942C198BEB92E00E945819809115
:10485000D904813021F481EC92E00E9458198091B2
:10486000D904823021F484EC92E00E94581980919E
:10487000D904833021F487EC92E00E94581980918A
:10488000D904843021F48AEC92E00E945819809176
:10489000D904853021F482E492E00E945819809175
:1048A000D904863021F489E392E00E9458191092CD
:1048B000E4048091E10481110BC061E00E942C1995
:1048C0008DEC92E00E945819C09306011092E40406
:1048D0008091E104813061F461E080E00E942C1954
:1048E00088ED92E00E945819D09306011092E404DA
:1048F0008091D7046BE0882309F4CFC783EE92E060
:104900000E94721B8091E5048C30A9F50E94B118B9
:1049100060E080E00E942C1987EE92E00E94581916
:104920001092E4048091E10481110BC061E00E94C7
:104930002C198DEC92E00E945819C0930601109238
:10494000E4048091E104813061F461E080E00E9440
:104950002C1988ED92E00E945819D093060110920C
:10496000E4048091D7046BE0882309F499C783EEAF
:1049700092E00E94721B8091E5048D3021F50E9427
:10498000B11860E080E00E942C1982EF92E00E9452
:10499000581961E080E00E942C198091E104811196
:1049A00006C08EE792E00E945819C09306018091DC
:1049B000E104813031F482E093E00E945819D093F1
:1049C00006011092E4048091E5048E3009F07FC066
:1049D0001092E4040E94B11860E080E00E942C195B
:1049E0008091A504813021F485E294E00E94581959
:1049F0008091A504823021F489E194E00E94581945
:104A00008091A504833021F48BE394E00E9458192F
:104A10008091A504843021F481E193E00E9458192B
:104A20008091A504853021F48BE193E00E94581910
:104A30008091A504863021F487E794E00E945819FC
:104A40008091A504873021F48BE694E00E945819E8
:104A50008091A504883021F485E293E00E945819E2
:104A60008091A504893021F48FE293E00E945819C7
:104A700061E080E00E942C1989E393E00E945819BC
:104A80008091D5049091D6040E949B1981EA92E00E
:104A90000E9458198091D3049091D4040E949B19CC
:104AA00060919C0470919D0480919E0490919F045C
:104AB0000E94BF2E862F4AE063E00E948D1B60E0BB
:104AC00083E10E942C1987E694E00E945819809196
:104AD000E5048F30C1F40E94B11863E08EE393E0E7
:104AE0000E94721B1092E1041092E4041092E204FE
:104AF0001092D6041092D5041092D4041092D304CC
:104B00000E94701226C0803121F50E94B11860E029
:104B100080E00E942C1984E493E00E94581961E01F
:104B200080E00E942C191092E4048091E10481112C
:104B300006C08EE792E00E945819C093060180914A
:104B4000E104813031F482E093E00E945819D0935F
:104B500006018091E5048131E9F40E9470120E94FF
:104B6000B11860E086E593E00E94721B4CE061E0C2
:104B70008091A0040E948D1B1092E1041092E40425
:104B80001092E2041092D6041092D5041092D4042C
:104B90001092D3048091E504823109F05AC08091CB
:104BA000E10481111AC00E94B11860E080E00E9407
:104BB0002C1982E491E00E9458198CE693E00E943F
:104BC000581961E080E00E942C198BE593E00E9467
:104BD0005819C09306011092E4048091E1048130D9
:104BE000D1F40E94B11860E080E00E942C198AE69E
:104BF00093E00E94581961E080E00E942C1982E441
:104C000091E00E9458198DE593E00E945819D093C5
:104C100006011092E4048091E1048230D1F40E94F4
:104C2000B11860E080E00E942C1982E491E00E94BB
:104C300058198BE991E00E94581961E080E00E94C8
:104C40002C1988E994E00E9458199092060110925C
:104C5000E4048091E5048331B1F50E94B11860E06D
:104C600080E00E942C198DE892E00E945819109261
:104C7000E40461E080E00E942C198FE992E00E9438
:104C8000581980E090E00E949B1961E087E00E9443
:104C90002C1983EA92E00E9458198091DB049091CC
:104CA000DC040E949B1961E08EE00E942C1987EAC7
:104CB00092E00E9458198091ED049091EE040E94B8
:104CC0009B19C09306018091E504843101F5809120
:104CD000E104811116C00E94B11860E080E00E94DA
:104CE0002C198BE692E00E94581961E080E00E9446
:104CF0002C198EE792E00E945819C0930601109279
:104D0000E4048091E104813011F40E94EF0F80915E
:104D1000E504853159F50E94B11860E080E00E94F9
:104D20002C1989E793E00E94581961E080E00E9405
:104D30002C198091E304813021F48AE893E00E94E9
:104D400058198091E304823021F48BE993E00E94AA
:104D500058191092E1041092E4041092E204809138
:104D6000E3048150823010F40E9470128091E504B7
:104D7000863171F50E94B11860E080E00E942C1924
:104D80008DE892E00E9458191092E40461E080E0FE
:104D90000E942C1983EA92E00E9458198091DF0446
:104DA0009091E0040E949B1961E089E00E942C1917
:104DB00087EA92E00E9458196091EB047091EC042C
:104DC00080E090E04AE00E945A198AE08093060150
:104DD0008091E504873101F58091E104811116C0CD
:104DE0000E94B11860E080E00E942C198BE692E0EE
:104DF0000E94581961E080E00E942C198EE792E031
:104E00000E945819C09306011092E4048091E104B5
:104E1000813011F40E94EF0F8091E1048093F0043F
:104E200087E295E00E94110F882391F18091E104BF
:104E30008F5F8093E1048091E5048A3051F42091E2
:104E4000EF048091ED049091EE042223A1F00197EC
:104E500007C0863051F48091ED049091EE044497A0
:104E60009093EE048093ED0413C0833131F480916C
:104E7000ED049091EE040597F3CF863149F48091CB
:104E8000EB049091EC0444979093EC048093EB0432
:104E900085E195E00E94110F882391F18091E10452
:104EA00081508093E1048091E5048A3051F420918F
:104EB000EF048091ED049091EE042223A1F001967D
:104EC00007C0863051F48091ED049091EE04449631
:104ED0009093EE048093ED0413C0833131F48091FC
:104EE000ED049091EE040596F3CF863149F480915C
:104EF000EB049091EC0444969093EC048093EB04C3
:104F000083E095E00E94110F882309F420C470907B
:104F1000E504F1E07F1243C0809106019FEF980FF6
:104F2000923088F59EE09093E5041092E10470922F
:104F3000E404109205018093D8047092A5040E94A5
:104F4000AC1D6093A1047093A2048093A30490937A
:104F5000A4040E9412128091A8049091A904909335
:104F6000D4048093D3048091BC049091BD049093A9
:104F7000D6048093D504109206017092D7047092E3
:104F8000E2047092070180910601853041F410928D
:104F9000E5041092E104C093E404109205018091AD
:104FA000E5048830F1F4809106018150893058F48D
:104FB00082E18093E504C093E4041092050110920D
:104FC000E10410920601809106018A3051F410929A
:104FD0000601D093E5041092E104C093E40410921A
:104FE00005018091E504823009F04AC080910601F4
:104FF000813059F498E09093E5041092E104809395
:10500000E40410920501109206018091060182309D
:1050100059F489E08093E5041092E104C093E4041C
:10502000109205011092060180910601833059F417
:1050300083E18093E5041092E104C093E4041092AC
:1050400005011092060180910601843059F486E131
:105050008093E5041092E104C093E40410920501EA
:105060001092060180910601853051F41092E504FA
:10507000C093E104C093E40410920501109206016C
:105080008091E504893009F058C020910601213053
:1050900091F46092E504E091DA04F0E0E253FB4F12
:1050A000808190E09093EE048093ED041092E104EF
:1050B0002093E40436C0223091F46092E504E0913C
:1050C000DA04F0E0E253FB4F808190E09093EE042D
:1050D0008093ED041092E104C093E40422C02330D5
:1050E00051F48DE08093E5041092E104C093E40450
:1050F0001092050116C02430A1F48CE08093E504E1
:1051000088E190E00E949611813019F48093D704D1
:1051100002C01092D7041092E104C093E4041092EC
:10512000060180910601853041F4D093E504C093D7
:10513000E104C093E404109205018091E5048330FA
:10514000E1F4809106018150863058F487E0809325
:10515000E5041092E104C093E404C09306011092A8
:10516000D70480910601873041F41092E504D09372
:10517000E104C093E404109205018091E5048430B9
:10518000A1F41092E5049092E104C093E40410921B
:10519000050187E295E00E94A00E882331F085E1A9
:1051A00095E00E94A00E81117EC38091E5048111DB
:1051B00028C090910501913009F072C080910601DC
:1051C000813039F48093E5041092E1048093E40483
:1051D00018C0823011F0833061F420910401222341
:1051E00009F45EC08093E5041092E1049093E40416
:1051F00057C0843031F48093E5041092E104909319
:10520000E4048091E504853009F04AC080910601EC
:10521000813041F488E08093E5041092EE0410920E
:10522000ED0431C0823079F588E08093E504609127
:10523000ED046093DE049091EF048091DA049923E9
:1052400059F090E00E948211E091DA04F0E0EE0F54
:10525000FF1FE654FB4F0BC090E00A960E9482119C
:10526000E091DA04F0E0EE0FFF1FEA55FB4F80916A
:10527000ED049091EE04918380831092EE041092DD
:10528000ED041092DE048091DA04882311F081503D
:1052900001C085E08093E104C093E404109205010D
:1052A0008091E5048B30F1F580910601813041F465
:1052B00089E08093E5041092EE041092ED0429C079
:1052C000823039F589E08093E5046091ED046093C4
:1052D000DE048091DA0490E00A960E9482118091A7
:1052E000DA046091ED047091EE04E82FF0E0E253EF
:1052F000FB4F6083813011F489E003C0823019F4E0
:1053000083E00E94D81C1092EE041092ED041092DB
:10531000DE048091DA0481508093E104C093E404B8
:10532000109205018091E5048A3089F4809106018C
:10533000813069F48091DA048A3018F485E0809332
:10534000E5041092E104C093E404109205018091F9
:10535000E504863091F480910601823371F48091E6
:10536000DA048150823018F48BE08093E5041092C7
:10537000E104C093E404109205018091E5048730B4
:1053800011F40E941F0F8091E5048C30D9F57090C4
:10539000060121E0721210C01092D70460E08BE089
:1053A0000E942C196BE08CEA93E00E94721B109211
:1053B000E1047092E40418C082E0781217C06BE038
:1053C00083EE92E00E94721BC093D70461E08EE0EE
:1053D00090E00E948211C093D20480910601815016
:1053E0008093E104C093E4041092050187E295E004
:1053F0000E94A00E882331F085E195E00E94A00E66
:10540000811161C28091E5048D3009F072C08091F4
:105410000601813099F489E08093E5040E94B11877
:1054200060E080E00E942C1980EB93E00E94581904
:1054300068EE73E080E090E00E94721D80910601AA
:10544000823009F04DC089E08093E50487E295E061
:105450000E94A00E882361F185E195E00E94A00ED4
:10546000882331F10E94B11860E080E00E942C197D
:1054700085EC93E00E94581961E080E00E942C19AD
:1054800087ED93E00E94581960ED77E080E090E0AE
:105490000E94721D0E9498110E94B11863E08AEE6A
:1054A00093E00E94721B68EE73E080E090E016C00B
:1054B0000E94B11860E080E00E942C198FEE93E00A
:1054C0000E94581961E080E00E942C1984E094E069
:1054D0000E94581960ED77E080E090E00E94721D14
:1054E0008091DA0481508093E104C093E404109227
:1054F00005018091E5048E3061F487E295E00E9419
:10550000A00E8111EDC185E195E00E94A00E8111F0
:10551000E7C18091E5048F3059F4C093E504809190
:10552000D80481508093E104C093E4041092D7041E
:105530008091E504803129F580910601813021F4C4
:105540008EE08093E50412C0823081F4C093E504BC
:105550001092E2041092D7041092D6041092D5044F
:105560001092D4041092D3040E947012109206017B
:105570008091D80481508093E104C093E404109298
:1055800005018091E504813159F4C093E5048091CF
:10559000D80481508093E104C093E4041092D704AE
:1055A0008091E504823141F5809106019FEF980FCB
:1055B000923080F49AE09093E5041092E104C09355
:1055C000E40410920501813009F094C18093EF0446
:1055D0001092060180910601833071F488E0809377
:1055E000E5048091DA0481508093E104C093E404DF
:1055F00010920501109206018091E504833179F43F
:1056000080910601813059F494E19093E504109261
:10561000E1048093E4041092050110920601809148
:10562000E504843109F041C080910601813019F40C
:10563000D093E5042EC0823081F58093E5048091FB
:10564000ED049091EE0497FF06C081958093DE04EF
:10565000C093DD0404C01092DD048093DE046091E9
:10566000DD048EE190E00E94821165E070E080E050
:1056700090E00E94721D6091DE048FE190E00E9434
:1056800082118091ED049091EE049093DC0480935C
:10569000DB041092EE041092ED04D093E104C09369
:1056A000E40410920501109206018091E504853111
:1056B00049F48EE08093E504C0930701C093E404AD
:1056C000C093E2048091E504863179F4809106016B
:1056D0008A3059F41092E10487E18093E504109236
:1056E0000601C093E404109205018091E50487311E
:1056F00071F580910601813039F4D093E504109260
:10570000EE041092ED041DC08230D9F48093E504BC
:105710006091EB047090EC048CE190E00E948211A7
:10572000672D8DE190E00E9482118091EB049091B1
:10573000EC049093E0048093DF041092EC04109248
:10574000EB049092E104C093E4041092050180916F
:10575000E504882389F0813079F1883041F4809123
:10576000E1048B30B4F18AE08093E10432C08930E7
:1057700009F4C3C0843039F48091E10484304CF1E1
:105780009092E10426C08330F1F0853009F4BDC069
:105790008B3009F4BAC08D3009F4B7C0873009F4F2
:1057A000B4C08C3009F4B1C0823009F4A6C0803195
:1057B00009F4ABC08231A1F48091E10483304CF054
:1057C000D093E10406C08091E104873014F0609228
:1057D000E1048091E10487FF27C01092E10424C016
:1057E000843109F492C0873109F48FC08A3009F0FE
:1057F0009CC02091EF048091ED049091EE0422234F
:1058000009F48BC08B3F910524F0B092EE04A09276
:10581000ED048091ED049091EE041816190624F021
:105820001092EE041092ED048091E604882339F082
:1058300081E18093E5041092E604C093E404709043
:10584000E30421E072120FC081E10E940B1C01975A
:10585000D9F48EE08093E504709207017092E4041D
:105860007092E20411C082E078120EC082E10E94C0
:105870000B1C019749F48EE08093E504C093070167
:10588000C093E404C093E204E0E0F0E0309711F448
:105890000C94021F09950C94FA1E8CEA93E030C810
:1058A0008CEA93E066C8C09304010E94B11861E0DD
:1058B0008EEB93E00E94721B68EE73E080E090E054
:1058C0000E94721D72CC89E08093E5041092D70487
:1058D000C09306018091DA0481508093E10492CD57
:1058E00080E18093E5041092E104C093E404C09346
:1058F000E2040FCE1092EF046BCE8091E10485306C
:105900000CF467CF8092E10464CF8091E10482308F
:105910000CF45FCFC093E1045CCFCC970CF479CF4B
:105920001093EE040093ED0474CF863069F48091F7
:10593000ED049091EE04853691050CF46ACFD09277
:10594000EE04C092ED0465CF8331B9F48091ED048B
:105950009091EE04C39724F0F092EE04E092ED04EF
:105960008091ED049091EE048F3C9F4F0CF05CCF42
:105970005092EE044092ED0457CF863109F054CF97
:105980008091EB049091EC04893B9B4008F44CCF50
:105990003092EC042092EB0447CFCF93DF93E9E5FC
:1059A000F5E081E0808384E090E09283818388EE5B
:1059B00093E0948383831682158288E090E0908739
:1059C000878384E690E0938782879587848797878B
:1059D0008687C4E5D5E086E0888385E08A8387E012
:1059E000898361E085E00E949C1C61E088810E94BF
:1059F0009C1C60E089810E949C1C61E08A810E945D
:105A0000341C86E090E00E944C30FC011182108230
:105A1000138212821582148290935305809352054B
:105A2000C8E4D5E081E090E0998388838DE090E040
:105A30009B838A838BE090E09D838C838CE090E055
:105A40009F838E8361E08DE00E949C1C61E08BE06F
:105A50000E949C1C61E08CE00E949C1C60E08DE038
:105A60000E94341C60E08BE00E94341C60E08CE0FB
:105A70000E94341C81E090E00E944C309987888716
:105A8000FC0110820E946918C9E3D5E01B821A82CA
:105A900088E391E0998388838EE08D8380E18C8315
:105AA0008FE08E8384E08B8761E08EE00E949C1CF7
:105AB00061E08C810E949C1C61E08E810E949C1C94
:105AC000188681E00E94B91864E087E295E00E94A0
:105AD000451860E085E195E00E94451861E083E0AB
