:100000000C9436000C945E000C945E000C945E0020
:100010000C945E000C945E000C945E000C945E00E8
:100020000C945E000C945E000C945E000C945E00D8
:100030000C945E000C945E000C945E000C945E00C8
:100040000C9421060C945E000C94E4010C94BE0107
:100050000C945E000C945E000C945E000C945E00A8
:100060000C945E000C945E000C12061211241FBE4C
:10007000CFEFD8E0DEBFCDBF11E0A0E0B1E0E6EC0D
:10008000FFE202C005900D92AC35B107D9F722E02E
:10009000ACE5B1E001C01D92AE30B207E1F710E06F
:1000A000C5E3D0E004C02197FE010E94C415C4330B
:1000B000D107C9F70E946B060C94D6170C94000068
:1000C000CF92DF92EF92FF920F931F93CF93DF9324
:1000D0006C017A018B01C0E0D0E0CE15DF0589F01C
:1000E000D8016D918D01D601ED91FC910190F081C7
:1000F000E02DC6010995892B11F47E0102C02196DD
:10010000ECCFC701DF91CF911F910F91FF90EF903E
:10011000DF90CF900895089580E090E00895FC016D
:10012000538D448D252F30E0842F90E0821B930B5C
:10013000541710F0CF96089501970895FC01918D02
:10014000828D981761F0828DDF01A80FB11D5D9639
:100150008C91928D9F5F9F73928F90E008958FEFA7
:100160009FEF0895FC01918D828D981731F0828D5B
:10017000E80FF11D858D90E008958FEF9FEF0895B2
:10018000FC01918D228D892F90E0805C9F4F821B16
:1001900091098F73992708958CE591E00E94C00022
:1001A00021E0892B09F420E0822F0895FC01848D41
:1001B000DF01A80FB11DA35ABF4F2C91848D90E091
:1001C00001968F739927848FA689B7892C93A0896C
:1001D000B1898C9180648C93938D848D981306C023
:1001E0000288F389E02D80818F7D80830895EF92CE
:1001F000FF920F931F93CF93DF93EC0181E0888FE1
:100200009B8D8C8D981305C0E889F989808185FDC7
:1002100024C0F62E0B8D10E00F5F1F4F0F731127B8
:10022000E02E8C8DE8120CC00FB607FCFACFE889DF
:10023000F989808185FFF5CFCE010E94D600F1CFEC
:100240008B8DFE01E80FF11DE35AFF4FF0820B8FFB
:10025000EA89FB898081806207C0EE89FF8960831B
:10026000E889F98980818064808381E090E0DF9172
:10027000CF911F910F91FF90EF900895CF93DF934F
:10028000EC01888D8823C9F0EA89FB89808185FD8E
:1002900005C0A889B9898C9186FD0FC00FB607FCEF
:1002A000F5CF808185FFF2CFA889B9898C9185FF30
:1002B000EDCFCE010E94D600E7CFDF91CF91089518
:1002C00080E090E0892B29F00E94CC0081110C94F1
:1002D000000008950E94C1170F931F93CF93DF93DF
:1002E000EC0188819981009729F02A813B812617AA
:1002F000370788F48B016F5F7F4F0E94F7160097D6
:1003000061F0998388831B830A832C813D81232B91
:1003100011F4FC01108281E001C080E0DF91CF91F7
:100320001F910F910895EF92FF920F931F93CF9318
:10033000DF93EC017B018A01BA010E946C012881E4
:10034000398181110DC02115310519F0C9010E94B3
:100350005F16198218821D821C821B821A8206C0B7
:100360001D830C83B701C9010E94CF17CE01DF9115
:10037000CF911F910F91FF90EF9008951F920F92D0
:100380000FB60F9211242F933F934F935F936F9368
:100390007F938F939F93AF93BF93EF93FF938CE5DE
:1003A00091E00E94D600FF91EF91BF91AF919F9194
:1003B0008F917F916F915F914F913F912F910F900E
:1003C0000FBE0F901F9018951F920F920FB60F92AD
:1003D00011242F938F939F93EF93FF93E0916C01E0
:1003E000F0916D018081E0917201F091730182FDC5
:1003F00012C09081809175018F5F8F73209176017B
:10040000821751F0E0917501F0E0E45AFE4F958FAC
:100410008093750101C08081FF91EF919F918F9131
:100420002F910F900FBE0F901F9018950F931F9351
:10043000CF93DF93EC018B0184E090E00E94CA151A
:10044000FC010097C1F01183008313821282A881FE
:10045000B981109721F4998388830BC0DC0112962F
:100460008D919C9113970097C9F71396FC93EE9387
:10047000129781E001C080E0DF91CF911F910F9131
:1004800008956F927F928F929F92AF92BF92CF9278
:10049000DF92EF92FF920F931F93CF93DF93EC01C4
:1004A0008A819B818230910599F054F4019709F07B
:1004B000E3C0EC81FD81E088F1880289138931C1B4
:1004C0008330910509F44EC0049709F491C0D4C05B
:1004D000888199818130910519F0029719F1CCC07A
:1004E000EC81FD81E088F1880289138920E030E009
:1004F000A901B701C8010E94BA1518160CF0BCC0BA
:10050000EE81FF81C088D188D289C38920E030E0A4
:10051000A901B6018D2F9C2F0E94BA1518160CF454
:10052000B0C0AAC0EC81FD81E088F18802891389FE
:1005300020E030E0A901B701C8010E94BA150E8081
:10054000DF81C02D18160CF4A8C020E030E0A9010E
:10055000688979898A899B890E94BA1518160CF4D2
:100560009CC08AC0888199818130910519F00297D9
:1005700009F182C0EC81FD81E088F188028913894C
:1005800020E030E0A901B701C8010E94BA15181691
:100590000CF072C0C884D984C6010E9441024B018C
:1005A0005C0120E030E0A9010E94BA1518160CF495
:1005B00087C062C0EC81FD81E088F18802891389DF
:1005C00020E030E0A901B701C8010E94BA15C88433
:1005D000D98418160CF47DC0C6010E94410220E0A7
:1005E00030E0A9010E94BA1518160CF472C044C07C
:1005F000888199818130910519F0029701F13CC001
:1006000078846984872D962D0E9441026B017C01BC
:1006100020E030E0A9010E94BA1518166CF50A8591
:100620001B85C8010E9441024B015C0120E030E0C3
:10063000A9010E94BA1518160CF458C01DC0B88440
:10064000A9848B2D9A2D0E9441026B017C0120E030
:1006500030E0A9010E94BA150A851B8518160CF412
:1006600050C0C8010E94410220E030E0A9010E9470
:10067000BA1518160CF445C0E12CF12C00E010E07E
:1006800050C096014D2F5C2FB701C8010E94EE1299
:1006900087FD47C076010D2F11C0B888C988DA8858
:1006A000CB892B2D3C2D4D2D5C2FB701C8010E940D
:1006B000BA151816B4F1EB2CFC2C0D2D1C2F31C0E3
:1006C000A5019401B701C8010E94EE1287FD29C05F
:1006D0000BC0C6010E9441029B01AC01B701C801D9
:1006E0000E94BA151816ECF0E601DACEA5019401C5
:1006F000C701B6010E94EE1287FF11C0C72DD62D8B
:10070000CFCEC8010E9441029B01AC01C701B601D6
:100710000E94BA1518161CF4CB2DDA2DC1CEE801B3
:10072000BFCEB701C801DF91CF911F910F91FF900C
:10073000EF90DF90CF90BF90AF909F908F907F9081
:100740006F9008954F925F926F927F928F929F92D7
:10075000AF92BF92CF92DF92EF92FF920F931F93CF
:10076000CF93DF93CDB7DEB768970FB6F894DEBFAF
:100770000FBECDBF4D875E876F87788B098B1A8B35
:100780002B8B3C8B2FA538A949A95AA96FA978AD05
:1007900089AD9AAD0E94AC146D8B7E8B8F8B988F38
:1007A0002D853E854F855889C701B6010E94AC143E
:1007B0006D837E838F8398872BA53CA54DA55EA571
:1007C0006BA97CA98DA99EA90E94AC146B017C0128
:1007D00029893A894B895C89C501B4010E94AC140E
:1007E00069877A878B879C872D813E814F815885C9
:1007F0006D897E898F89988D0E9454134B015C010D
:1008000029853A854B855C85C701B6010E94541342
:100810009B01AC01C501B4010E94AC142B013C0149
:1008200020E030E0A9010E94EE1287FF04C077FAB1
:10083000709477F870942FE632E143E85AE3C301ED
:10084000B2010E94EE1287FDC7C02FA538A949A9A1
:100850005AA969897A898B899C890E94AC144B01B9
:100860005C012BA53CA54DA55EA56D857E858F857C
:1008700098890E94AC1469837A838B839C83A50139
:100880009401C701B6010E9454136B017C012981B8
:100890003A814B815C816D897E898F89988D0E9418
:1008A00054139B01AC01C701B6010E94AC146B014B
:1008B0007C0120E030E0A9010E94EE1287FF04C015
:1008C000F7FAF094F7F8F094A50194016D817E8118
:1008D0008F8198850E9454134B015C0129813A81D4
:1008E0004B815C8169857A858B859C850E94541338
:1008F0009B01AC01C501B4010E94AC144B015C0129
:1009000020E030E0A9010E94EE1287FF04C0B7FA90
:10091000B094B7F8B094A3019201C701B6010E9448
:1009200019156B017C0120E030E0A9010E94EE1254
:1009300087FD52C020E030E040E85FE3C701B60128
:100940000E94BA1518160CF447C0A3019201C50104
:10095000B4010E9419154B015C0120E030E0A901AF
:100960000E94EE1287FD38C020E030E040E85FE3EF
:10097000C501B4010E94BA15181674F12D813E818B
:100980004F815885C701B6010E9454139B01AC01E9
:100990006D857E858F8598890E94AD14EBADFCAD89
:1009A000608371838283938329853A854B855C8537
:1009B000C701B6010E9454139B01AC0169897A8971
:1009C0008B899C890E94AD14EDADFEAD608371836F
:1009D0008283938381E001C080E068960FB6F8942B
:1009E000DEBF0FBECDBFDF91CF911F910F91FF9062
:1009F000EF90DF90CF90BF90AF909F908F907F90BF
:100A00006F905F904F9008950F931F93CF93DF9354
:100A1000EC018B0184E090E00E94CA15FC01009774
:100A2000C1F01183008313821282AE81BF811097BF
:100A300021F49F838E830BC0DC0112968D919C91D3
:100A400013970097C9F71396FC93EE93129781E0E2
:100A500001C080E0DF91CF911F910F910895CF9356
:100A6000DF936115710551F0EB016A857B850E946A
:100A70002F05CE01DF91CF910C945F16DF91CF91BE
:100A80000895AF92BF92CF92DF92EF92FF920F93B1
:100A90001F93CF93DF9300D000D0CDB7DEB75C01BA
:100AA000680179018CE090E049835A836B837C83F1
:100AB0000E94CA15FC0149815A816B817C81009793
:100AC00039F1118210824283538364837583C68215
:100AD000D782E086F18613861286D5012D913C914E
:100AE00011972115310521F48D939C930FC09C0122
:100AF000D9011A968D919C911B970097C1F731836C
:100B00002083D9011B96FC93EE931A9781E001C0D4
:100B100080E00F900F900F900F90DF91CF911F9179
:100B20000F91FF90EF90DF90CF90BF90AF9008951E
:100B30000F931F93CF93DF93EC018B0184E090E040
:100B40000E94CA15FC010097C1F011830083138233
:100B50001282AC81BD81109721F49D838C830BC0E0
:100B6000DC0112968D919C9113970097C9F713960B
:100B7000FC93EE93129781E001C080E0DF91CF916A
:100B80001F910F910895009769F0FC0101900020DA
:100B9000E9F73197AF01481B590BBC018CE591E097
:100BA0000C94600080E090E00895E0915C01F09189
:100BB0005D010190F081E02D682F8CE591E00994B2
:100BC0008F929F92AF92BF920F931F93CF93DF9319
:100BD000CDB7DEB7A1970FB6F894DEBF0FBECDBF7D
:100BE00019A2423008F44AE08E010F5D1F4F842E97
:100BF000912CA12CB12CA50194010E947B14E62F0D
:100C0000B901CA0101501109EA3014F4E05D01C0D4
:100C1000E95CD801EC93232B242B252B61F7C80129
:100C20000E94C305A1960FB6F894DEBF0FBECDBFDC
:100C3000DF91CF911F910F91BF90AF909F908F90B8
:100C400008951F920F920FB60F9211242F933F9386
:100C50008F939F93AF93BF93809106029091070269
:100C6000A0910802B09109023091050223E0230F00
:100C70002D3720F40196A11DB11D05C026E8230FD4
:100C80000296A11DB11D2093050280930602909348
:100C90000702A0930802B09309028091010290918B
:100CA0000202A0910302B09104020196A11DB11DA0
:100CB0008093010290930202A0930302B093040276
:100CC000BF91AF919F918F913F912F910F900FBE48
:100CD0000F901F901895CF93DF93CDB7DEB7CA540E
:100CE000D1090FB6F894DEBF0FBECDBF789484B59E
:100CF000826084BD84B5816084BD85B5826085BD18
:100D000085B5816085BD80916E00816080936E00A5
:100D10001092810080918100826080938100809197
:100D20008100816080938100809180008160809348
:100D300080008091B10084608093B1008091B00008
:100D400081608093B00080917A00846080937A0003
:100D500080917A00826080937A0080917A0081602D
:100D600080937A0080917A00806880937A00109254
:100D7000C100E0916C01F0916D0182E08083E0910F
:100D80006801F09169011082E0916A01F0916B01B4
:100D90008FEC808310927401E0917001F0917101E9
:100DA00086E08083E0916E01F0916F018081806127
:100DB0008083E0916E01F0916F0180818860808373
:100DC000E0916E01F0916F01808180688083E091F5
:100DD0006E01F0916F0180818F7D808380E480932C
:100DE0007C0080917A00806480937A0080917A0000
:100DF00086FDFCCF609178008091790070E0782BBF
:100E0000072E000C880B990B611571058105910562
:100E100011F00E94A91288E090E00E94CA158C018E
:100E200081E090E0D8018D939C93F80112821382A7
:100E3000148215821782168284E190E00E94CA15FE
:100E40003C01DC011D921D921D921C92139780E0C3
:100E500090E0A0EAB1E4F30184839583A683B7838D
:100E600080879187A287B38780E090E0A0E2B2E418
:100E700084879587A687B787108A118A128A138A72
:100E8000B301C8010E94040584E190E00E94CA15E4
:100E90002C0180E090E0A0EFB1E4F2018083918327
:100EA000A283B38380E090E0A8E4B2E484839583D6
:100EB000A683B78380879187A287B38780E090E07D
:100EC000ACE8B2E484879587A687B787108A118A31
:100ED000128A138AB201C8010E94040584E190E0DD
:100EE0000E94CA151C0180E090E0A0E7B2E4F10185
:100EF00080839183A283B38380E090E0A0EAB2E490
:100F000084839583A683B78380879187A287B387DD
:100F100084879587A687B787108A118A128A138AD1
:100F2000B101C8010E940405E090FF01F0900002A9
:100F300084E090E00E94CA150097B1F0FC01118393
:100F4000008313821282D701ED91FC9111973097A3
:100F500021F48D939C9308C0F901228133812115DE
:100F60003105D1F7938382838AE090E00E94CA150D
:100F70008C0181E090E0F8019183808312821382DA
:100F8000148215821782168282E090E00E94CA15B0
:100F9000FC0111821082D80119969C938E931897A8
:100FA00084E190E00E94CA15988F8F8BFC0110821B
:100FB000118212821382C12CD12C30E2E32E31E453
:100FC000F32EC482D582E682F782C086D186E2867D
:100FD000F386812C912C40EAA42E41E4B42E848621
:100FE0009586A686B786108A118A128A138ABC0152
:100FF000C8010E94040584E190E00E94CA159E8FFA
:101000008D8FDC01CD92DD92ED92FC921397FC0165
:1010100084829582A682B782812C912C50EFA52ED6
:1010200051E4B52E18968D929D92AD92BC921B976D
:10103000C12CD12C60E2E62E62E4F62EC486D58661
:10104000E686F78650961D921D921D921C9253972C
:10105000BC01C8010E94040584E190E00E94CA1509
:101060009C8F8B8FFC0180829182A282B382C4828A
:10107000D582E682F782C086D186E286F38680E05A
:1010800090E0A8E4B2E484879587A687B787108AA2
:10109000118A128A138ABF01C8010E940405E091D7
:1010A000FF01F0910002F8A3EF8F84E090E00E942E
:1010B000CA155C01009709F459C0DC0111961C9314
:1010C0000E9313961C921E921297F801F681FFA3BD
:1010D000D8011796BC91BBA7EF2EFB2EE114F104AB
:1010E00089F10FA11BA50115110531F1F801C2808D
:1010F000D380C114D104F1F0208131813CA32BA312
:10110000D6018D909C90F4012081318142815381E0
:10111000ABA1BCA16D917D918D919C910E94BA155E
:10112000181644F4F80191828082EBA1FCA1D6014B
:10113000ED93FC938601D7CFD7011296ED90FC90EA
:101140001397CCCFAF8DB8A11296ED91FC91139768
:10115000309731F41396BC92AE92129707C0FC01FF
:10116000828193810097D9F7B382A2828CE090E0CC
:101170000E94CA158C01FC01118210821382128216
:1011800015821482178216821186108613861286A3
:101190006114710431F081E090E093838283758261
:1011A000648282E090E00E94CA157C01DC011D92FD
:1011B0001C926F89788D0E94160287E090E00E9451
:1011C000CA15FC01CC24C394D12CD182C0821282D6
:1011D00014830383F682E582BC018091FF01909124
:1011E00000020E9498058CE090E00E94CA158C01D4
:1011F000FC011182108213821282158214821782DE
:10120000168211861086138612864114510421F02D
:10121000D382C2825582448282E090E00E94CA1545
:101220007C01DC011D921C926D8D7E8D0E94160248
:1012300087E090E00E94CA15FC0182E090E0918373
:101240008083128214830383F682E582BF0180913A
:10125000FF01909100020E9498058CE090E00E94AE
:10126000CA158C01FC011182108213821282158230
:101270001482178216821186108613861286211414
:10128000310431F081E090E09383828335822482BF
:1012900082E090E00E94CA157C01DC011D921C9244
:1012A0006B8D7C8D0E94160287E090E00E94CA152B
:1012B000FC0183E090E09183808312821483038396
:1012C000F682E582BF018091FF01909100020E94A9
:1012D0009805FE013996FC8BEB8B9E01235F3F4FF7
:1012E0003E8B2D8B8CE591E00E94C00018161906EC
:1012F00014F00C94B8118CE591E00E949E009C01C2
:10130000205331092A30310518F589831A8200915A
:10131000FD011091FE010F5F1F4FB80189EF91E0B1
:101320000E946C018823F1F22091F9013091FA01B9
:101330008091FD019091FE01BE016F5F7F4F820F92
:10134000931F0E94CF171093FE010093FD01CACF97
:101350000A9741F68CE191E00E94C3058AE291E090
:101360000E94C3058DE291E00E94C3058091F901BE
:101370009091FA01009791F00E94B2126B017C01EA
:1013800097FF0FC08DE20E94D50566277727CB0116
:101390006C197D098E099F094AE006C0C12CD12C29
:1013A00076014AE0C701B6010E94E0058AE291E0B9
:1013B0000E94C3058091F9019091FA01009719F0FC
:1013C0000E94B21203C060E070E0CB014091FF01C7
:1013D000509100025CA34BA3DA012D903C90F101E7
:1013E0003097A1F000811181D8012D913C912130DD
:1013F000310541F40E94F512F801628373838483FE
:10140000958304C00280F381E02DEACF910121157C
:101410003105E1F0F901A081B18116960D90BC91E2
:10142000A02D109769F08D919C911197FC01108A65
:10143000118A128A138A12960D90BC91A02DF1CFB9
:10144000D90112962D913C911397E1CFEBA1FCA10C
:101450000280F381E02DFE8FED8F9F012115310574
:1014600009F48BC0F901A081B18116960D90BC9151
:10147000A02D109769F08D919C911197FC01108A15
:10148000118A128A138A12960D90BC91A02DF1CF69
:10149000D90112962D913C911397E0CFAFA1B8A539
:1014A0001296CD90DD90ED90FC901597EB8DFC8D14
:1014B00000811181D8012D913D914D915C912F8B2F
:1014C000388F498F5A8FC701B6010E94EE12F8017A
:1014D000448055806680778087FD5EC02F89388D77
:1014E000498D5A8DC701B6010E94BA1587FD76C095
:1014F000A3019201C701B6010E94EE1287FF6EC0E0
:101500002F89388D498D5A8DC301B2010E94AC14C8
:101510009B01AC0160E070E080E89FE30E94191538
:101520004B015C01A3019201C701B6010E94AC14FA
:101530009B01AC01C501B4010E94541320E030E0CE
:1015400040E85FE30E94AD14D80150966D937D93FF
:101550008D939C935397AB8DBC8D12960D90BC913F
:10156000A02DBC8FAB8FEB8DFC8DEF2B09F096CFB0
:10157000D10112962D903C9013972114310409F457
:10158000C2C0F1010190F081E02DF8A7EFA3268100
:1015900037813C8F2B8FE7CFA30192016F89788D24
:1015A000898D9A8D0E94EE128111A7C0D8011896DC
:1015B000CD90DD90ED90FC901B97A7019601C301A3
:1015C000B2010E94EE12882309F497C0F801248525
:1015D000358546855785C701B6017FC0A3019201B5
:1015E000C701B6010E94BA1587FD0CC0F80120851D
:1015F000318542855385C701B6010E94EE12181647
:101600000CF06FC0F80180849184A284B384A5019A
:101610009401C701B6010E94BA15D8011C962D91FC
:101620003D914D915C911F972F8F38A349A35AA3E9
:10163000181684F5C701B6010E94EE12181654F16F
:101640002F8D38A149A15AA1C501B4010E94AC1443
:101650009B01AC0160E070E080E89FE30E941915F7
:101660002B013C01A5019401C701B6010E94AC14F5
:101670009B01AC01C301B2010E94541320E030E091
:1016800040E85FE30E94AD14F801608B718B828BA0
:10169000938B61CF2F8D38A149A15AA1C701B60103
:1016A0000E94BA1518160CF056CF2F8D38A149A1FB
:1016B0005AA1C501B4010E94EE1281111EC0A301FE
:1016C0009201C501B4010E94EE128823B1F02F8966
:1016D000388D498D5A8DC301B2010E94EE128823C4
:1016E00061F020E030E040E85FE3D80150962D93B0
:1016F0003D934D935C9353972ECFF801108A118A36
:10170000128A138A28CFEBA1FCA1048115817724CA
:1017100073940115110509F443C0D801ED90FC90B4
:10172000F701838194810097B9F1C580D680C114F7
:10173000D10491F10E9441024B015C0120E030E0B4
:10174000A9010E94BA15181624F4D70112967C92AA
:1017500002C0F7011282D601ED90FC90E114F10471
:10176000D9F0F701C080D180A5019401D60150962F
:101770006D917D918D919C9153970E94EE1287FF00
:1017800005C0F601808A918AA28AB38AD70112968F
:10179000ED90FC901397E2CFF80102811381B9CF4D
:1017A0009E012B5F3F4F3A8B298BED8DFE8DEF2BEA
:1017B00009F4DBC3AD8DBE8D2D903C90F101008509
:1017C0001185D8016D917C91C8010E942F05F80107
:1017D00011821082D10116966D907C90179761143A
:1017E000710409F493C1F3010081118120E030E01C
:1017F000A901D80150966D917D918D919C9153973F
:101800000E94BA1518160CF07BC1F801C080D18077
:10181000E280F3802481358146815781C701B6017A
:101820000E94EE12882361F000E010E09801B701F9
:10183000A601D10118968D919C9119970E9441059E
:10184000F30100811181D8011496CD90DD90ED90C7
:10185000FC90179718962D913D914D915C911B9797
:10186000C701B6010E94EE1281112CC0F801F0816F
:10187000FF8BD8011196BC91BB8FF8015280438039
:10188000F485FF8FD8011D96BC901D971E96AC90D5
:101890001E971F969C902F2F3B2D4A2D592DBF89A7
:1018A000AB8DF2016B2F7A2F8F2F9E2F0E94EE129D
:1018B0008111E8C0D80150960D911D912D913C9158
:1018C0005397FCC0D80150968C90509751969C909D
:1018D00051975296AC9052975396BC9020E030E0CE
:1018E00040E85FE3682D792D8A2D9B2D0E94EE1232
:1018F000811117C000E010E020E83FE3B701A60126
:10190000F101808591850E944105D301ED91FC9103
:1019100000891189228933894085518562857385C3
:10192000CFC0CD86DE86EF86F88A9401F501C90125
:10193000DF0189879A87AB87BC87D8017C91119694
:101940006C91119712965C91129713964C91BC89E9
:10195000BF938B898F939E899F93AD89AF93FF939C
:10196000EF933F932F93D8011F968C911F978F93DE
:101970001E968C911E978F931D968C911D978F9319
:101980001C968C918F93FF93EF933F932F934F93DC
:101990005F936F937F93812C912C80E8A82E8FE327
:1019A000B82E00E010E09801FB01CA014F2F5E2F16
:1019B000692F782FC1010E94A20309851A852B8502
:1019C0003C854D855E856F857889F101808591859F
:1019D0000E944105D301ED91FC91408551856285BE
:1019E00073854D835E836F837887B089A1899289DF
:1019F00083892B2F3A2F8C01C901A12FB02F898306
:101A00009A83AB83BC83E484F584B685A78581E0A3
:101A100090E08C0F9D1F9F938F939A899F93898944
:101A20008F930F931F933F932F93AF93BF93FF9287
:101A3000EF920F931F933F932F9383818F93828114
:101A40008F9381818F9380818F93812C912C54016E
:101A5000CD01CE2CDF2CE92EF82E00E010E020E89E
:101A60003FE3C1010E94A2030FB6F894DEBF0FBE90
:101A7000CDBF09811A812B813C814D815E816F81AF
:101A800078851EC0F8018088F189FBA3D8015296A1
:101A9000BC91BFA3F801138920E030E040E85FE388
:101AA000ABA1FFA1682D7A2F8F2F912F0E94EE12EC
:101AB000811162C400E010E020E83FE3B701A60115
:101AC000F101808591850E944105D301ED91FC9142
:101AD000C484D584E684F784A70196016085718566
:101AE000828593850E94EE12882351F000E010E079
:101AF0009801B701A601F101808591850E944105F9
:101B0000D30112966D907C90139769CEF1010084F9
:101B1000F185E02D2396FFAFEEAF23972081318131
:101B200038A32F8F2F8D38A1232B09F415C22F8CAA
:101B300038A0D1010D911C910115110581F0D8013A
:101B400012962D913D914D915C911597F101628115
:101B50007381848195810E94EE1287FF05C02196D2
:101B60003FAE2EAE219713C01801E3CF2081318103
:101B70003C8F2B8F232BA1F42196EEADFFAD219747
:101B80000190F081E02D2196FFAFEEAF21972196D5
:101B9000AEADBFAD2197ED91FC91309739F7D4C12F
:101BA000D1011A960D90BC91A02DBCA3ABA3D1017D
:101BB00012962D913D914D915C9115972BAF3CAFB5
:101BC0004DAF5EAF16962D913D914D915C91199759
:101BD0002FAB38AF49AF5AAF228133814481558151
:101BE0002BAB3CAB4DAB5EAB86819781A085B185BD
:101BF0008FA798ABA9ABBAAB9C01AD01AB8DBC8DE7
:101C000016966D917D918D919C9119970E94AC14BF
:101C100027966CAF7DAF8EAF9FAF27972BAD3CADB6
:101C20004DAD5EADEBA1FCA1628173818481958194
:101C30000E94AC146BA77CA78DA79EA72BA93CA9DB
:101C40004DA95EA9AB8DBC8D12966D917D918D9144
:101C50009C9115970E94AC142B013C012FA938AD23
:101C600049AD5AADEBA1FCA1668177818085918554
:101C70000E94AC146FA378A789A79AA72BA53CA5AF
:101C80004DA55EA527966CAD7DAD8EAD9FAD27971A
:101C90000E9454136B017C012FA138A549A55AA5B8
:101CA000C301B2010E9454139B01AC01C701B601EC
:101CB0000E94AC146F8B788F898F9A8F20E030E070
:101CC000A9010E94EE1287FF09C02F89388D498D26
:101CD0005A8D50582F8B388F498F5A8F2FE632E10B
:101CE00043E85AE36F89788D898D9A8D0E94EE12B0
:101CF00087FD42CF2FA538A949A95AA96FA978AD68
:101D000089AD9AAD0E94AC144B015C012BA93CA992
:101D10004DA95EA96BAD7CAD8DAD9EAD0E94AC149E
:101D20006B017C01A5019401C301B2010E9454130F
:101D30002B013C01A701960127966CAD7DAD8EADC0
:101D40009FAD27970E9454139B01AC01C301B201C0
:101D50000E94AC142B013C0120E030E0A9010E945C
:101D6000EE1287FF04C077FA709477F87094A5019B
:101D700094016BA57CA58DA59EA50E9454134B01D3
:101D80005C01A70196016FA178A589A59AA50E947B
:101D900054139B01AC01C501B4010E94AC146B014A
:101DA0007C0120E030E0A9010E94EE1287FF04C010
:101DB000F7FAF094F7F8F0942F89388D498D5A8D01
:101DC000C301B2010E9419154B015C0120E030E013
:101DD000A9010E94EE1287FDCFCE20E030E040E85E
:101DE0005FE3C501B4010E94BA1518160CF4C4CE05
:101DF0002F89388D498D5A8DC701B6010E9419155A
:101E00006B017C0120E030E0A9010E94EE1287FD09
:101E1000B3CE20E030E040E85FE3C701B6010E94A6
:101E2000BA1518160CF4A8CE8CE090E00E94CA15E2
:101E30008C01009709F4A0CEEB8DFC8DDC01ED93B5
:101E4000FC932BA53CA54DA55EA5C501B4010E9440
:101E500054139B01AC016BAD7CAD8DAD9EAD0E946A
:101E6000AD14D80112966D937D938D939C93159725
:101E70002FA138A549A55AA5C501B4010E94541344
:101E80009B01AC016FA978AD89AD9AAD0E94AD14EC
:101E9000F80166837783808791872BA13CA13387E4
:101EA0002287AB8DBC8D1B961C930E931A97F9015C
:101EB00011830083D10112962D913D914D915C913A
:101EC00015971696CD90DD90ED90FC9019970C919A
:101ED00011961C91C10128962FAF289729963FAFE4
:101EE00029972A964FAF2A972B965FAF2B970E9480
:101EF0005F1628962FAD289729963FAD29972A96E9
:101F00004FAD2A972B965FAD2B976BA97CA98DA916
:101F10009EA90E94EE1281110AC0A70196016FA529
:101F200078A989A99AA90E94EE12882321F01801A4
:101F3000012B09F0BFCF2396AEADBFAD23970D9017
:101F4000BC91A02DB8A3AF8FEF8DF8A10284F385CB
:101F5000E02DF8A3EF8FE6CDAD8DBE8D12960D90DE
:101F6000BC91A02DBE8FAD8F20CCE091FF01F091F0
:101F700000020280F381E02D309709F442C1A08174
:101F8000B1818D919C911197019799F71896ED91D8
:101F9000FC911997008111811F8E18A219A21AA213
:101FA0001BA21CA21DA21EA20115110509F411C13C
:101FB000D8011A960D90BC91A02DB88FAF8B1097B9
:101FC00009F404C1F801C280D380E480F580129640
:101FD0004D905D906D907C901597A3019201C70183
:101FE000B6010E94EE12D80116963C9016971796ED
:101FF0002C9017971896BC91BD8FF801F185FB8F37
:10200000811105C0A32CB22C0B2F1F2FC1C020E0C3
:1020100030E0A901632D722D8D8D9B8D0E94EE12F3
:10202000882389F0AF89B88D16968D909D90AD90DC
:10203000BC90199720E030E0A901C501B4010E94CD
:10204000EE12811148C020E030E0A901632D722D0D
:102050008D8D9B8D0E94BA1518163CF0EF89F88D76
:10206000A680B7800085118504C0A32CB22C0D8DED
:102070001B8DA7019601C301B2010E94AC142B0174
:102080003C019501A8010E94541320E030E040E09B
:102090005FE30E9454135B018C01AF89B88D1696E3
:1020A0002D913D914D915C911997632D722D8D8DE0
:1020B0009B8D0E94EE1287FF05C020E030E040ECCF
:1020C0005FE304C020E030E040E450E4C301B2012B
:1020D0000E94191555C020E030E0A901632D722D32
:1020E0008D8D9B8D0E94BA15181604F520E030E006
:1020F000A901C501B4010E94BA151816BCF4A501C6
:102100009401632D722D8D8D9B8D0E94EE12A7017F
:102110009601811113C0C301B2010E94AC142B01BE
:102120003C01232D322D4D8D5B8D1EC0C12CD12C39
:102130007601A12CB12C00E010E02AC0C301B2014D
:102140000E94AC142B013C01A5019401632D722D5A
:102150008D8D9B8D0E94AD1420E030E040E05FE368
:102160000E945413A30192010E9454135B018C013D
:1021700020E030E040E05FE3C301B2010E9454136D
:102180009B01AC01C701B6010E94AD146B017C013B
:102190009501A801C701B6010E9454139B01AC012F
:1021A0006BA17CA18DA19EA10E94AD146BA37CA309
:1021B0008DA39EA39501A8016F8D78A189A19AA1F5
:1021C0000E94AD146F8F78A389A39AA30F89188DED
:1021D000EBCE20E030E0A9016F8D78A189A19AA112
:1021E0000E94EE12882369F02F8D38A149A15AA1CF
:1021F0006BA17CA18DA19EA10E9419156B017C0190
:1022000003C0C12CD12C76018BE391E00E94C30561
:102210008AE291E00E94C30584E491E00E94C30534
:10222000A7019601C701B6010E94BF15882319F0C6
:102230008FE491E01AC046015701E894B7F82FEFF8
:102240003FEF4FE75FE7C501B4010E94BF15811161
:102250000FC02FEF3FEF4FE75FE7C501B4010E94CA
:10226000EE1218162CF483E591E00E94C30572C0AB
:102270002FEF3FEF4FE75FE4C701B6010E94BA15A9
:1022800018161CF487E591E0F0CF2FEF3FEF4FE7F2
:102290005FECC701B6010E94EE1287FDF3CF20E08C
:1022A00030E0A901C701B6010E94EE1287FF07C006
:1022B0008DE20E94D505F7FAF094F7F8F0942AE041
:1022C00037ED43EA5BE3C701B6010E94AD144B0151
:1022D0005C010E948B156B017C010E94F3129B0133
:1022E000AC01C501B4010E94AC144B015C014AE091
:1022F000C701B6010E94E0058EE20E94D50520E0EC
:1023000030E040E251E4C501B4010E9454134B0196
:102310005C010E948B156B01E12CF12C4AE0C70196
:10232000B6010E94E005C701B6010E94F3129B01AD
:10233000AC01C501B4010E94AC1420E030E040E2E1
:1023400051E40E9454130E948B1580E090E04AE013
:102350000E94E0058AE291E00E94C30540E050E05F
:102360006CE271E089EF91E00E9493010C94720994
:102370000E9460010C947209CD86DE86EF86F88A91
:10238000282D3BA14FA1512FC901DA0189879A87D6
:10239000AB87BC87FC89FF938B898F939E899F9322
:1023A000AD89AF931F934F933F938F929F92AF92BC
:1023B000BF92BF8DBF931F934F933F938F924F92C6
:1023C0005F92EB8DEF93FF89FF93812C912C90E826
:1023D000A92E9FE3B92E00E010E09801FF89EB8D54
:1023E000C2014F2F5E2F692F742DC1010E94A203DD
:1023F00009851A852B853C854D855E856F85788995
:10240000D10118968D919C911997E2CA8091F9019A
:102410009091FA010C945F16ECE5F1E013821282C0
:1024200088EE93E0A0E0B0E084839583A683B78331
:102430008EE091E09183808385EC90E0958784879E
:1024400084EC90E09787868780EC90E0918B808B7E
:1024500081EC90E0938B828B82EC90E0958B848B67
:1024600086EC90E0978B868B118E128E138E148ED5
:1024700086E090E00E94CA15FC011182108213824E
:10248000128215821482909300028093FF01E9EF7B
:10249000F1E011821082138212821582148240E0D0
:1024A00050E06CE271E0CF010C9493018F929F9207
:1024B000AF92BF92CF92DF92EF92FF92CF93DF93D2
:1024C000EC01688179818A819B81611571058105A3
:1024D000910521F464E279ED8BE597E02DE133EF8E
:1024E00041E050E00E94121449015A019B01AC01E5
:1024F000A7EAB1E40E9431146B017C01ACEEB4EFA9
:10250000A50194010E943F14DC01CB018C0D9D1D9F
:10251000AE1DBF1DB7FF03C00197A109B048888356
:102520009983AA83BB83BC01CD019F77DF91CF91B3
:10253000FF90EF90DF90CF90BF90AF909F908F90E3
:1025400008950E945612089580E091E00E9456126C
:1025500008956093000170930101809302019093AC
:10256000030108951F93FC0199278827BC01E89473
:1025700011911032E9F3193010F01E30C8F31B32FC
:1025800051F01D3249F4689406C00E94D912610FBF
:10259000711D811D911D119110531A30B0F33EF43D
:1025A00090958095709561957F4F8F4F9F4F1F91AC
:1025B0000895592F482F372F262F660F771F881F12
:1025C000991F660F771F881F991F620F731F841F43
:1025D000951F660F771F881F991F08950E9430135B
:1025E00008F481E00895E89409C097FB3EF49095C3
:1025F0008095709561957F4F8F4F9F4F9923A9F0DC
:10260000F92F96E9BB279395F6958795779567956A
:10261000B795F111F8CFFAF4BB0F11F460FF1BC0AE
:102620006F5F7F4F8F4F9F4F16C0882311F096E941
:1026300011C0772321F09EE8872F762F05C06623EF
:1026400071F096E8862F70E060E02AF09A95660FA8
:10265000771F881FDAF7880F9695879597F9089561
:10266000990F0008550FAA0BE0E8FEEF16161706A3
:10267000E807F907C0F012161306E407F50798F00B
:10268000621B730B840B950B39F40A2661F0232B24
:10269000242B252B21F408950A2609F4A140A695A0
:1026A0008FEF811D811D08950E9467130C94D8132C
:1026B0000E94CA1338F00E94D11320F0952311F024
:1026C0000C94C1130C94C71311240C940C140E9485
:1026D000E91370F3959FC1F3950F50E0551F629F6A
:1026E000F001729FBB27F00DB11D639FAA27F00D6B
:1026F000B11DAA1F649F6627B00DA11D661F829F92
:102700002227B00DA11D621F739FB00DA11D621F76
:10271000839FA00D611D221F749F3327A00D611D93
:10272000231F849F600D211D822F762F6A2F112475
:102730009F5750409AF0F1F088234AF0EE0FFF1FA8
:10274000BB1F661F771F881F91505040A9F79E3FFF
:10275000510580F00C94C1130C940C145F3FE4F30A
:10276000983ED4F3869577956795B795F795E79555
:102770009F5FC1F7FE2B880F911D9695879597F95E
:10278000089597F99F6780E870E060E008959FEFF3
:1027900080EC089500240A941616170618060906F8
:1027A000089500240A9412161306140605060895C7
:1027B000092E0394000C11F4882352F0BB0F40F44F
:1027C000BF2B11F460FF04C06F5F7F4F8F4F9F4F8F
:1027D000089557FD9058440F551F59F05F3F71F011
:1027E0004795880F97FB991F61F09F3F79F0879578
:1027F0000895121613061406551FF2CF4695F1DF01
:1028000008C0161617061806991FF1CF8695710590
:10281000610508940895E894BB2766277727CB01C4
:1028200097F90895052E97FB1EF400940E94291431
:1028300057FD07D00E947B1407FC03D04EF40C9484
:10284000291450954095309521953F4F4F4F5F4F3C
:10285000089590958095709561957F4F8F4F9F4F0C
:1028600008950E949D14A59F900DB49F900DA49F64
:10287000800D911D11240895B7FF0C9431140E940E
:102880003114821B930B08952F923F924F925F92C7
:102890006F927F928F929F92AF92BF92CF92DF9270
:1028A000EF92FF920F931F93CF93DF93CDB7DEB7D5
:1028B000CA1BDB0B0FB6F894DEBF0FBECDBF099469
:1028C0002A88398848885F846E847D848C849B84C0
:1028D000AA84B984C884DF80EE80FD800C811B81CE
:1028E000AA81B981CE0FD11D0FB6F894DEBF0FBEFD
:1028F000CDBFED010895A1E21A2EAA1BBB1BFD015D
:102900000DC0AA1FBB1FEE1FFF1FA217B307E407CE
:10291000F50720F0A21BB30BE40BF50B661F771F26
:10292000881F991F1A9469F7609570958095909506
:102930009B01AC01BD01CF010895A29FB001B39FDF
:10294000C001A39F700D811D1124911DB29F700DB8
:10295000811D1124911D08955058BB27AA270E945C
:10296000C4140C94D8130E94CA1338F00E94D113D7
:1029700020F039F49F3F19F426F40C94C7130EF499
:10298000E095E7FB0C94C113E92F0E94E91358F37B
:10299000BA17620773078407950720F079F4A6F544
:1029A0000C940B140EF4E0950B2EBA2FA02D0B01F6
:1029B000B90190010C01CA01A0011124FF27591B84
:1029C00099F0593F50F4503E68F11A16F040A22F8A
:1029D000232F342F4427585FF3CF469537952795FB
:1029E000A795F0405395C9F77EF41F16BA0B620BFA
:1029F000730B840BBAF09150A1F0FF0FBB1F661F41
:102A0000771F881FC2F70EC0BA0F621F731F841F83
:102A100048F4879577956795B795F7959E3F08F0A9
:102A2000B0CF9395880F08F09927EE0F979587956B
:102A300008950E942D150C94D8130E94D11358F0BC
:102A40000E94CA1340F029F45F3F29F00C94C1138F
:102A500051110C940C140C94C7130E94E91368F3E1
:102A60009923B1F3552391F3951B550BBB27AA2747
:102A700062177307840738F09F5F5F4F220F331F81
:102A8000441FAA1FA9F335D00E2E3AF0E0E832D049
:102A900091505040E695001CCAF72BD0FE2F29D04C
:102AA000660F771F881FBB1F261737074807AB071E
:102AB000B0E809F0BB0B802DBF01FF2793585F4F93
:102AC0003AF09E3F510578F00C94C1130C940C140D
:102AD0005F3FE4F3983ED4F3869577956795B79575
:102AE000F7959F5FC9F7880F911D9695879597F980
:102AF0000895E1E0660F771F881FBB1F62177307F9
:102B00008407BA0720F0621B730B840BBA0BEE1F0D
:102B100088F7E09508950E94F11388F09F5798F088
:102B2000B92F9927B751B0F0E1F0660F771F881FD2
:102B3000991F1AF0BA95C9F714C0B13091F00E94EC
:102B40000B14B1E008950C940B14672F782F88278D
:102B5000B85F39F0B93FCCF3869577956795B39513
:102B6000D9F73EF490958095709561957F4F8F4F82
:102B70009F4F08950E94301308F48FEF08950E942C
:102B80003013880B990B0895EE0FFF1F0590F491F9
:102B9000E02D0994CF93DF938230910510F482E009
:102BA00090E0E0910C02F0910D0220E030E0C0E0F6
:102BB000D0E0309711F14081518148175907C0F09A
:102BC0004817590761F482819381209719F09B83FC
:102BD0008A832BC090930D0280930C0226C021158E
:102BE000310519F04217530718F49A01BE01DF01AD
:102BF000EF010280F381E02DDCCF2115310509F1D1
:102C0000281B390B2430310590F412968D919C913C
:102C100013976115710521F0FB019383828304C032
:102C200090930D0280930C02FD01329644C0FD0189
:102C3000E20FF31F81939193225031092D933C931E
:102C40003AC020910A0230910B02232B41F42091CB
:102C500006013091070130930B0220930A02209164
:102C60000401309105012115310541F42DB73EB71E
:102C70004091080150910901241B350BE0910A0293
:102C8000F0910B02E217F307A0F42E1B3F0B28175D
:102C9000390778F0AC014E5F5F4F2417350748F0D5
:102CA0004E0F5F1F50930B0240930A028193919342
:102CB00002C0E0E0F0E0CF01DF91CF9108950F93E3
:102CC0001F93CF93DF93009709F48CC0FC013297D8
:102CD0001382128200910C0210910D020115110550
:102CE00081F420813181820F931F20910A0230915B
:102CF0000B022817390779F5F0930B02E0930A02CB
:102D000071C0D80140E050E0AE17BF0750F41296F2
:102D10002D913C911397AD012115310509F1D90190
:102D2000F3CF9D01DA013383228360817181860FA5
:102D3000971F8217930769F4EC0128813981260FC8
:102D4000371F2E5F3F4F318320838A819B8193837E
:102D50008283452B29F4F0930D02E0930C0242C0CC
:102D60001396FC93EE931297ED01499159919E01B0
:102D7000240F351FE217F30771F480819181840FCE
:102D8000951F029611969C938E9382819381139640
:102D90009C938E931297E0E0F0E0D80112968D910B
:102DA0009C911397009719F0F8018C01F6CF8D9143
:102DB0009C9198012E5F3F4F820F931F20910A0232
:102DC00030910B022817390769F4309729F41092D3
:102DD0000D0210920C0202C01382128210930B0299
:102DE00000930A02DF91CF911F910F910895A0E007
:102DF000B0E0EDEFF6E10C944814EC01009721F4FB
:102E0000CB010E94CA15B8C0FC01E60FF71F9C0158
:102E100022503109E217F30708F4ACC0D9010D9133
:102E20001C91119706171707B0F00530110508F42B
:102E30009FC0C80104978617970708F499C00250ED
:102E40001109061B170B019311936D937C93CF010E
:102E50000E945F168DC05B01A01AB10A4C01800E62
:102E6000911EA0910C02B0910D0240E050E0E12CC7
:102E7000F12C109709F44AC0A815B905D1F56D9049
:102E80007C901197630182E0C80ED11CCA14DB0448
:102E900080F1A3014A195B096A0182E0C80ED11CC6
:102EA0001296BC9012971396AC91B5E0CB16D10454
:102EB00040F0B282A38351834083D9016D937C9308
:102EC0000AC00E5F1F4FC301800F911FF90191834C
:102ED0008083EB2DFA2FE114F10431F0D701139622
:102EE000FC93EE93129744C0F0930D02E0930C0212
:102EF0003FC08D919C9111974817590708F4AC0178
:102F00007D0112960D90BC91A02DB3CF80910A0245
:102F100090910B0288159905E1F446175707C8F4FC
:102F20008091040190910501009741F48DB79EB7FF
:102F30004091080150910901841B950BE817F9078E
:102F4000C8F4F0930B02E0930A02F90171836083E5
:102F50000FC0CB010E94CA157C01009759F0A8014F
:102F6000BE010E94C617CE010E945F16C70104C0B1
:102F7000CE0102C080E090E0CDB7DEB7EEE00C9469
:102F8000641481E090E0F8940C94D617FB01DC0106
:102F900002C001900D9241505040D8F70895FB01B6
:102FA000DC0101900D920020E1F7089510E0C5E3E7
:102FB000D0E004C0FE010E94C4152196C633D1079B
:062FC000C9F7F894FFCFF1
:102FC6000100000000000E02800000000000F70073
:102FD60060008F003E01C0009E00B2000A0A0A454A
:102FE6006E7472616E63653A20000D0A0009090964
:102FF60044697374616E63653A2000526573756C3B
:10300600743A200009090953706565643A20006E18
:0C301600616E00696E66006F7666000057
:107E0000112484B714BE81FFF0D085E080938100F7
:107E100082E08093C00088E18093C10086E0809377
:107E2000C20080E18093C4008EE0C9D0259A86E02C
:107E300020E33CEF91E0309385002093840096BBD3
:107E4000B09BFECF1D9AA8958150A9F7CC24DD24C4
:107E500088248394B5E0AB2EA1E19A2EF3E0BF2EE7
:107E6000A2D0813461F49FD0082FAFD0023811F036
:107E7000013811F484E001C083E08DD089C08234E0
:107E800011F484E103C0853419F485E0A6D080C0E4
:107E9000853579F488D0E82EFF2485D0082F10E0AE
:107EA000102F00270E291F29000F111F8ED06801E7
:107EB0006FC0863521F484E090D080E0DECF843638
:107EC00009F040C070D06FD0082F6DD080E0C81688
:107ED00080E7D80618F4F601B7BEE895C0E0D1E017
:107EE00062D089930C17E1F7F0E0CF16F0E7DF06D8
:107EF00018F0F601B7BEE89568D007B600FCFDCFD4
:107F0000A601A0E0B1E02C9130E011968C91119780
:107F100090E0982F8827822B932B1296FA010C0160
:107F200087BEE89511244E5F5F4FF1E0A038BF0790
:107F300051F7F601A7BEE89507B600FCFDCF97BE46
:107F4000E89526C08437B1F42ED02DD0F82E2BD052
:107F50003CD0F601EF2C8F010F5F1F4F84911BD097
:107F6000EA94F801C1F70894C11CD11CFA94CF0C13
:107F7000D11C0EC0853739F428D08EE10CD085E9AC
:107F80000AD08FE07ACF813511F488E018D01DD067
:107F900080E101D065CF982F8091C00085FFFCCF94
:107FA0009093C60008958091C00087FFFCCF809118
:107FB000C00084FD01C0A8958091C6000895E0E648
:107FC000F0E098E1908380830895EDDF803219F02E
:107FD00088E0F5DFFFCF84E1DECF1F93182FE3DFCA
:107FE0001150E9F7F2DF1F91089580E0E8DFEE27F6
:047FF000FF270994CA
:027FFE00040479
:0400000300007E007B
:00000001FF
